:100000000C94EF260C9420270C9420270C94202786
:100010000C9420270C9420270C9420270C94202744
:100020000C9420270C9420270C9420270C94202734
:100030000C9420270D94EF590C9420270C94202722
:100040000C9420270C941B980C9420270C942027A8
:100050000C9420270C9420270D9439270D9410B46C
:100060000C9420270C949F440C9495440C942027C6
:100070000C9420270C9420270C9420270C942027E4
:100080000C9420270C9420270C9420270C942027D4
:100090000C9420270C9420270C9420270C942027C4
:1000A0000C9420270C9420270C9420270C942027B4
:1000B0000C9420270C9420270C9420270C942027A4
:1000C0000C9420270C9420270C9420270C94202794
:1000D0000C9420270C9420270C9420270C94202784
:1000E0000C942027D544E744F9440A451245454578
:1000F000164545451A451E454545224526452A458E
:10010000334545453E4508530F53C2537F54DF5591
:10011000E855F8551401D6024201E8023601AC0256
:10012000A80264029C01C20192018602860170014C
:1001300064014E02200136027E02960220028E02E7
:10014000EA018C024A01A00176024C01C6020A01B2
:10015000540112022E02FE01A0017C01E002EC011A
:1001600005A84CCDB2D44EB93836A9020C50B9917D
:100170008688083CA6AAAA2ABE000000803F076322
:100180004236B79BD8A71A39685618AEBAAB558C09
:100190001D3CB7CC5763BD6DEDFD753EF617723152
:1001A000BF000000803F08000000BE922449123EBC
:1001B000ABAAAA2ABECDCCCC4C3E00000080BEAB80
:1001C000AAAAAA3E00000000BF000000803F000075
:1001D000000000084178D3BB4387D1133D190E3C82
:1001E000C3BD4282AD2B3E68EC8276BED98FE1A9B9
:1001F0003E4C80EFFFBE01C4FF7F3F0000000000C7
:100200000D94985A0D94C8010C94D88D0C94BB8D04
:100210000D94356A0D9455B30D94A8010C9478860D
:100220000C947A810C9489890D94EC060D94B81382
:100230000D9492140C94E9710D949E110D94031475
:100240000D94892A0C941A450C94196B0C945284C1
:100250000C949BFF0D9473110C94245F0D94EB137D
:100260000D941E160D9442040D940B5B0D94D5064F
:100270000D94D3130D94B2630D9447130C94BAF3F9
:100280000D9484590D94D2060C94D5440C94F159D4
:100290000D94AC010D943AB30D944BB30D94F71338
:1002A0000D9482100C94CCF40D9459B30C94F85521
:1002B0000D94FD130C9412450D9470130D94400A87
:1002C0000C94C0F40C94E8550D94712A0C9448FDDC
:1002D0000D94C0590C94F78F0D941E020C9456691E
:1002E0000D946C2A0D9477080C94F28F0D94995A02
:1002F0000D942D090C947D8D0D946DB30C941468A0
:100300000C9474860C94C2530C946B860D948129C2
:100310000C9413830D94D0110D94CA0C0C9481F39A
:100320000C9447680D94E1060D9411120D949D13E1
:100330000D9485110D94B0010D94DE060C9471F8A6
:100340000D947AB30D9429660D943D120C949AF392
:100350000D947E0C0D94CD130C94D8710C94FC8FDD
:100360000D94B7110D94BC010D94E3BB0C94C581A1
:100370000D949B0B0D945A590C9426450C94EE67E2
:100380000C94B5FA0D94FA060C94CF590C94698626
:100390000C94B0590C9476860C9433450D94BC0F94
:1003A0000C9416930D942A120C940F530D946B64B5
:1003B0000C946EF30C941E450C94F08D0D94B401C6
:1003C0000D94D9130C945BF40D9467030D94A55907
:1003D0000D941C1A0D9432B30D9475B30D948E13B5
:1003E0000C941D6B0D946C030D947A030C94F35EC6
:1003F0000C94FF6E0D94F1130C9445450D9467B366
:100400000D947E120C9455900C947A860D94E513FD
:100410000D947F130D9470640D949B030C94B6F3AC
:100420000C9474F40D945FB30C943E8D0C942A4597
:100430000C94E76F0C94DE8D0C9497F60D94AB5AE8
:100440000D9440B30D94A9130D945B1E0C943E457E
:100450000D9440070C947EFE0D94FE110D9463B331
:100460000D947A170C9468650C94E6FD0D949C2A03
:100470000C94A8F30C94E48D0D9491590C94E744DA
:100480000C949C8D0C9443680C94F9440D94561272
:100490000D94B8010D9471070C9408530D94842A9F
:1004A0000D9495030C9487670C940A930C94A1F413
:1004B0000C94FE920D9486030D9467660D94A07DB6
:1004C0000C94A9690D9475030D94E7060D94DF1340
:1004D0000C94BB940C9410930D9427090C94426BCC
:1004E0000C94EA8D0C942FFD0D9478170D9447B35E
:1004F0000C9401900C946D6D0D940A260D94A82A0D
:100500000D94630B0D94C7130D9466130D94E406BC
:100510000D9421240C94ADF40D9436B30D9443B393
:100520000D94DF0D0C94126B0C944B680D94712993
:100530000C94D0710D942B1A0C94C6890C9442F42F
:100540000C94EE590C9422450D94CC010D94C001ED
:100550000D94DB060C9416450D94D8060D94D51811
:100560000D9403130D9494640C943A680C94588180
:100570000D94FDBB0D946F120D9475640D94C40120
:100580000C9404930D94A96B0D9487120D9451B3A0
:100590000C940A450C945B680C94DF550C94EC9019
:1005A0000C94D4710C948DF40D944B170D94CF06CC
:1005B0000C947F540C94C6F40D9470030D94EB11BD
:1005C0000D9471B30D9449170D947C170D940A0A7C
:1005D0000D94EF064E414E494E495459494E46CD71
:1005E000CCCC3D0AD7233C17B7D13877CC2B3295EA
:1005F00095E6241FB14F0A000020410000C84200C8
:10060000401C4620BCBE4CCA1B0E5AAEC59D740091
:10061000407A10F35A00A0724E18090010A5D4E8D1
:100620000000E87648170000E40B54020000CA9A64
:100630003B000000E1F505000080969800000040B6
:10064000420F000000A086010000001027000000FB
:1006500000E803000000006400000000000A000041
:100660000000000100000000002C76D888DC674FF5
:100670000823DFC1DFAE59E1B1B796E5E3E453C625
:100680003AE651997696E8E6C28426EB898C9B621D
:10069000ED407C6FFCEFBC9C9F40F2BAA56FA5F4C7
:1006A00090055A2AF75C936B6CF9676DC11BFCE0EF
:1006B000E40D47FEF520E6B500D0ED902E03009442
:1006C0003577050080841E080000204E0A000000D7
:1006D000C80C333333330F986E12831141EF8D21E1
:1006E00014893BE65516CFFEE6DB18D1844B381B48
:1006F000F77C1D901DA4BBE424203284725E22810D
:1007000000C9F124ECA1E53D274C4556454C494E26
:100710004700434F4D4D554E49434154494F4E00BC
:1007200044525952554E004552524F525300454380
:10073000484F00536C6565702E2E2E00202864698A
:100740007361626C6564290A0055424C2041646AF9
:100750007573746D656E74205A002028656E616231
:100760006C6564290A0041626F76650053616D65AE
:10077000205A2061730042656C6F77004175746F79
:1007800020426564204C6576656C696E673A205539
:10079000424C00204E6F7A7A6C65290A0020262090
:1007A000002D43656E746572002D46726F6E740085
:1007B0002D4261636B002028416C69676E6564207F
:1007C000576974680020284D6964646C65002028AE
:1007D0004C65667400202852696768740050726F17
:1007E00062653A204649585F4D4F554E5445445F27
:1007F00050524F42450A004D616368696E6520544E
:100800007970653A2044656C74610A003E20686F17
:100810006D696E67206E6F74206E65656465642C0B
:1008200020736B69700A00205A3A200020593A2040
:100830000042656420583A20004D65736820706F4F
:10084000696E74206F7574206F662072616E6765C3
:100850000A004D302053746F70004D312053746F77
:100860007000436C69636B20746F20526573756D03
:10087000652E2E2E004E6F204D6F76652E00456E34
:10088000642066696C65206C6973740A0042656750
:10089000696E2066696C65206C6973740A004E6F1E
:1008A000206D656469610A00526573756D696E67D4
:1008B00020534400286E6F2066696C6529004375DB
:1008C0007272656E742066696C653A200044656CCE
:1008D0006574696F6E206661696C65642C20466979
:1008E0006C653A200046696C652064656C657465CA
:1008F000643A0025697920256964202569682025E6
:10090000696D20256973005072696E742074696D79
:10091000653A20004525632025530044454255474C
:100920003A004D31313320530042656420436F6FEC
:100930006C696E672E2E2E004265642048656174D6
:10094000696E672E2E2E0050533A300A0050533AEB
:10095000310A003344205072696E746572204F462C
:10096000462E004348414D4245525F54454D504547
:1009700052415455524500424142595354455050FA
:10098000494E470041524353004D4F54494F4E5F2B
:100990004D4F44455300544845524D414C5F5052D1
:1009A0004F54454354494F4E004C4F4E475F4649C4
:1009B0004C454E414D45004155544F5245504F52C4
:1009C000545F53445F53544154555300534443417F
:1009D00052440050524F4D50545F535550504F5257
:1009E0005400454D455247454E43595F504152537F
:1009F000455200434153455F4C494748545F42527A
:100A0000494748544E45535300544F47474C455F60
:100A10004C494748545300534F4654574152455F41
:100A2000504F574552004255494C445F5045524340
:100A3000454E54004C4556454C494E475F44415441
:100A400041005A5F50524F4245004155544F4C456A
:100A500056454C005052494E545F4A4F4200505246
:100A60004F4752455353004155544F5245504F52F2
:100A7000545F54454D5000564F4C554D45545249C6
:100A8000430042494E4152595F46494C455F5452DA
:100A9000414E534645520053455249414C5F584FD1
:100AA0004E5F584F4646004649524D574152455FAA
:100AB0004E414D453A4D61726C696E20322E302E9A
:100AC000372E3220284D61722020382032303231CA
:100AD0002031323A35383A30342920534F55524379
:100AE000455F434F44455F55524C3A687474707388
:100AF0003A2F2F6769746875622E636F6D2F4D6191
:100B0000726C696E4669726D776172652F4D6172A4
:100B10006C696E2050524F544F434F4C5F564552B4
:100B200053494F4E3A312E30204D414348494E45AE
:100B30005F545950453A3344205072696E7465725F
:100B40002045585452554445525F434F554E543AF0
:100B50003220555549443A63656465326132662DE9
:100B6000343161322D343734382D396231322D63CE
:100B700035356336326633363766660A002F2F20E6
:100B8000004D31343520533C696E6465783E206FEA
:100B90007574206F662072616E67652028302D3174
:100BA000290A00416363656C65726174696F6E3A0E
:100BB0002050005741524E494E4721204C6F77201C
:100BC0005A204A65726B206D6179206C65616420E2
:100BD000746F20756E77616E7465642070617573D3
:100BE00065732E0A0020204D61783A200020204DA8
:100BF000696E3A2000536F667420656E6473746F7B
:100C000070733A200046523A0020466C6F773A20C3
:100C1000006469730043290A0061626C65642028DE
:100C20006D696E2074656D702000436F6C64206583
:100C3000787472756465732061726520004D34327A
:100C40003120696E636F72726563742070617261C6
:100C50006D657465722075736167650A004545505E
:100C6000524F4D204F4B0A005D203D200064656CC3
:100C700074615F656E6473746F705F61646A5B005A
:100C80004D363636004D6163726F20746F6F206C85
:100C90006F6E672E0A004D3834204500446F6E6534
:100CA000207072696E74696E672066696C650A00EF
:100CB0004D3737004D3331002E07D40D270720075D
:100CC0001207090750726F74656374656420506978
:100CD0006E0A005A5F6D6F76655F636F6D700A0014
:100CE00044656C74612043616C6962726174696F00
:100CF0006E20696E2070726F6772657373003E3E7E
:100D00003E207365745F617869735F6E65766572A6
:100D10005F686F6D656428003C3C3C207365745FC0
:100D2000617869735F6E657665725F686F6D656423
:100D30002800416363656C65726174696F6E206C35
:100D4000696D697465642E0A005072696E7465720B
:100D50002073746F707065642064756520746F20F3
:100D60006572726F72732E204669782074686520F0
:100D70006572726F7220616E6420757365204D39E3
:100D8000393920746F20726573746172742E202853
:100D900054656D7065726174757265206973207237
:100DA000657365742E2053657420697420616674C0
:100DB00065722072657374617274696E67290A00C6
:100DC000554E4B4E4F574E205354415445004743C8
:100DD0004F44455F494E464F004C43445F50415598
:100DE00053455F524553554D450046494C414D458D
:100DF0004E545F52554E4F55545F434F4E54494EDB
:100E000055450046494C414D454E545F52554E4F55
:100E10005554004D38373620526573706F6E6469D3
:100E20006E672050524F4D50545F004572726F7282
:100E30002077726974696E6720746F20454550523F
:100E40004F4D210A0053544F505045442E20004E20
:100E50006F20436865636B73756D207769746820D4
:100E60006C696E65206E756D6265722C204C6173C5
:100E700074204C696E653A2000636865636B737516
:100E80006D206D69736D617463682C204C6173749F
:100E9000204C696E653A20004C696E65204E756D78
:100EA000626572206973206E6F74204C61737420C8
:100EB0004C696E65204E756D6265722B312C204C2D
:100EC000617374204C696E653A20004D31313000F9
:100ED00053442072656164206572726F720A00214A
:100EE00021204B494C4C2063617573656420627905
:100EF00020746F6F206D75636820696E616374691B
:100F000076652074696D65202D2063757272656E3B
:100F10007420636F6D6D616E643A20006275737941
:100F20003A2070617573656420666F7220696E7017
:100F300075740A00627573793A207061757365641F
:100F400020666F7220757365720A00627573793A54
:100F50002070726F63657373696E670A004D656414
:100F600069612052656D6F766564004D65646961E5
:100F700020496E73657274656400506C65617365B9
:100F8000205265736574005052494E5445522048B2
:100F9000414C5445440025533A20255300706F7747
:100FA00065726F6666004B494C4C45442E200050DC
:100FB00072696E7465722068616C7465642E206B52
:100FC000696C6C28292063616C6C6564210A00657A
:100FD00063686F3A004572726F723A003F3F3F207C
:100FE00059696B65732120204E414E20696E206740
:100FF00065745F7A5F636F7272656374696F6E2880
:101000000029203D200020726177206765745F7A97
:101010005F636F7272656374696F6E2800203A2097
:101020002E2E2E4E6F77204F4E0A00203A204C6510
:1010300076656C696E67204F46460A00203A202E7E
:101040002E2E4E6F77204F46460A00203A204C65E0
:1010500076656C696E67204F4E0A00726573657421
:101060005F6265645F6C6576656C0A00204A0020EB
:10107000204D34323120490020204732392049396F
:1010800039390A006163746976650A0020537973FF
:1010900074656D2076312E303120002020207C0AAE
:1010A000004E414E0020202E20202000207C004CAD
:1010B00043443A0A004353563A0A0020666F7220AE
:1010C000003A0A0A000A42656420546F706F677222
:1010D00061706879205265706F7274002054726973
:1010E000676765726564206561726C792E00204EB9
:1010F0006F20747269676765722E002050726F628C
:1011000065206661696C21202D00534C4F570050BB
:10111000726F62653A3A72756E5F7A5F70726F6273
:10112000650050726F62696E67204661696C656424
:101130000A0050726F62696E67204661696C65646F
:1011400000506F736974696F6E204E6F7420526522
:1011500061636861626C650A005F72656C617469E5
:101160007665290A0050726F62653A3A70726F6252
:10117000655F61745F706F696E7400446F6E652E99
:101180000A003F496E76616C69642073746F726106
:10119000676520736C6F742E0A3F5573652030208D
:1011A000746F20004732392050322066696E6973AF
:1011B0006865642E0A005859206F757473696465F8
:1011C000207072696E7461626C6520726164697509
:1011D000732E0A003F4572726F7220696E2042754D
:1011E00073696E6573732043617264206D6561730A
:1011F0007572656D656E742E0A004D616E75616C59
:101200006C792070726F62696E6720756E726561AD
:10121000636861626C6520706F696E74732E0A007A
:1012200050726F62696E672061726F756E642028FC
:10123000004D65736820696E76616C6964617465E0
:10124000642E2050726F62696E67206D6573682E20
:101250000A004D657368207A65726F65642E0A0016
:1012600044656661756C742073746F726167652084
:10127000736C6F7420302073656C65637465642EC5
:101280000A004C6F6164696E6720746573745F70E7
:1012900061747465726E2076616C7565732E0A0ACE
:1012A00000496E76616C696420746573745F706167
:1012B000747465726E2076616C75652E20282D31F0
:1012C00020746F2032290A0A004C6F636174696FC1
:1012D0006E7320696E76616C6964617465642E0A50
:1012E0000A00456E74697265204D65736820696EE9
:1012F00076616C6964617465642E0A0A007C4D61D4
:10130000726C696E7C002D2D2D2D2D2D00456E6388
:101310006C6F73757265004D6F76696E672E2E2E39
:10132000004C6F6164206D6D00556E6C6F616420C0
:101330006D6D004175746F20486F6D650054656D6B
:10134000706572617475726500507265686561746C
:10135000202400416476616E6365204B202A00469C
:10136000616E205370656564004D61696E0045785B
:10137000747275646572202A0045787472756465AC
:1013800072004D6F7665205A004672656520585987
:10139000004D6F76652059004D6F766520580053DB
:1013A0006F667420456E6473746F70730044697364
:1013B00061626C65205374657070657273004D389E
:1013C00034004D6F7665204178697300507265680E
:1013D000656174202420416C6C0050726568656101
:1013E00074202420456E64207E005072656865611B
:1013F0007420242042656400507265686561742021
:1014000024207E00436F6F6C646F776E004E6F7A9E
:101410007A6C65207E004261627973746570205A2F
:1014200000466C6F77207E00466C6F77006E6F749D
:10143000696669636174696F6E20005072696E74C9
:1014400020506175736564003344205072696E7476
:1014500065722052656164792E005072696E7469FC
:101460006E672E2E2E0063616E63656C005072698C
:101470006E742041626F72746564004469736D69B3
:1014800073730055492041626F72746564004D3278
:101490003520500A4D323400526573756D65005524
:1014A000492050617573650050617573696E672ED0
:1014B0002E2E00726573756D65003C3C3C20736593
:1014C000745F617869735F69735F61745F686F6D82
:1014D000652800203A200A003E3E3E207365745F76
:1014E000617869735F69735F61745F686F6D6528A8
:1014F00000686F6D655F64656C746100486F6D694D
:101500006E67204661696C6564006F70656E00549B
:101510005249474745524544007A5F6D6178007AE9
:101520005F6D696E00795F6D617800785F6D6178DD
:10153000005265706F7274696E6720656E647374B3
:101540006F70207374617475730A000000000000EE
:10155000000000ECD13A434D333033205531204563
:1015600025692053256900504944204175746F74E2
:10157000756E65202A005049442D43202A005049A9
:10158000442D44202A005049442D49202A00504926
:10159000442D50202A00200220466163740020025E
:1015A000204D6178002002204D696E004175746FF6
:1015B00074656D70005654726176204D696E0056E8
:1015C0006D696E00566D6178202A00566D61782035
:1015D0004500566D6178204300566D6178204200C9
:1015E000566D6178204100416D6178202A00416D7F
:1015F0006178204500416D6178204300416D61783C
:10160000204200416D6178204100412D5472617685
:10161000656C00412D5265747261637400416363AF
:10162000656C0056652D4A65726B0056432D4A6500
:10163000726B0056422D4A65726B0056412D4A6509
:10164000726B004368616E67652046696C616D6509
:101650006E7400436F6E66696775726174696F6E50
:101660000043616E63656C204F626A656374003F7E
:101670000043616E63656C004368616E6765204D71
:1016800065646961004D3231004175746F73746136
:1016900072740053776974636820506F77657220A5
:1016A0004F6E004D38300053776974636820506F77
:1016B000776572204F6666004D38310041626F7564
:1016C00074205072696E74657200526573756D6531
:1016D000205072696E74004E6F204D656469610020
:1016E00054756E650053746F70205072696E74008B
:1016F0005061757365205072696E74005374617225
:1017000074205072696E740043616E6E6F74206550
:101710006E746572207375626469723A2000052EDA
:101720002E004D6F76652025736D6D004D6F7665CB
:1017300020302E316D6D004D6F766520316D6D005E
:101740004D6F76652031306D6D00486F74656E6445
:1017500020746F6F20636F6C640050726F636565F7
:10176000640024F4D43050C38E20C2A24017828B70
:101770007011127A910D816CD90AA861E108C758DD
:101780006607615143061E4B5D05C145A7041A411A
:101790001104093D9803713931034036DB0265338A
:1017A0009102D4305402802E1D02632CEE01752A62
:1017B000C501B028A001102781018F2564012B24C9
:1017C0004B01E0223401AC211F018D200D01801F4F
:1017D000FC00841EED00971DDF00B81CD200E61B44
:1017E000C600201BBC00641AB200B219A8000A1976
:1017F000A0006A189900D117910040178B00B51608
:10180000840031167E00B31579003A157300C714B1
:101810006F0058146A00EE136600881363002513E6
:101820005E00C7125B006C12570015125400C11104
:10183000510070114F0021114B00D61049008D103E
:1018400047004610440002104200C00F4000800FC5
:101850003E00420F3C00060F3B00CB0E3800930EBB
:1018600037005C0E3500270E3400F30D3200C10D39
:101870003100900D3000600D2E00320D2D00050D51
:101880002C00D90C2B00AE0C2900850C29005C0C17
:101890002700350C27000E0C2600E80B2400C40B93
:1018A0002400A00B23007D0B23005A0B2100390BD1
:1018B0002100180B2000F80A1F00D90A1E00BB0ADD
:1018C0001E009D0A1D00800A1D00630A1C00470AB5
:1018D0001B002C0A1B00110A1A00F7091A00DD0967
:1018E0001900C4091900AB091900920917007B09F6
:1018F0001800630917004C09160036091600200964
:1019000016000A091500F5081500E0081400CC08B7
:101910001400B8081400A4081400900813007D08EF
:1019200012006B0813005808120046081200340811
:101930001100230811001208110001081100F0071E
:101940001000E0071000D0071000C0071000B0071B
:101950000F00A107100091070E0083070F00740706
:101960000F0065070E0057070E0049070E003B07E2
:101970000D002E070E0020070D0013070D000607AF
:101980000D00F9060C00ED060D00E0060C00D40673
:101990000C00C8060C00BC060C00B0060C00A40627
:1019A0000B0099060C008D060B0082060B007706D3
:1019B0000B006C060B0061060A0057060B004C0674
:1019C0000A0042060A0038060A002E060A0024060B
:1019D0000A001A060A001006090007060A00FD059B
:1019E0000900F4050900EB050900E2050900D90525
:1019F0000900D0050900C7050900BE050900B505A5
:101A00000800AD050800A50509009C05080094051F
:101A100008008C050800840508007C050800740592
:101A200008006C050700650508005D050700560500
:101A300008004E0507004705070040050800380567
:101A40000700310507002A050700230507001C05CC
:101A50000600160507000F05070008050600020529
:101A60000700FB040600F5040700EE040600E80486
:101A70000600E2040700DB040600D5040600CF04DC
:101A80000600C9040600C3040600BD040600B7042E
:101A90000600B1040500AC040600A6040600A0047C
:101AA00005009B04060095040500900406008A04C6
:101AB000050085040500800406007A04050075040D
:101AC0000500700405006B04050066040500610450
:101AD00005005C04050057040500520405004D0490
:101AE000050048040500430405003E0404003A04D0
:101AF000050035040500300404002C04050027040B
:101B00000400230405001E0404001A040400160443
:101B10000500110404000D04040009040500040478
:101B2000040000040400FC030400F8030400F403B0
:101B30000400F0030400EC030400E8030400E403E1
:101B40000400E0030400DC030400D8030400D40311
:101B50000400D0030400CC030400C8030300C50341
:101B6000030024F404D9201BC40C5C0E9804C4099F
:101B70005F0265077101F405F900FB04B300480436
:101B80008700C10369005803550003034500BE02E6
:101B90003A008402310053022A002902250004027F
:101BA0002000E4011C00C8011900AF0117009801D2
:101BB0001400840113007101100061011000510133
:101BC0000E0043010D0036010B002B010B0020011C
:101BD0000B00150109000C01090003010800FB00BE
:101BE0000800F3000800EB000700E4000600DE0038
:101BF0000600D8000600D2000600CC000500C70091
:101C00000500C2000500BD000400B9000400B500D5
:101C10000400B1000400AD000400A9000400A50008
:101C20000300A20003009F0004009B000300980033
:101C300003009500020093000300900003008D0054
:101C400002008B000300880002008600020084006E
:101C50000300810002007F0002007D0002007B0083
:101C60000200790002007700010076000200740093
:101C7000020072000100710002006F0002006D009E
:101C800001006C0002006A000100690002006700A8
:101C900001006600010065000100640002006200AE
:101CA000010061000100600001005F0002005D00B2
:101CB00001005C0001005B0001005A0001005900B6
:101CC00001005800010057000100560001005500B6
:101CD00001005400010053000000530001005200B5
:101CE000010051000100500001004F0001004E00B2
:101CF00000004E0001004D0001004C0001004B00AF
:101D000000004B0001004A000100490001004800AA
:101D100000004800010047000100460000004600A6
:101D2000010045000000450001004400010043009F
:101D30000000430001004200000042000100410099
:101D4000000041000100400001003F0000003F0092
:101D500001003E0000003E0001003D0000003D008B
:101D600001003C0000003C0000003C0001003B0082
:101D700000003B0001003A0000003A000100390079
:101D80000000390001003800000038000000380071
:101D90000100370000003700010036000000360067
:101DA000000036000100350000003500000035005D
:101DB0000100340000003400000034000100330052
:101DC0000000330000003300010032000000320048
:101DD000000032000100310000003100000031003D
:101DE00001003000000030000000300001002F0032
:101DF00000002F0000002F0000002F0001002E0027
:101E000000002E0000002E0001002D0000002D001B
:101E100000002D0000002D0001002C0000002C000F
:101E200000002C0000002C0001002B0000002B0003
:101E300000002B0000002B0001002A0000002A00F7
:101E400000002A0000002A000100290000002900EB
:101E500000002900000029000000290001002800DE
:101E600000002800000028000000280000002800D2
:101E700001002700000027000000270000002700C5
:101E800000002700010026000000260000002600B8
:101E900000002600000026000100250000002500AB
:101EA000000025000000250000002500000025009E
:101EB0000100240000002400000024000000240091
:101EC0000000240001002300000023000000230084
:101ED0000000230000002300000023000000230076
:101EE0000100220000002200000022000000220069
:101EF000000022000000220001002100000021005B
:101F0000000021000000210000002100000021004D
:101F1000000021000100200000002000000020003F
:101F20000000200000002000000020000000200031
:101F30000000200001001F0000001F0000001F0023
:101F400000001F0000001F0000001F0000001F0015
:101F500001001E0000001E0000001E0000001E0008
:101F60000000232C0000B8220000561800003A0F91
:101F70000000B8080000B1040000710200003E013A
:101F800000002E2E2E2800203A2073796E635F7099
:101F90006C616E5F706F736974696F6E0A00203ACE
:101FA00020707265706172655F666173745F6D6FDA
:101FB00076655F746F5F64657374696E6174696F71
:101FC0006E0A00202064657374696E6174696F6EB7
:101FD0003D00203A207A206C6F776572206D6F7615
:101FE000650A00203A207879206D6F76650A002016
:101FF0003A207A207261697365206D6F76650A00F8
:10200000203A207A6F6E6520626F72646572206D6F
:102010006F76650A00203A2064616E676572207AE7
:102020006F6E65206D6F76650A00203A20646573D7
:1020300074696E6174696F6E203D2063757272659C
:102040006E745F706F736974696F6E0A00646F5F9E
:10205000626C6F636B696E675F6D6F76655F746FDF
:1020600000206D61783A00206D696E3A0041786910
:102070007320005761726E696E673A20486F6D6910
:102080006E672042756D702044697669736F7220A7
:102090003C20310A005D002C2000646F5F686F6D8A
:1020A000696E675F6D6F7665003C3C3C20686F6DC4
:1020B0006561786973280061646A44697374616E4C
:1020C00063653A00486F6D65203220536C6F773A34
:1020D0000A004D6F766520417761793A0A00486FB2
:1020E0006D65203120466173743A0A003E3E3E2001
:1020F000686F6D656178697328000000B442000064
:10210000B442ECD13A430000B4C20000B4C20000B3
:1021100000000A0A0A0000704200007042000070CD
:10212000420000A0400000A0400000A04000003499
:102130004300003443ECD13A4301010100000001A7
:1021400000000001000080005555550000004000CF
:1021500033333300AAAA2A00499224000000200049
:10216000C7711C0099991900D145170055551500E4
:102170003BB113002449120011111100000010009E
:102180000F0F0F00E3380E0043790D00CCCC0C008C
:10219000C3300C00E8A20B0064210B00AAAA0A00BD
:1021A000703D0A009DD80900427B09009224090075
:1021B000DCD30800888808001042080000000800EE
:1021C000F0C107008787070075500700711C0700E2
:1021D0003EEB0600A1BC060069900600666606009C
:1021E000703E06006118060017F4050074D1050062
:1021F0005BB00500B2900500627205005555050000
:1022000078390500B81E0500050505004EEC0400F0
:1022100087D40400A1BD040090A7040049920400E3
:10222000C17D0400EE690400C75604004444040064
:102230005C32040008210400411004000000040086
:102240003FF00300F8E0030026D20300C3C30300FD
:10225000CCB503003AA803000A9B0300388E0300A4
:10226000C08103009F750300D0690300505E030026
:102270001D53030034480300913D03003333030032
:1022800016290300381F030097150300300C0300C4
:10229000030303000BFA020049F10200BAE802004E
:1022A0005CE002002DD802002DD0020059C80200C7
:1022B000B0C0020031B90200DAB10200AAAA0200DD
:1022C000A0A30200BC9C0200FA9502005C8F0200F1
:1022D000DF88020082820200457C0200277602002D
:1022E00027700200436A02007C640200D05E020094
:1022F0003F590200C853020020746F6F206C6F6E4C
:102300006720657874727573696F6E207072657678
:10231000656E7465640A0020636F6C642065787470
:10232000727573696F6E2070726576656E74656420
:102330000A00FFFDFCFAF8F6F4F2F0EEECEAE9E749
:10234000E5E3E1E0DEDCDAD9D7D5D4D2D0CFCDCB0E
:10235000CAC8C7C5C3C2C0BFBDBCBAB9B7B6B4B39B
:10236000B2B0AFADACAAA9A8A6A5A4A2A1A09E9DFB
:102370009C9A99989795949392908F8E8D8B8A8939
:1023800088878684838281807F7E7D7B7A79787757
:10239000767574737271706F6E6D6C6B6A69686755
:1023A000666564636261605F5E5D5C5B5A59585844
:1023B0005756555453525150504F4E4D4C4B4A4A1C
:1023C0004948474646454443424241403F3E3E3DE0
:1023D0003C3B3B3A39383837363535343332323195
:1023E00030302F2E2E2D2C2B2B2A2929282727263B
:1023F000252524232322212120201F1E1E1D1C1CD5
:102400001B1B1A1919181817161615151413131261
:10241000121111100F0F0E0E0D0D0C0C0B0A0A09E4
:10242000090808070706060505040403030202015C
:10243000000050726F6265204F66667365742058A5
:1024400000446966663A2020200046726F6D53741E
:10245000703A00537465707065723A0044656C742C
:10246000614B3A2000556E4C6576656C3A004C65C0
:1024700076656C65643A005261773A20202020002E
:102480000A4C6F676963616C3A00436F756E742024
:10249000453A004361703A003F5A206F7574206FCF
:1024A000662072616E67652028003F59206F757441
:1024B000206F662072616E676520282D003F5820CE
:1024C0006F7574206F662072616E676520282D001D
:1024D000656E7175657565696E672022006F6B00AA
:1024E000526573656E643A200023646566696E65A3
:1024F0002044454641554C545F004B6420004B69D5
:1025000020004B702000504944204175746F747551
:102510006E652066696E6973686564212050757404
:1025200020746865206C617374204B702C204B699B
:1025300020616E64204B6420636F6E7374616E74EF
:10254000732066726F6D2062656C6F7720696E74A0
:102550006F20436F6E66696775726174696F6E2E66
:10256000680A00504944204175746F74756E652087
:102570006661696C6564212074696D656F75740AA4
:10258000000A20436C617373696320504944200A38
:1025900000204B643A2000204B693A2000204B7009
:1025A0003A20000A204E6F206F76657273686F6F55
:1025B000740A002054753A2000204B753A20002000
:1025C0006D61783A2000206D696E3A200020643AEF
:1025D000200020626961733A20005049442041750F
:1025E000746F74756E652073746172740A0050495B
:1025F00044204175746F74756E65206661696C6501
:1026000064212054656D7065726174757265207403
:102610006F6F20686967680A0050494420417574EB
:102620006F74756E6500504944204175746F747500
:102630006E65206661696C65642120426164206575
:1026400078747275646572206E756D6265720A00C9
:10265000A10000006900A20000006300B0000000BB
:102660000900C10000004100C20000004100C30099
:1026700000004100C40000004100C500000041000E
:10268000C60000004145C70000004300C80000002C
:102690004500C90000004500CD0000004900D10000
:1026A00000004E00D50000004F00D60000004F0093
:1026B000D70000007800DC0000005500DD000000BD
:1026C0005900E00000006100E10000006100E2004C
:1026D00000006100E30000006100E4000000610010
:1026E000E50000006100E60000006165E700000011
:1026F0006300E80000006500E90000006500EA00F2
:1027000000006500EB0000006500EC0000006900BF
:10271000ED0000006900EE0000006900EF0000001D
:102720006900F10000006E00F20000006F00F3008D
:1027300000006F00F40000006F00F50000006F0063
:10274000F60000006F00F80000006F00F9000000C4
:102750007500FA0000007500FB0000007500FC0029
:1027600000007500FD0000007900FF000000790006
:1027700004010000410005010000610006010000A5
:1027800043000701000063000C01000043000D013D
:10279000000063000E01000044000F01000064000F
:1027A0001101000064001901000065001A01000019
:1027B00045001B01000065001F010000670030019B
:1027C00000004900310100006900410100004C0097
:1027D000420100006C00430100004E004401000073
:1027E0006E00480100006E005801000052005901BF
:1027F000000072005A01000053005B0100007300EA
:102800005F010000730060010000530061010000DF
:1028100073006501000074006F01000075007C0109
:1028200000007A007D0100005A007E0100007A005D
:10283000920100006600E302000078002220000000
:102840002E001E210000507822210000544D9021BE
:1028500000003C2D922100002D3EB021000003001D
:10286000BB21000004003C2200007E004822000042
:102870007E3D60220000213D612200003D00642277
:1028800000003C3D652200003E3DF12300000700B2
:10289000A03000003D0021F301000200C2F401005D
:1028A0000500A2000000EC00B0000000DF00E40022
:1028B0000000E100F6000000EF00F7000000FD005E
:1028C000FC000000F500E3020000EB0087030000BD
:1028D000A5008F030000F40098030000F2009E039F
:1028E0000000E300A3030000F600A9030000F400C9
:1028F000AC030000E000AD030000E300B103000002
:10290000E000B2030000E200B5030000E300B803FA
:102910000000F200BC030000E400BE030000E3007E
:10292000C0030000F700C1030000E600C30300007D
:10293000E500902100007F00922100007E001A2215
:102940000000E8001E220000F30088250000FF00C0
:1029500002300000A1000C300000A2000D30000089
:10296000A3009B300000DE009C300000DF00A030A0
:1029700000003D00A1300000A700A2300000B1001F
:10298000A3300000A800A4300000B200A530000071
:10299000A900A6300000B300A7300000AA00A830AC
:1029A0000000B400A9300000AB00AA300000B50060
:1029B000AB300000B600AC300000B6DEAD30000039
:1029C000B700AE300000B7DEAF300000B800B03066
:1029D0000000B8DEB1300000B900B2300000B9DE4E
:1029E000B3300000BA00B4300000BADEB5300000E9
:1029F000BB00B6300000BBDEB7300000BC00B83012
:102A00000000BCDEB9300000BD00BA300000BDDE01
:102A1000BB300000BE00BC300000BEDEBD30000098
:102A2000BF00BE300000BFDEBF300000C000C030BD
:102A30000000C0DEC1300000C100C2300000C1DEB5
:102A4000C3300000AF00C4300000C200C530000039
:102A5000C2DEC6300000C300C7300000C3DEC8308D
:102A60000000C400C9300000C4DECA300000C50048
:102A7000CB300000C600CC300000C700CD300000D5
:102A8000C800CE300000C900CF300000CA00D030EE
:102A90000000CADED1300000CADFD2300000CB0017
:102AA000D3300000CBDED4300000CBDFD5300000C7
:102AB000CC00D6300000CCDED7300000CCDFD830E0
:102AC0000000CD00D9300000CDDEDA300000CDDFCF
:102AD000DB300000CE00DC300000CEDEDD30000058
:102AE000CEDFDE300000CF00DF300000D000E0306D
:102AF0000000D100E1300000D200E2300000D3003D
:102B0000E3300000AC00E4300000D400E530000009
:102B1000AD00E6300000D500E7300000AE00E83040
:102B20000000D600E9300000D700EA300000D800ED
:102B3000EB300000D900EC300000DA00ED3000008E
:102B4000DB00EF300000DC00F2300000A600F330C4
:102B50000000DD00F4300000B3DEF7300000DCDE02
:102B6000FA300000A6DEFB300000A500FC300000BB
:102B7000B000FD300000A400074E0000FB008651AD
:102B80000000FC0043530000FA0064FF0000A400B2
:102B900065FF0000A50066FF0000A60067FF0000BB
:102BA000A70068FF0000A80069FF0000A9006AFFF5
:102BB0000000AA006BFF0000AB006CFF0000AC003F
:102BC0006DFF0000AD006EFF0000AE006FFF000063
:102BD000AF0070FF0000B00071FF0000B10072FF95
:102BE0000000B20073FF0000B30074FF0000B400E7
:102BF00075FF0000B50076FF0000B60077FF00000B
:102C0000B70078FF0000B80079FF0000B9007AFF34
:102C10000000BA007BFF0000BB007CFF0000BC008E
:102C20007DFF0000BD007EFF0000BE007FFF0000B2
:102C3000BF0080FF0000C00081FF0000C10082FFD4
:102C40000000C20083FF0000C30084FF0000C40036
:102C500085FF0000C50086FF0000C60087FF00005A
:102C6000C70088FF0000C80089FF0000C9008AFF74
:102C70000000CA008BFF0000CB008CFF0000CC00DE
:102C80008DFF0000CD008EFF0000CE008FFF000002
:102C9000CF0090FF0000D00091FF0000D10092FF14
:102CA0000000D20093FF0000D30094FF0000D40086
:102CB00095FF0000D50096FF0000D60097FF0000AA
:102CC000D70098FF0000D80099FF0000D9009AFFB4
:102CD0000000DA009BFF0000DB009CFF0000DC002E
:102CE0009DFF0000DD009EFF0000DE009FFF000052
:102CF000DF00E5FF00005C00001010101010100055
:102D000000141414141414000015151515151500CD
:102D1000001C1F11111F00000006191803130C00DE
:102D2000040E1F041C000000000E1315110E0000FD
:102D30001C10181705060500040A0A0A0A11110ECC
:102D40000C12120C00000000001F1511151F0000CE
:102D500000000000010204040000001C1C0C04041C
:102D60000402010000000000040810000000000040
:102D70003E3E3E0020205261646975733A002E4841
:102D800065696768743A007879007A7800797A0022
:102D9000207A002079002078002E20202020004575
:102DA0006E64204452592D52554E004E6F20636F71
:102DB0006E76657267656E636500497465726174ED
:102DC000696F6E203A2025303269005361766520A4
:102DD00077697468204D35303020616E642F6F72D2
:102DE00020636F707920746F20436F6E666967751A
:102DF000726174696F6E2E680A00253033692E780F
:102E000000302E253033690043616C696272617451
:102E1000696F6E2073643A00737464206465763A57
:102E200000726F6C6C696E67206261636B2E004389
:102E3000616C6962726174696F6E204F4B00436F01
:102E400072726563742064656C7461207365747458
:102E5000696E67732077697468204D363635206156
:102E60006E64204D3636360A0020284452592D52C1
:102E7000554E2900436865636B696E672E2E2E20C0
:102E80004143003F4265642063616C696272617412
:102E9000696F6E2072616469757320696D706C6111
:102EA000757369626C652E0A00473333204175746F
:102EB0006F2043616C6962726174650A003F285635
:102EC000296572626F7365206C6576656C20696D2B
:102ED000706C61757369626C652028302D33292E02
:102EE0000A003F2846296F72636520697465726124
:102EF00074696F6E20696D706C61757369626C6561
:102F00002028302D3330292E0A003F284329616CB8
:102F10006962726174696F6E20707265636973694A
:102F20006F6E20696D706C61757369626C652028C5
:102F30003E3D30292E0A003F2850296F696E747378
:102F400020696D706C61757369626C652028302D25
:102F50003130292E0A0050726F6265205A204F6668
:102F60006673657400416476616E636564205365C1
:102F70007474696E677300547A0054790054780051
:102F8000457A00457900457800526573746F726523
:102F90002044656661756C7473004C6F61642053E6
:102FA000657474696E67730053746F72652053653E
:102FB0007474696E6773005072656865617420246B
:102FC00020436F6E6600546F6F6C204368616E67BC
:102FD0006500546F6F6C204F6666736574730044B0
:102FE000656C74612043616C6962726174696F6EB3
:102FF000004469616720526F6400526164697573AF
:103000000043616C696272617465205A0043616CAF
:1030100069627261746520590043616C6962726112
:10302000746520580044656C74612053657474693C
:103030006E67730043616C696272617465204365F9
:103040006E746572004175746F2043616C696272C1
:103050006174696F6E0047333300556E6C6F616445
:103060002046696C616D656E74202A004C6F616446
:103070002046696C616D656E74202A00554E4C4F78
:1030800041442046494C414D454E540046494C412F
:103090004D454E54204348414E4745004D37303250
:1030A00020542564004D36303020423020542564B1
:1030B000004D373032203B2564004D3730312054ED
:1030C000256400556E6C6F61642046696C616D65A6
:1030D0006E74004C6F61642046696C616D656E743E
:1030E000005072656865617420437573746F6D007C
:1030F0004D36303020423020542569004D37303174
:1031000020542569004D37303220542569004D3751
:10311000303200556E6C6F616420416C6C00436806
:10312000616E67652046696C616D656E74202A006A
:103130005075726765206D6F726500524553554D2D
:1031400045204F5054494F4E533A005052494E5427
:10315000205041555345440020204E6F7A7A6C65CB
:103160003A2000313530004245443A204550434F23
:1031700053203130304B0052756E617761792057A2
:10318000617463683A204F4E0045323A20455043FF
:103190004F53203130304B004D61782054656D70B5
:1031A00000323735004D696E2054656D7000453131
:1031B0003A204550434F53203130304B0050535547
:1031C00000506F77657220537570706C7900507283
:1031D0006F746F636F6C00312E3000426175640054
:1031E0003235303030300047543235363020526579
:1031F000762E412B004578747275646572730033C6
:1032000044205072696E74657200323032302D3154
:10321000302D313500546865726D6973746F727347
:1032200000426F61726420496E666F005072696E71
:1032300074657220496E666F005061726B696E67CB
:103240002E2E2E0000005761697420666F72006692
:10325000696C616D656E74206368616E676500748A
:103260006F207374617274005761697420666F72A5
:103270000066696C616D656E7420756E6C6F61645B
:1032800000004E6F7A7A6C652068656174696E67BC
:1032900000506C6561736520776169742E2E2E0075
:1032A00000507265737320627574746F6E00746F72
:1032B0002068656174206E6F7A7A6C650000496ED3
:1032C000736572742066696C616D656E7400616E01
:1032D0006420707265737320627574746F6E00740D
:1032E0006F20636F6E74696E756500576169742035
:1032F000666F720066696C616D656E74206C6F61DB
:10330000640000507265737320427574746F6E00B0
:10331000746F20726573756D65207072696E7400CC
:10332000005761697420666F72207072696E740054
:10333000746F20726573756D652E2E2E00005761B7
:10334000697420666F720066696C616D656E7420C9
:103350007075726765000041425300504C4100494E
:103360006E666F2053637265656E005A2056616CFD
:103370007565004732380A4D313930205325690AC6
:103380004D313039205325690A47323920503100F8
:103390004265642054656D7000486F74656E6420EA
:1033A00054656D70004732392050362043202D007F
:1033B00048656967687420416D6F756E740041647B
:1033C0006A757374204D6573682048656967687411
:1033D0000046696E652054756E6520436C6F736599
:1033E0007374004732392050342054004732380A71
:1033F0004732362043205020482569204225690065
:1034000056616C696461746520437573746F6D20D7
:103410004D657368004732380A47323620432050E2
:103420002049310056616C6964617465204D657393
:103430006820282429004732380A473236204320A2
:103440005020493000473239204A2569004C6576C2
:10345000656C204D657368005369646520506F6921
:103460006E74730047726964204D657368204C6503
:1034700076656C696E6700332D506F696E74204CF1
:103480006576656C696E6700473239204A300047BF
:103490003239205033205220432E2569004D616E71
:1034A00075616C2046696C6C2D696E0046696C6CA8
:1034B0002D696E20416D6F756E74004D65736820C7
:1034C000696E76616C6964617465642E0A00496E88
:1034D00076616C696461746520436C6F73657374A5
:1034E00000473239204900496E76616C6964617425
:1034F0006520416C6C00436F6E74696E7565204287
:103500006564204D6573680047323920503120438F
:103510000046696C6C2D696E204D657368004275BC
:10352000696C6420437573746F6D204D657368001A
:103530004732380A4D3139302049310A4D3130395E
:103540002049310A4732392050310A4D3130342078
:1035500053300A4D313430205330004275696C6469
:10356000204D65736820282429004732380A4D31E0
:1035700039302049300A4D3130392049300A47323C
:10358000392050310A4D3130342053300A4D313416
:10359000302053300047323920256325690A4D31E8
:1035A000313720005B33573350726F6265205920EA
:1035B0004F66667365740050726F62652058204FC5
:1035C0006666736574002A2053746570732F6D6D81
:1035D00000432053746570732F6D6D004220537447
:1035E0006570732F6D6D00412053746570732F6D7E
:1035F0006D00496E697400496E697469616C697A1D
:103600006520454550524F4D0050726F6265204F06
:1036100066667365747300416363656C657261749B
:10362000696F6E0056656C6F63697479004E4F0068
:103630005945530043616E63656C204F626A656350
:1036400074203D005A20526169736500326E642017
:103650004E6F7A7A6C65205A00326E64204E6F7A13
:103660007A6C65205900326E64204E6F7A7A6C65F0
:103670002058004D6F74696F6E004F7574707574CB
:103680002055424C20496E666F0047323920570062
:1036900055424C20546F6F6C73004F757470757485
:1036A000204D657368204D6170004D65736820532F
:1036B000746F72616765004D657368204564697455
:1036C00000537465702D42792D53746570205542F6
:1036D0004C0041637469766174652055424C004723
:1036E00032392041004465616374697661746520F4
:1036F00055424C0047323920440020202020202011
:10370000200020433A0020423A0020436F756E7437
:1037100020413A00453200453100626564002C20AA
:1037200073797374656D2073746F70706564212094
:103730004865617465725F49443A20004865617468
:10374000696E67204661696C6564004865617469EB
:103750006E67206661696C6564004D3131322053BB
:10376000687574646F776E00544845524D414C2023
:1037700052554E4157415900546865726D616C2035
:1037800052756E61776179004572723A204D4158E9
:1037900054454D50004D415854454D502074726968
:1037A000676765726564004572723A204D494E54F0
:1037B000454D50004D494E54454D50207472696737
:1037C000676572656400202F002040002042403A67
:1037D0000020403A003F454550524F4D2073746FD2
:1037E00072616765206E6F7420617661696C6162D9
:1037F0006C652E0A004732362048656174696E6731
:10380000204E6F7A7A6C65004732362048656174C5
:10381000696E67204265640057616974696E67204C
:10382000666F72206865617475702E0A004669784B
:103830006564204C656E677468205072696D650020
:10384000446F6E65205072696D696E67004D616EE0
:1038500075616C207072696D696E672E2E2E00473F
:1038600032362043616E63656C6564004C65617639
:10387000696E6720473236003F5370656369666939
:10388000656420582C5920636F6F7264696E61748F
:1038900065206F7574206F6620626F756E64732E7D
:1038A0000A003F28522965706561742076616C7545
:1038B00065206E6F7420706C61757369626C653B16
:1038C000206D757374206265206174206C6561736E
:1038D0007420312E0A003F53706563696669656420
:1038E000206E6F7A7A6C652074656D706572617494
:1038F000757265206E6F7420706C61757369626C8F
:10390000652E0A003F5370656369666965642066C9
:10391000696C616D656E742073697A65206E6F7471
:1039200020706C61757369626C652E0A003F53707C
:1039300065636966696564207072696D65206C6590
:103940006E677468206E6F7420706C617573696245
:103950006C652E0A003F5370656369666965642073
:103960006E6F7A7A6C652073697A65206E6F742049
:10397000706C61757369626C652E0A003F526574E4
:1039800072616374696F6E204D756C7469706C69D7
:103990006572206D7573742062652073706563694C
:1039A000666965642E0A003F5370656369666965E0
:1039B000642052657472616374696F6E204D756C1A
:1039C0007469706C696572206E6F7420706C6175BB
:1039D0007369626C652E0A003F537065636966699E
:1039E0006564206C61796572206865696768742018
:1039F0006E6F7420706C61757369626C652E0A005D
:103A000043292E0A003F5370656369666965642027
:103A10006265642074656D7065726174757265208D
:103A20006E6F7420706C61757369626C65202834E8
:103A3000302D00473236207374617274696E672EC0
:103A40002E2E0A00426564204C6576656C696E67AF
:103A500020004661696C656420746F20656E616248
:103A60006C6520426564204C6576656C696E670AFA
:103A700000496E76616C6964206D6573682E0A007A
:103A800076616C69640A53746F7261676520736C48
:103A90006F743A20004D65736820697320003F49B8
:103AA0006E76616C69642073746F726167652073F0
:103AB0006C6F742E0A00202063757272656E745FDD
:103AC000706F736974696F6E3D0050726F62653A12
:103AD0003A646F5F7A5F726169736528006465702C
:103AE0006C6F793A2000203A2050726F62653A3A42
:103AF0007365745F6465706C6F7965640A005072F9
:103B00006F62653A3A70726F62655F646F776E5F7D
:103B1000746F5F7A0053657474696E6773205374B1
:103B20006F726564002062797465733B2063726311
:103B3000200053657474696E67732053746F7265E7
:103B4000642028004E6F20454550524F4D2E0A00EC
:103B5000454550524F4D206461746173697A652008
:103B60006572726F722E0A003F4D65736820746F24
:103B70006F2062696720666F7220454550524F4D35
:103B80002E0A0055424C2072657365740A00206C41
:103B90006F616465642066726F6D2073746F72610B
:103BA00067652E0A004D65736820003F43616E27EC
:103BB0007420656E61626C65200020696E697469AD
:103BC000616C697A65642E0A0A002073746F7265ED
:103BD000642073657474696E6773207265747269AA
:103BE00065766564202800202863616C63756C61CC
:103BF00074656429210A0020213D2000454550526A
:103C00004F4D20435243206D69736D61746368208A
:103C10002D202873746F726564292000496E6465D5
:103C2000783A200044494749504F5453204C6F6123
:103C30006465640A0044494749504F5453204C6F0F
:103C40006164696E670A00204D61726C696E3D5651
:103C50003832290A00454550524F4D20766572731F
:103C6000696F6E206D69736D6174636820284545C6
:103C700050524F4D3D00496E76616C696420657805
:103C80007472756465720A0020573A004163746962
:103C900076652045787472756465723A20007C3CC4
:103CA0003E5E2B3D3F2F5B5D3B2C2A225C0070016A
:103CB0002C0190012701B0012201C0011D01F0017A
:103CC00018011002130130020E0160020901900276
:103CD0000401C002FF000003FA004003F500800366
:103CE000F000D003EB002004E6007004E100E004E3
:103CF000DC004005D700C005D2004006CD00D0064C
:103D0000C8008007C3003008BE00F008B900C00931
:103D1000B400B00AAF00B00BAA00D00CA500000E92
:103D2000A000500F9B00C01096005012910000148C
:103D30008C00C0158700B0178200B0197D00D01B21
:103D40007800001E730040206E0090226900F0246D
:103D5000640040275F0090295A00E02B5500102E88
:103D6000500020304B0010324600E03341009035C7
:103D70003C001037370070383200A0392D00B03ABF
:103D80002800A03B2300603C1E00103D1900903D20
:103D90001400103E0F00703E0A00C03E0500003FB8
:103DA0000000403FFBFF803FF6FFC03FF1FF20587F
:103DB0003A0068747470733A2F2F6D61726C696E7B
:103DC00066772E6F72670020322E302E372E32002B
:103DD0002020506C616E6E65724275666665724237
:103DE000797465733A20002046726565204D656DD3
:103DF0006F72793A2000436F6D70696C65643A2088
:103E00004D617220203820323032310A00204C615E
:103E1000737420557064617465643A2032303230B6
:103E20002D31302D3135207C20417574686F723A08
:103E3000202845646963736F6E2C2047656565743F
:103E40006563682044656C74612047325350726F1B
:103E5000290A00322E302E372E320A004D61726C44
:103E6000696E0020536F66747761726520526573C6
:103E700065740A00205761746368646F6720526537
:103E80007365740A002042726F776E206F7574201C
:103E900052657365740A002045787465726E616CB2
:103EA0002052657365740A00506F77657255700A09
:103EB000006175746F25632E6700473237004D31FE
:103EC000303031006572726F722077726974696E7A
:103ED0006720746F2066696C650A00446F6E652008
:103EE000736176696E672066696C652E0A004D32D3
:103EF0003900255320256320256320256320256371
:103F000000656E6473746F7073206869743A200082
:103F1000022053697A653A200043616E6E6F742007
:103F20006F70656E2073756264697220005344205F
:103F3000496E6974204661696C0053442063617264
:103F400064206F6B0A006F70656E526F6F7420662D
:103F500061696C65640A00766F6C756D652E696EBB
:103F60006974206661696C65640A004E6F20534471
:103F700020636172640A004D3233202573006F7034
:103F8000656E206661696C65642C2046696C653AD3
:103F9000200046696C652073656C65637465640A0E
:103FA0000046696C65206F70656E65643A20004557
:103FB0004E4420535542524F5554494E450A002213
:103FC00020706F73002220706172656E743A220057
:103FD000535542524F5554494E452043414C4C2075
:103FE0007461726765743A220053756263616C6C28
:103FF000204F766572666C6F7700457863656564FF
:104000006564206D617820535542524F5554494E96
:10401000452064657074683A310A005772697469A2
:104020006E6720746F2066696C653A2000534420E7
:104030007072696E74696E67206279746520004ED3
:104040006F74205344207072696E74696E670A0041
:10405000667265736800646F696E67004E6F7720E3
:104060000047323920503420523939392054004722
:1040700032380A473239205031004D6573682025A7
:1040800069204C6F61646564004D65736820256923
:10409000205361766564004C6F6164204265642042
:1040A0004D657368004D656D6F727920536C6F7448
:1040B000004E6F2053746F7261676500473239207C
:1040C000503420582573205925732052256900202B
:1040D0002D2D2D2D2D00486F6D696E672058595A72
:1040E00000473238004F6666205072696E74657200
:1040F000204261636B75700047323920532D3100C7
:104100004F757470757420666F7220435356004764
:104110003239205431004F757470757420666F7297
:1041200020486F7374004732392054300045646969
:1041300074204D657368004D616E75616C6C7920FB
:104140004275696C64204D657368004732392049B7
:104150003939390A47323920503220422054300050
:10416000372E205361766520426564204D65736863
:1041700000362E2046696E652054756E6520416CB0
:104180006C00352E2056616C6964617465204D6544
:10419000736800342E2046696E652054756E652064
:1041A000416C6C00332E2056616C6964617465202B
:1041B0004D65736800322E20536D6172742046691C
:1041C0006C6C2D696E00473239205033205430001A
:1041D000312E204275696C6420436F6C64204D65FC
:1041E000736800646F6E650A00496E737566666970
:1041F0006369656E7420646174610A004578747245
:1042000061706F6C6174696E67206D6573682E2EC6
:104210002E005072696E74696E67204F626A656322
:1042200074002553202569002F2F616374696F6E18
:104230003A00626567696E00627574746F6E00653E
:104240006E640070726F6D70745F0073686F7700DA
:1042500050757267654D6F726500486F74656E6466
:1042600020746F6F20636F6C640A0053656E642066
:104270004D31303820746F20726573756D650A009A
:1042800052656865617420446F6E650052656865AB
:104290006174696E672E2E2E005265686561740028
:1042A0004865617465722054696D656F757400535B
:1042B000656E64204D31303820746F2068656174FC
:1042C000206E6F7A7A6C650A004E6F7A7A6C652080
:1042D0005061726B6564007061757365640072652E
:1042E00073756D656400526573756D696E67000066
:1042F000005CC2721C2BC2C771F4C1AAAA92C13859
:104300008EC3C0388EC340ACAA9241C871F44172CA
:104310001C2B4200005C425374616E646172642025
:10432000446576696174696F6E3A20004D65616E0F
:10433000204D657368204865696768743A200023DA
:10434000206F662073616D706C65733A20000A4DB2
:10435000657368206F6E6C79207061727469616C2E
:104360006C7920706F70756C617465642E0A0A0038
:1043700050726F62696E6720506F696E74000A50E8
:10438000726F62696E67206D65736820706F696E09
:1043900074200020616E642074616B652061206D63
:1043A0006561737572656D656E742E0A006D6D20A2
:1043B000746869636B2E0A00427573696E65737366
:1043C0002043617264206973200052656D6F7665C9
:1043D0002026204D65617375726520426564005228
:1043E000656D6F7665207368696D00506C616365FB
:1043F000207368696D20756E646572206E6F7A7ABD
:104400006C65004D65736820506F696E74204D6552
:104410006173757265642061743A20000A4D65739A
:1044200068206F6E6C79207061727469616C6C7950
:1044300020706F70756C617465642E0A00506C6139
:104440006365205368696D2026204D656173757220
:1044500065004D6F76696E6720746F206E657874A5
:10446000004D6573682045646974696E67205374F4
:104470006F7070656400446F6E652045646974698F
:104480006E67204D6573680A00446F6E6520456451
:104490006974696E67204D6573680046696E6520B2
:1044A00054756E696E67204D6573680028582C59E5
:1044B00029206F757473696465207072696E746108
:1044C000626C65207261646975732E0A004F6666BE
:1044D000736574206F7574206F6620626F756E64EB
:1044E000732E20283020746F2031306D6D290A0A18
:1044F00000496E76616C6964206D6170207479701A
:10450000652E0A0A003F43616E2774206163746957
:104510007661746520616E64206465616374697698
:10452000617465206174207468652073616D652015
:1045300074696D652E0A0A00426F7468205820263F
:104540002059206C6F636174696F6E73206D757391
:1045500074206265207370656369666965642E0AFC
:104560000A003F496E76616C696420677269642055
:1045700073697A6520284A292073706563696669C2
:1045800065642028322D39292E0A0A003F28502937
:10459000686173652076616C756520696E76616C03
:1045A00069642028302D36292E0A0A003F28562912
:1045B0006572626F7365206C6576656C20696D70DD
:1045C0006C61757369626C652028302D34292E0A60
:1045D0000A003F285229657065746974696F6E20FE
:1045E000636F756E7420696E76616C696420283122
:1045F0002B292E0A0A00446F696E67204732390062
:104600000900000A010008000A01000A0900000070
:104610000A0008000F460A46054600462553202595
:10462000692F2569002020443D002020423D004C98
:10463000534620526573756C747320413D00726F50
:10464000746174696F6E206D61747269783A0A00E2
:10465000616674657220726F746174696F6E203D5B
:10466000205B005D2020202D2D2D3E200062656600
:104670006F726520726F746174696F6E203D205B8C
:10468000005D0A0062656420706C616E65206E6F6B
:10469000726D616C203D205B00436F756C64206E11
:1046A0006F7420636F6D706C657465204C53462188
:1046B0000020202066696E616C203E3E3E2D2D2D2F
:1046C0003E2000202020636F7272656374696F6EF4
:1046D0003A2000292020206D656173757265643A67
:1046E0002000292020206C6F676963616C3A2028C4
:1046F0000054696C74696E67206D65736820706F13
:10470000696E7420003F4572726F722070726F6222
:10471000696E6720706F696E742E2041626F7274CB
:10472000696E67206F7065726174696F6E2E0A0022
:10473000255320332F330054696C74696E67206DE4
:104740006573682028332F33290A00255320322F20
:10475000330054696C74696E67206D657368202836
:10476000322F33290A00436F727265637465645F88
:104770005A3D0054696C74696E6720506F696E749D
:1047800000255320312F330054696C74696E672003
:104790006D6573682028312F33290A0020633A00A1
:1047A00020643A0020693A0020703A00204D3932E6
:1047B000205400204D39322058002853004164769F
:1047C000616E63652054002028302D31302900208F
:1047D00076616C7565206F7574206F662072616EEE
:1047E00067650020496E76616C6964206578747233
:1047F000756465722000205A3A0020593A00000082
:104800002200250028002B002E0031003400020178
:104810000000050108010B01000021002400270011
:104820002A002D00300033000101000004010701BF
:104830000A01050505050705080808080202020225
:104840000A0A08080404040401010101010101012C
:104850000303030303030303040707070C0C0C0CF7
:104860000C0C0C0C020202020606060606060606E0
:104870000B0B0B0B0B0B0B0B01021020200808106D
:1048800020401020408002010201080402010102C0
:104890000408102040808040201008040201800499
:1048A00002018040201008040201080402010102F4
:1048B0000408102040800102040810204080204B92
:1048C00000486F74656E64206F6666736574733A32
:1048D00000205200454550524F4D20496E69746981
:1048E000616C697A65640A004D657368207361764E
:1048F000656420696E20736C6F7420003F556E6193
:10490000626C6520746F2073617665206D657368D5
:1049100020646174612E0A0020736C6F743D002066
:104920006D65736865735F656E643D004532454E25
:10493000443D00206D65736820736C6F7473206153
:104940007661696C61626C652E0A003F496E766122
:104950006C696420736C6F742E0A004D6573682057
:104960006C6F616465642066726F6D20736C6F7428
:1049700020003F556E61626C6520746F206C6F6122
:1049800064206D65736820646174612E0A0048615B
:104990007264636F6465642044656661756C74203D
:1049A00053657474696E6773204C6F616465640A43
:1049B00000556E696669656420426564204C6576C1
:1049C000656C696E67003B200020204D3630332037
:1049D00000546F6F6C2D6368616E67696E673A0093
:1049E0005431204C002055005430204C0046696C56
:1049F000616D656E74206C6F61642F756E6C6F6194
:104A000064206C656E677468733A0020204D3930FD
:104A1000302054004C696E65617220416476616E8D
:104A200063653A0020204D3835312058005A2D500A
:104A3000726F6265204F66667365740020204D3387
:104A400030312050005049442073657474696E679A
:104A5000733A0020460020204D3134352053004D5C
:104A60006174657269616C2068656174757020702D
:104A70006172616D65746572733A00204800202090
:104A80004D363635204C0044656C74612073657476
:104A900074696E67733A204C3C646961676F6E613C
:104AA0006C20726F643E20523C7261646975733E83
:104AB00020483C6865696768743E20533C736567AD
:104AC0006D656E747320706572207365633E205847
:104AD000595A3C746F77657220616E676C652074FB
:104AE00072696D3E204142433C726F64207472696A
:104AF0006D3E0020204D363636205800456E6473DA
:104B0000746F702061646A7573746D656E743A00B9
:104B1000206D65736865732E0A0A00454550524F33
:104B20004D2063616E20686F6C642000416374697E
:104B30007665204D65736820536C6F743A200020B1
:104B4000204D34323020530020204D323138205453
:104B50000020204D323035204200416476616E6382
:104B600065643A20423C6D696E5F7365676D656E82
:104B7000745F74696D655F75733E20533C6D696E3B
:104B80005F66656564726174653E20543C6D696E54
:104B90005F74726176656C5F666565647261746589
:104BA0003E20583C6D61785F785F6A65726B3E208D
:104BB000593C6D61785F795F6A65726B3E205A3C43
:104BC0006D61785F7A5F6A65726B3E20453C6D610E
:104BD000785F655F6A65726B3E0020204D3230342D
:104BE000205000416363656C65726174696F6E206B
:104BF00028756E6974732F7332293A20503C707295
:104C0000696E745F616363656C3E20523C726574CB
:104C1000726163745F616363656C3E20543C7472BF
:104C20006176656C5F616363656C3E0020204D3288
:104C3000303120540020204D3230312058004D6159
:104C400078696D756D20416363656C657261746927
:104C50006F6E2028756E6974732F7332293A0020A5
:104C6000204D32303320540020204D323033205834
:104C7000004D6178696D756D20666565647261745B
:104C800065732028756E6974732F73293A00537405
:104C90006570732070657220756E69743A0020200B
:104CA0004D3134392043203B20556E69747320699F
:104CB0006E2043656C736975730A0020286D6D2939
:104CC000002020473231202020203B20556E69747F
:104CD0007320696E206D6D0000004843000048435A
:104CE000000048430000C8410000A0420000A0426C
:104CF0000000A0420000C842B80B0000B80B000042
:104D0000B80B0000102700005072696E74206672A4
:104D10006F6D204D65646961002568753A253032F4
:104D200068750025303268753A253032687500485C
:104D30006F6D652025732573257320466972737422
:104D400000436F6E74696E7565004C6F6164204638
:104D5000696C616D656E74205400496E7365727480
:104D60002066696C616D656E7420616E6420736588
:104D70006E64204D3130380A003C3C3C00220A0071
:104D8000556E6B6E6F776E20636F6D6D616E643AFA
:104D900020220000000A0B02090C0D0E0807030474
:104DA0000100000000000000000000000000000002
:104DB00000000000000000000000000000000012E1
:104DC00011100000000000000000000000000000C2
:104DD00000000000000000000000B802B40111242F
:104DE0001FBECFEFD1E2DEBFCDBF00E00CBF13E0AE
:104DF000A0E0B2E0E0E4F3EA03E00BBF02C00790FA
:104E00000D92A038B107D9F72AE1A0E8B3E001C0BC
:104E10001D92AA35B207E1F716E2CEEED6E200E027
:104E200006C021970109802FFE010F94C7CCCD3E0B
:104E3000D10780E00807A9F70F94BAB40D948ED17A
:104E40000C9400002F923F924F925F926F927F924C
:104E50008F929F92AF92BF92CF92DF92EF92FF928A
:104E60000F931F93CF93DF93CDB7DEB7E0970FB6C5
:104E7000F894DEBF0FBECDBF88AB2091461A2DA798
:104E800081E08093461A8091BB0D8D3409F4E4C310
:104E9000843511F40C94DC38873411F00C941939F2
:104EA0008091B90D9091BA0D8C31910509F436C1FC
:104EB0009CF48430910509F4CDC01CF4029770F184
:104EC000C7C38A31910509F404C10CF006C14597A6
:104ED00011F40C941B39BCC38A32910509F406C342
:104EE0006CF48E31910509F42CC20CF426C2819722
:104EF00009F0AEC30E94A1DB0C941B398B359105E0
:104F000009F49EC28C35910509F49FC28A3591053A
:104F100009F09EC310928E030C941B3980910E12DF
:104F2000813011F00C941B391EE6C12E12E0D12EF7
:104F300002ECE02E02E1F02E10E088E5810F0E94E5
:104F4000B84A8823F1F00E94314A4B015C018091FC
:104F5000910D811116C0812F0F94F597882359F078
:104F6000F6012081318142815381C501B4010F9442
:104F7000D0CC4B015C01F70180829182A282B38286
:104F80000AC0F60180819181A281B381F7018083FB
:104F90009183A283B3831F5FF4E0CF0ED11C24E082
:104FA000E20EF11C133049F685E40E94B84A8823CA
:104FB00001F10E94314A6B017C0183E00F94F59767
:104FC000882371F020917A0230917B0240917C021B
:104FD00050917D02C701B6010F94D0CC6B017C01CA
:104FE000C092CE12D092CF12E092D012F092D11293
:104FF00010C080917A0290917B02A0917C02B091C6
:105000007D028093CE129093CF12A093D012B093D2
:10501000D11240E050E0BA0186E40E94F6CA20E0D6
:1050200030E0A9010F94EBCE181684F40E94314AA7
:1050300020E030E040E752E40F9458CD60935502F1
:105040007093560280935702909358020E949DA934
:105050000C941B3980E50E94B84A882329F00F94EC
:10506000CB986B017C0103C0C12CD12C760183E568
:105070000E94B84A882361F00E94314A20E030E063
:105080004AE754E40F9432C60F94D1CD6B017C01F2
:105090000E948EA58091DF05811105C060E083E349
:1050A00097E00E9408810F9404B4C60ED71EE81E34
:1050B000F91E0F9404B4DC01CB018C199D09AE09D3
:1050C000BF09B7FD02C00C941B3980E00E94613F0C
:1050D000F0CF0F945B350C941B390F94EEAF811118
:1050E0000C941B3919821A821B821C821D821E821B
:1050F0001F82188680E090E0A0EAB1E489879A8751
:10510000AB87BC8760E070E080E50F940E98BE012D
:105110006F5F7F4F0E94367A0C941B394091D20FFB
:1051200045FB442740F961EE70E4CE014C960E94A5
:1051300063F38091D20F85FFF0C087EF97E00E9464
:10514000BD3C8DED97E00E94BD3C40911F195091F0
:105150002019609121197091221982E394E20E9432
:10516000E13E4091231950912419609125197091C5
:10517000261983E696E30E94E13E4091271950915B
:1051800028196091291970912A1986E596E30E94E1
:10519000E13EC0901F19D0902019E0902119F090A5
:1051A000221920E030E0A901C701B6010F94EBCE2F
:1051B00018161CF485ED97E020C020E030E0A9012E
:1051C000C701B6010F94CCC587FF03C08EEC97E0F2
:1051D00014C020E030E0A9016091231970912419D6
:1051E00080912519909126190F94CCC5882319F028
:1051F00085EC97E002C086EB97E00E94BD3CC09032
:105200002319D0902419E0902519F090261920E058
:1052100030E0A901C701B6010F94EBCE18161CF4BB
:1052200080EB97E01DC020E030E0A901C701B60186
:105230000F94CCC587FF03C089EA97E011C020E036
:1052400030E0A90160911F197091201980912119F6
:10525000909122190F94CCC5882321F081EA97E020
:105260000E94BD3C8DE997E00E94BD3CC09027198B
:10527000D0902819E0902919F0902A1920E030E008
:10528000A901C701B6010F94CCC587FD0CC020E071
:1052900030E0A901C701B6010F94EBCE181634F423
:1052A00086E697E005C086E797E002C08CE697E0C7
:1052B0000E94BD3C83E997E00E94BD3C8CE797E0EB
:1052C0000E94BD3C80912710882301F18AE597E078
:1052D0000E94BD3C89E497E00E94BD3C62E772E019
:1052E0008EE692E00E94EC4569837A838B839C83EF
:1052F0006BE2CE0101960E9496778C01F8018191B4
:105300008F01882339F00E94AB3CF8CF8CE397E003
:105310000E94BD3C8AE00E94AB3C8091F2128770F3
:10532000873011F00C94313960E08FE40F94DB3357
:1053300081110C9424390C9431390E94B04F0C9493
:105340001B3920911F19309120194091211950913A
:10535000221960916E0270916F028091700290919B
:1053600071020F94D0CCAB01BC0188E50E94F6CA53
:1053700069837A838B839C8320912319309124192C
:105380004091251950912619609172027091730213
:1053900080917402909175020F94D0CCAB01BC0146
:1053A00089E50E94F6CA6D837E838F839887BE014C
:1053B0006B5F7F4FCE0101960E94284B882311F42A
:1053C0000C941B3980E00E94BC4E0E94E2AB84E644
:1053D00090E090931E0280931D0261E085E40F949B
:1053E000DB3301E021E041E0682FCE0101960E940D
:1053F000E8566B017C019B01AC010F94CCCF81116D
:1054000019C049815A816B817C8181E398E00E94B7
:10541000E13E4D815E816F8178858CE298E00E944B
:10542000E13EB701A60187E298E00E94E13E8AE0F2
:105430000E94AB3C0E94C9AB0E94A8B00C941B39DF
:105440008FE080938E030C941B39ADE2CA2EA3E04B
:10545000DA2EBEE6EB2EB2E0FB2E00E0312C10E09F
:10546000F60181916F010E94B84A882351F10E9490
:10547000314A4B015C01F701208131814281538126
:105480000F94CFCC2B013C012DEB37E346E855EBD5
:105490000F94EBCE87FD0AC02DEB37E346E855E3CA
:1054A000C301B2010F94CCC518165CF4133011F48B
:1054B00001E002C033243394F70180829182A282FA
:1054C000B3821F5FF4E0EF0EF11C143049F6332075
:1054D00019F00E949AB006C0002321F08AE792E0FA
:1054E0000E9491C70E94A8B00C941B3980910E12A3
:1054F000813011F00C941B3989E40E94B84A082FBE
:10550000882321F00E942D4AE82E01C0E12C8AE474
:105510000E94B84A182F882321F00E942D4AF82EA5
:1055200001C0F12C002319F029E02E1528F01123D9
:1055300049F039E03F1530F489E398E00E94BD3C22
:105540000C941B3980E1EEE6F2E0A2ECB2E10190AE
:105550000D928A95E1F7002359F08E2D0E944E4F4F
:105560006093C2127093C3128093C4129093C512B9
:10557000112359F08F2D0E944E4F6093C6127093E5
:10558000C7128093C8129093C91260E080E50F940F
:10559000DB338823C1F10023D1F020911F19309112
:1055A000201940912119509122196091C2127091D5
:1055B000C3128091C4129091C5120F94CFCC609306
:1055C000C2127093C3128093C4129093C512112318
:1055D000D1F020912319309124194091251950912F
:1055E00026196091C6127091C7128091C8129091CD
:1055F000C9120F94CFCC6093C6127093C7128093D8
:10560000C8129093C91240E050E0BA0186E40E94AB
:10561000F6CA6B017C0120E030E0A9010F94EBCECB
:1056200018164CF420E030E040E752E4C701B60120
:105630000F9458CD03C060E070E0CB0169837A839A
:105640008B839C83CE0101960F941C310C941B39E3
:105650000F945CAE0C941B398091B90D9091BA0DEA
:105660008D37910509F49AC60CF0FEC0813591057D
:1056700009F4B9C60CF07BC08A31910509F409C35D
:10568000BCF58431910509F47AC27CF4813191052D
:1056900009F461C22CF4029708F40FC20C94D938B3
:1056A000429709F4C4C60C94D9388731910509F49E
:1056B0009BC294F48531910509F492C2469711F08A
:1056C0000C94D9380F94C65B80912517877F806230
:1056D000809325170C941B398831910509F49DC2DC
:1056E000499711F00C94D9380F94C79F0C941B392B
:1056F0008032910509F495C3F4F48D31910509F4D4
:1057000028C384F48B31910509F4D1C24C9711F070
:105710000C94D9388091B70D9091B80D0F945C61BD
:105720000C941B398E31910509F41AC34F9709F473
:10573000BBC30C94D9388C34910509F495C46CF42E
:105740008934910509F45EC48B34910511F00C94F1
:10575000D9380E94453C0C941B398D34910509F4CD
:1057600087C48035910509F41CC60C94D9388D3650
:10577000910509F4A9C47CF58C35910509F4B0C6EE
:1057800084F48335910509F44BC60CF442C6843584
:10579000910509F44CC68535910509F47EC60C9433
:1057A000D9388A36910509F4CDC454F48836910568
:1057B00009F462C48936910509F4B0C40C94D9384F
:1057C0008B36910509F400C58C36910511F40C94C3
:1057D0001B390C94D9388337910509F42BC7ECF4A5
:1057E0008037910511F40C941B3954F48E369105D1
:1057F00009F4F5C48F36910509F404C50C94D93821
:105800008137910509F443C58237910511F00C9455
:10581000D9380E94A0D30C941B398737910509F41D
:10582000D0C78CF48537910509F486C78637910572
:1058300011F00C94D9380091B70D1091B80D94E087
:10584000F12C40E0A2C78837910509F4BDC789371C
:10585000910511F00C94D938109244101092431015
:105860000E94CA720C941B39843AE1E09E0711F43D
:105870000C9476360CF08BC08A3D910511F40C9493
:105880005735CCF5893C910511F40C946034ACF497
:105890008139910509F4A0C734F48C38910509F4D5
:1058A00018C50C94D9388B39910509F451C58E3B34
:1058B000910509F42DC50C94D9388D3C910511F44E
:1058C0000C94C13464F48B3C910511F40C948F3426
:1058D0008C3C910511F40C94B7340C94D938833D69
:1058E000910511F40C94D134893D910511F40C9477
:1058F00044350C94D9388E3221E0920711F40C947F
:10590000253614F58232E1E09E0711F40C94CB3574
:1059100064F48C3D910511F40C945A358D3D91053C
:1059200011F40C9481350C94D9388C3221E0920713
:1059300011F40C9410368D32914011F00C94D9383A
:105940000F94389B0C941B398139E1E09E0711F4C8
:105950000C946C367CF48F3221E0920711F40C9495
:1059600069368039914011F00C94D9380E948EA587
:105970000C941B398239E1E09E0711F40C947136C6
:105980008A39914011F40C941B390C94D938893917
:1059900022E0920711F40C9423380CF045C0863FA6
:1059A000E1E09E0711F40C947E37ECF4863E21E092
:1059B000920711F40C940F373CF4853A914011F49E
:1059C0000C9479360C94D938843FF1E09F0711F498
:1059D0000C947B37853F914011F00C94D9380F948B
:1059E0001BAA0C941B398C3032E0930711F40C94F1
:1059F0009B376CF4873FF1E09F0711F40C948137DB
:105A0000883F914011F40C948A370C94D93888352A
:105A100032E0930711F40C94A8378B35924011F4BF
:105A20000C94AB370C94D9388335F3E09F0711F40D
:105A30000C94A83804F58E3B32E0930711F40C94D3
:105A40006D387CF48A39F2E09F0711F40C94263803
:105A50008D3B924011F00C94D9380F94419D0C94D9
:105A60001B399C012A5233402A30310510F40C9422
:105A700070380C94D938803A33E0930709F406C2A1
:105A80007CF48C36F3E09F0711F40C941B398438B6
:105A9000934011F00C94D9380F9473990C941B39DE
:105AA000873E33E0930711F40C94AB38893E934062
:105AB00011F40C94B9380C94D93880E50E94B84A96
:105AC000882329F00F94CB986B017C0103C0C12C73
:105AD000D12C760183E50E94B84A882361F00E94A8
