:100000000C94F5260C9426270C9426270C9426276E
:100010000C9426270C9426270C9426270C9426272C
:100020000C9426270C9426270C9426270C9426271C
:100030000C9426270D94F4590C9426270C9426270B
:100040000C9426270C9420980C9426270C94262791
:100050000C9426270C9426270D943E270D9412B459
:100060000C9426270C94A5440C949B440C942627AE
:100070000C9426270C9426270C9426270C942627CC
:100080000C9426270C9426270C9426270C942627BC
:100090000C9426270C9426270C9426270C942627AC
:1000A0000C9426270C9426270C9426270C9426279C
:1000B0000C9426270C9426270C9426270C9426278C
:1000C0000C9426270C9426270C9426270C9426277C
:1000D0000C9426270C9426270C9426270C9426276C
:1000E0000C942627DB44ED44FF44104518454B454E
:1000F0001C454B45204524454B4528452C4530455E
:1001000039454B4544450E531553C8538554E55561
:10011000EE55FE551201D6024201E8023601AE024A
:10012000AA0264029E01C201940188028801720140
:1001300066014E021E0136028002980220029002E1
:10014000EA018E024A01A20178024E01C6020A01AA
:10015000560112022E02FE01A2017E01E002EC0114
:1001600005A84CCDB2D44EB93836A9020C50B9917D
:100170008688083CA6AAAA2ABE000000803F076322
:100180004236B79BD8A71A39685618AEBAAB558C09
:100190001D3CB7CC5763BD6DEDFD753EF617723152
:1001A000BF000000803F08000000BE922449123EBC
:1001B000ABAAAA2ABECDCCCC4C3E00000080BEAB80
:1001C000AAAAAA3E00000000BF000000803F000075
:1001D000000000084178D3BB4387D1133D190E3C82
:1001E000C3BD4282AD2B3E68EC8276BED98FE1A9B9
:1001F0003E4C80EFFFBE01C4FF7F3F0000000000C7
:100200000D949D5A0D94CD010C94DD8D0C94C08DF0
:100210000D943A6A0D9457B30D94AD010C947D86FC
:100220000C948E890D94F1060D94BD130D949714C2
:100230000C94EF710D94A3110D9408140D948E2A53
:100240000C9420450C941F6B0C9457840C94CA8119
:100250000C94A0FF0D9478110C942A5F0D94F01368
:100260000D9423160D9447040D94105B0D94DA063B
:100270000D94D8130D94B7630D944C130C94BFF3E5
:100280000D9489590D94D7060C94DB440C94F759BE
:100290000D94B1010D943CB30C945D810D944DB35C
:1002A0000D94FC130D9487100C94D1F40D945BB352
:1002B0000C94FE550D9402140C9418450D9475136E
:1002C0000D94450A0C94C5F40C94EE550D94762AC1
:1002D0000C944DFD0D94C5590C94FC8F0D94230284
:1002E0000C945C690D94712A0D947C080C94F78F22
:1002F0000D949E5A0D9432090C94828D0D946FB317
:100300000C941A680C9479860C94C8530C947086DB
:100310000D9486290C9418830D94D5110D94CF0C4F
:100320000C9486F30C944D680D94E6060D94161209
:100330000D94A2130D948A110D94B5010D94E3064A
:100340000C9476F80D947CB30D942E660D944212A5
:100350000C949FF30D94830C0D94D2130C94DE71C6
:100360000C9401900D94BC110D94C1010D94E5BB4A
:100370000D94A00B0D945F590C942C450C94F467CC
:100380000C94BAFA0D94FF060C94D5590C946E8611
:100390000C94B6590C947B860C9439450D94C10F7E
:1003A0000C941B930D942F120C9415530D947064A0
:1003B0000C9473F30C9424450C94F58D0D94B901B1
:1003C0000D94DE130C9460F40D946C030D94AA59F3
:1003D0000D94211A0D9434B30D9477B30D949313A7
:1003E0000C94236B0D9471030D947F030C94F95EB0
:1003F0000C94056F0D94F6130C944B450D9469B352
:100400000D9483120C945A900C947F860D94EA13E9
:100410000D9484130D9475640D94A0030C94BBF398
:100420000C9479F40D9461B30C94438D0C94304585
:100430000C94ED6F0C94E38D0C949CF60D94B05AD3
:100440000D9442B30D94AE130D94601E0C9444456C
:100450000D9445070C9483FE0D9403120D9465B31F
:100460000D947F170C946E650C94EBFD0D94A12AEE
:100470000C94ADF30C94E98D0D9496590C94ED44C5
:100480000C94A18D0C9449680C94FF440D945B125C
:100490000D94BD010D9476070C940E530D94892A8A
:1004A0000D949A030C948D670C940F930C94A6F4FE
:1004B0000C9403930D948B030D946C660D94A57DA1
:1004C0000C94AF690D947A030D94EC060D94E4132B
:1004D0000C94C0940C9415930C947F810D942C096A
:1004E0000C94486B0C94EF8D0C9434FD0D947D1797
:1004F0000D9449B30C9406900C94736D0D940F26D3
:100500000D94AD2A0D94680B0D94CC130D946B13C0
:100510000D94E9060D9426240C94B2F40D9438B38E
:100520000D9445B30D94E40D0C94186B0C94516824
:100530000D9476290C94D6710D94301A0C94CB89B5
:100540000C9447F40C94F4590C9428450D94D10163
:100550000D94C5010D94E0060C941C450D94DD0628
:100560000D94DA180D9408130D9499640C94406856
:100570000D94FFBB0D9474120D947A640D94C9010F
:100580000C9409930D94AE6B0D948C120D9453B38F
:100590000C9410450C9461680C94E5550C94F19002
:1005A0000C94DA710C9492F40D9450170D94D406B7
:1005B0000C9485540C94CBF40D9475030D94F011A8
:1005C0000D9473B30D944E170D9481170D940F0A6B
:1005D0000D94F4064E414E494E495459494E46CD6C
:1005E000CCCC3D0AD7233C17B7D13877CC2B3295EA
:1005F00095E6241FB14F0A000020410000C84200C8
:10060000401C4620BCBE4CCA1B0E5AAEC59D740091
:10061000407A10F35A00A0724E18090010A5D4E8D1
:100620000000E87648170000E40B54020000CA9A64
:100630003B000000E1F505000080969800000040B6
:10064000420F000000A086010000001027000000FB
:1006500000E803000000006400000000000A000041
:100660000000000100000000002C76D888DC674FF5
:100670000823DFC1DFAE59E1B1B796E5E3E453C625
:100680003AE651997696E8E6C28426EB898C9B621D
:10069000ED407C6FFCEFBC9C9F40F2BAA56FA5F4C7
:1006A00090055A2AF75C936B6CF9676DC11BFCE0EF
:1006B000E40D47FEF520E6B500D0ED902E03009442
:1006C0003577050080841E080000204E0A000000D7
:1006D000C80C333333330F986E12831141EF8D21E1
:1006E00014893BE65516CFFEE6DB18D1844B381B48
:1006F000F77C1D901DA4BBE424203284725E22810D
:1007000000C9F124ECA1E53D274C4556454C494E26
:100710004700434F4D4D554E49434154494F4E00BC
:1007200044525952554E004552524F525300454380
:10073000484F00536C6565702E2E2E00202864698A
:100740007361626C6564290A0055424C2041646AF9
:100750007573746D656E74205A002028656E616231
:100760006C6564290A0041626F76650053616D65AE
:10077000205A2061730042656C6F77004175746F79
:1007800020426564204C6576656C696E673A205539
:10079000424C00204E6F7A7A6C65290A0020262090
:1007A000002D43656E746572002D46726F6E740085
:1007B0002D4261636B002028416C69676E6564207F
:1007C000576974680020284D6964646C65002028AE
:1007D0004C65667400202852696768740050726F17
:1007E00062653A204649585F4D4F554E5445445F27
:1007F00050524F42450A004D616368696E6520544E
:100800007970653A2044656C74610A003E20686F17
:100810006D696E67206E6F74206E65656465642C0B
:1008200020736B69700A00205A3A200020593A2040
:100830000042656420583A20004D65736820706F4F
:10084000696E74206F7574206F662072616E6765C3
:100850000A004D302053746F70004D312053746F77
:100860007000436C69636B20746F20526573756D03
:10087000652E2E2E004E6F204D6F76652E00456E34
:10088000642066696C65206C6973740A0042656750
:10089000696E2066696C65206C6973740A004E6F1E
:1008A000206D656469610A00526573756D696E67D4
:1008B00020534400286E6F2066696C6529004375DB
:1008C0007272656E742066696C653A200044656CCE
:1008D0006574696F6E206661696C65642C20466979
:1008E0006C653A200046696C652064656C657465CA
:1008F000643A0025697920256964202569682025E6
:10090000696D20256973005072696E742074696D79
:10091000653A20004525632025530044454255474C
:100920003A004D31313320530042656420436F6FEC
:100930006C696E672E2E2E004265642048656174D6
:10094000696E672E2E2E0050533A300A0050533AEB
:10095000310A0044656C7461205072696E7465726E
:10096000204F46462E004348414D4245525F544574
:100970004D504552415455524500424142595354FD
:10098000455050494E470041524353004D4F544942
:100990004F4E5F4D4F44455300544845524D414CD6
:1009A0005F50524F54454354494F4E004C4F4E47B1
:1009B0005F46494C454E414D45004155544F5245C7
:1009C000504F52545F53445F535441545553005356
:1009D00044434152440050524F4D50545F53555080
:1009E000504F525400454D455247454E43595F5074
:1009F000415253455200434153455F4C4947485487
:100A00005F4252494748544E45535300544F47475D
:100A10004C455F4C494748545300534F4654574147
:100A200052455F504F574552004255494C445F5024
:100A3000455243454E54004C4556454C494E475F40
:100A400044415441005A5F50524F42450041555471
:100A50004F4C4556454C005052494E545F4A4F4208
:100A60000050524F4752455353004155544F524541
:100A7000504F52545F54454D5000564F4C554D45C4
:100A8000545249430042494E4152595F46494C45F0
:100A90005F5452414E534645520053455249414CD2
:100AA0005F584F4E5F584F4646004649524D57419A
:100AB00052455F4E414D453A4D61726C696E203230
:100AC0002E302E372E3220284665622032332032D7
:100AD0003032312032323A33323A32352920534FD4
:100AE000555243455F434F44455F55524C3A6874F5
:100AF0007470733A2F2F6769746875622E636F6D17
:100B00002F4D61726C696E4669726D776172652FE7
:100B10004D61726C696E2050524F544F434F4C5F81
:100B200056455253494F4E3A312E30204D4143489D
:100B3000494E455F545950453A44656C74612050A4
:100B400072696E7465722045585452554445525F1F
:100B5000434F554E543A3220555549443A636564E3
:100B600065326132662D343161322D343734382D9F
:100B7000396231322D633535633632663336376646
:100B8000660A002F2F20004D31343520533C696E0A
:100B90006465783E206F7574206F662072616E67A1
:100BA000652028302D31290A00416363656C657228
:100BB0006174696F6E3A2050005741524E494E475A
:100BC00021204C6F77205A204A65726B206D617925
:100BD000206C65616420746F20756E77616E74653A
:100BE00064207061757365732E0A0020204D617852
:100BF0003A200020204D696E3A2000536F66742021
:100C0000656E6473746F70733A200046523A002028
:100C1000466C6F773A20006469730043290A0061CB
:100C2000626C656420286D696E2074656D702000AB
:100C3000436F6C64206578747275646573206172AB
:100C40006520004D34323120696E636F72726563C6
:100C50007420706172616D6574657220757361676F
:100C6000650A00454550524F4D204F4B0A005D200C
:100C70003D200064656C74615F656E6473746F70B1
:100C80005F61646A5B004D363636004D6163726F9A
:100C900020746F6F206C6F6E672E0A004D38342001
:100CA0004500446F6E65207072696E74696E6720CE
:100CB00066696C650A004D3737004D3331002E07E9
:100CC000DA0D270720071207090750726F74656352
:100CD0007465642050696E0A005A5F6D6F76655FB7
:100CE000636F6D700A0044656C74612043616C69C8
:100CF00062726174696F6E20696E2070726F6772C4
:100D0000657373003E3E3E207365745F617869735E
:100D10005F6E657665725F686F6D656428003C3C48
:100D20003C207365745F617869735F6E6576657288
:100D30005F686F6D65642800416363656C6572610F
:100D400074696F6E206C696D697465642E0A005059
:100D500072696E7465722073746F7070656420645C
:100D6000756520746F206572726F72732E204669EC
:100D70007820746865206572726F7220616E6420DD
:100D8000757365204D39393920746F20726573741D
:100D90006172742E202854656D706572617475726D
:100DA000652069732072657365742E205365742005
:100DB00069742061667465722072657374617274FF
:100DC000696E67290A00554E4B4E4F574E205354BB
:100DD0004154450047434F44455F494E464F004C00
:100DE00043445F50415553455F524553554D45006F
:100DF00046494C414D454E545F52554E4F55545FF8
:100E0000434F4E54494E55450046494C414D454E81
:100E1000545F52554E4F5554004D38373620526569
:100E200073706F6E64696E672050524F4D50545FFF
:100E3000004572726F722077726974696E672074F0
:100E40006F20454550524F4D210A0053544F50508A
:100E500045442E20004E6F20436865636B73756DAB
:100E60002077697468206C696E65206E756D6265A7
:100E7000722C204C617374204C696E653A200063BB
:100E80006865636B73756D206D69736D61746368FC
:100E90002C204C617374204C696E653A20004C69BB
:100EA0006E65204E756D626572206973206E6F7479
:100EB000204C617374204C696E65204E756D6265BF
:100EC000722B312C204C617374204C696E653A2072
:100ED000004D3131300053442072656164206572E9
:100EE000726F720A002121204B494C4C20636175BE
:100EF00073656420627920746F6F206D756368205C
:100F0000696E6163746976652074696D65202D2052
:100F100063757272656E7420636F6D6D616E643A95
:100F20002000627573793A2070617573656420667C
:100F30006F7220696E7075740A00627573793A2059
:100F400070617573656420666F7220757365720ACF
:100F500000627573793A2070726F63657373696E9E
:100F6000670A004D656469612052656D6F7665643E
:100F7000004D6564696120496E7365727465640033
:100F8000506C6561736520526573657400505249F9
:100F90004E5445522048414C5445440025533A2074
:100FA000255300706F7765726F6666004B494C4C35
:100FB00045442E20005072696E7465722068616C21
:100FC0007465642E206B696C6C28292063616C6CDD
:100FD0006564210A006563686F3A004572726F723A
:100FE0003A003F3F3F2059696B65732120204E41F5
:100FF0004E20696E206765745F7A5F636F727265F9
:101000006374696F6E280029203D2000207261778B
:10101000206765745F7A5F636F7272656374696F6E
:101020006E2800203A202E2E2E4E6F77204F4E0A2B
:1010300000203A204C6576656C696E67204F464605
:101040000A00203A202E2E2E4E6F77204F46460A59
:1010500000203A204C6576656C696E67204F4E0A19
:101060000072657365745F6265645F6C6576656C5C
:101070000A00204A0020204D34323120490020202F
:1010800047323920493939390A0061637469766514
:101090000A002053797374656D2076312E3031202B
:1010A000002020207C0A004E414E0020202E2020CF
:1010B0002000207C004C43443A0A004353563A0A2D
:1010C0000020666F7220003A0A0A000A4265642016
:1010D000546F706F677261706879205265706F72BB
:1010E0007400205472696767657265642065617277
:1010F0006C792E00204E6F20747269676765722EBE
:10110000002050726F6265206661696C21202D009D
:10111000534C4F570050726F62653A3A72756E5F6A
:101120007A5F70726F62650050726F62696E6720DD
:101130004661696C65640A0050726F62696E67206F
:101140004661696C656400506F736974696F6E20E5
:101150004E6F7420526561636861626C650A005F5E
:1011600072656C6174697665290A0050726F6265F8
:101170003A3A70726F62655F61745F706F696E7426
:1011800000446F6E652E0A003F496E76616C69649B
:101190002073746F7261676520736C6F742E0A3FE1
:1011A000557365203020746F20004732392050324B
:1011B0002066696E69736865642E0A005859206F4D
:1011C000757473696465207072696E7461626C65B0
:1011D000207261646975732E0A003F4572726F72E6
:1011E00020696E20427573696E6573732043617266
:1011F00064206D6561737572656D656E742E0A008D
:101200004D616E75616C6C792070726F62696E678A
:1012100020756E726561636861626C6520706F69CC
:101220006E74732E0A0050726F62696E672061726D
:101230006F756E642028004D65736820696E766155
:101240006C6964617465642E2050726F62696E67A8
:10125000206D6573682E0A004D657368207A65728B
:101260006F65642E0A0044656661756C7420737442
:101270006F7261676520736C6F7420302073656CCA
:1012800065637465642E0A004C6F6164696E672043
:10129000746573745F7061747465726E2076616CCE
:1012A0007565732E0A0A00496E76616C6964207454
:1012B0006573745F7061747465726E2076616C75AD
:1012C000652E20282D3120746F2032290A0A004C07
:1012D0006F636174696F6E7320696E76616C6964A7
:1012E000617465642E0A0A00456E74697265204D4A
:1012F00065736820696E76616C6964617465642EDB
:101300000A0A007C4D61726C696E7C002D2D2D2DBA
:101310002D2D00456E636C6F73757265004D6F7691
:10132000696E672E2E2E004C6F6164206D6D005526
:101330006E6C6F6164206D6D004175746F20486F35
:101340006D650054656D70657261747572650050ED
:10135000726568656174202400416476616E63651E
:10136000204B202A0046616E205370656564004D55
:1013700061696E004578747275646572202A004553
:1013800078747275646572004D6F7665205A0046F8
:10139000726565205859004D6F76652059004D6F74
:1013A0007665205800536F667420456E6473746FC1
:1013B00070730044697361626C652053746570706A
:1013C000657273004D3834004D6F76652041786941
:1013D000730050726568656174202420416C6C0054
:1013E00050726568656174202420456E64207E001B
:1013F00050726568656174202420426564005072F3
:1014000065686561742024207E00436F6F6C646F93
:10141000776E004E6F7A7A6C65207E004261627949
:1014200073746570205A00466C6F77207E00466C9E
:101430006F77006E6F74696669636174696F6E209F
:10144000005072696E742050617573656400446564
:101450006C7461205072696E7465722052656164AB
:10146000792E005072696E74696E672E2E2E00639D
:10147000616E63656C005072696E742041626F72B8
:10148000746564004469736D697373005549204144
:10149000626F72746564004D323520500A4D3234EB
:1014A00000526573756D650055492050617573650F
:1014B0000050617573696E672E2E2E00726573750C
:1014C0006D65003C3C3C207365745F617869735FB7
:1014D00069735F61745F686F6D652800203A200A48
:1014E000003E3E3E207365745F617869735F697387
:1014F0005F61745F686F6D652800686F6D655F641C
:10150000656C746100486F6D696E67204661696C37
:101510006564006F70656E005452494747455245F7
:1015200044007A5F6D6178007A5F6D696E00795F63
:101530006D617800785F6D6178005265706F7274CC
:10154000696E6720656E6473746F70207374617464
:1015500075730A00000000000000000014EE3F4315
:101560004D333033205531204525692053256900FE
:10157000504944204175746F74756E65202A00507F
:1015800049442D43202A005049442D44202A00502C
:1015900049442D49202A005049442D50202A00203A
:1015A000022046616374002002204D617800200211
:1015B000204D696E004175746F74656D70005654EE
:1015C000726176204D696E00566D696E00566D61D0
:1015D00078202A00566D6178204500566D6178208C
:1015E0004300566D6178204200566D6178204100BD
:1015F000416D6178202A00416D6178204500416D80
:101600006178204300416D6178204200416D61782E
:10161000204100412D54726176656C00412D526568
:10162000747261637400416363656C0056652D4A92
:1016300065726B0056432D4A65726B0056422D4A07
:1016400065726B0056412D4A65726B004368616E8E
:1016500067652046696C616D656E7400436F6E66E8
:10166000696775726174696F6E0043616E63656C62
:10167000204F626A656374003F0043616E63656C6E
:10168000004368616E6765204D65646961004D3295
:1016900031004175746F73746172740053776974AB
:1016A000636820506F776572204F6E004D383000B0
:1016B00053776974636820506F776572204F666650
:1016C000004D38310041626F7574205072696E743C
:1016D000657200526573756D65205072696E740095
:1016E0004E6F204D656469610054756E65005374DA
:1016F0006F70205072696E74005061757365205070
:1017000072696E74005374617274205072696E74E1
:101710000043616E6E6F7420656E74657220737520
:10172000626469723A2000052E2E004D6F766520A6
:1017300025736D6D004D6F766520302E316D6D0017
:101740004D6F766520316D6D004D6F7665203130BF
:101750006D6D00486F74656E6420746F6F20636FE9
:101760006C640050726F636565640024F4D430507B
:10177000C38E20C2A24017828B7011127A910D8104
:101780006CD90AA861E108C7586607615143061E73
:101790004B5D05C145A7041A411104093D98037129
:1017A0003931034036DB0265339102D43054028074
:1017B0002E1D02632CEE01752AC501B028A0011070
:1017C0002781018F2564012B244B01E0223401ACD9
:1017D000211F018D200D01801FFC00841EED00974C
:1017E0001DDF00B81CD200E61BC600201BBC006435
:1017F0001AB200B219A8000A19A0006A189900D1FB
:1018000017910040178B00B516840031167E00B387
:101810001579003A157300C7146F0058146A00EE6A
:101820001366008813630025135E00C7125B006C0B
:1018300012570015125400C111510070114F0021B0
:10184000114B00D61049008D10470046104400028D
:10185000104200C00F4000800F3E00420F3C0006C7
:101860000F3B00CB0E3800930E37005C0E3500277F
:101870000E3400F30D3200C10D3100900D300060C8
:101880000D2E00320D2D00050D2C00D90C2B00AEB5
:101890000C2900850C29005C0C2700350C27000E54
:1018A0000C2600E80B2400C40B2400A00B23007DB1
:1018B0000B23005A0B2100390B2100180B2000F8D4
:1018C0000A1F00D90A1E00BB0A1E009D0A1D0080C7
:1018D0000A1D00630A1C00470A1B002C0A1B00118A
:1018E0000A1A00F7091A00DD091900C4091900AB2A
:1018F000091900920917007B091800630917004CA9
:1019000009160036091600200916000A091500F507
:10191000081500E0081400CC081400B8081400A44E
:10192000081400900813007D0812006B081300587B
:101930000812004608120034081100230811001292
:1019400008110001081100F0071000E0071000D096
:10195000071000C0071000B0070F00A1071000918A
:10196000070E0083070F0074070F0065070E00576E
:10197000070E0049070E003B070D002E070E002042
:10198000070D0013070D0006070D00F9060C00ED0A
:10199000060D00E0060C00D4060C00C8060C00BCC6
:1019A000060C00B0060C00A4060B0099060C008D76
:1019B000060B0082060B0077060B006C060B00611D
:1019C000060A0057060B004C060A0042060A0038B9
:1019D000060A002E060A0024060A001A060A00104B
:1019E00006090007060A00FD050900F4050900EBD9
:1019F000050900E2050900D9050900D0050900C75D
:101A0000050900BE050900B5050800AD050800A5DB
:101A10000509009C050800940508008C0508008451
:101A20000508007C050800740508006C05070065C2
:101A30000508005D050700560508004E050700472C
:101A40000507004005080038050700310507002A92
:101A5000050700230507001C050600160507000FF3
:101A60000507000805060002050700FB040600F54F
:101A7000040700EE040600E8040600E2040700DBA9
:101A8000040600D5040600CF040600C9040600C3FE
:101A9000040600BD040600B7040600B1040500AC4E
:101AA000040600A6040600A00405009B0406009599
:101AB000040500900406008A0405008504050080E2
:101AC0000406007A04050075040500700405006B27
:101AD00004050066040500610405005C0405005768
:101AE000040500520405004D0405004804050043A8
:101AF0000405003E0404003A0405003504050030E6
:101B00000404002C04050027040400230405001E1F
:101B10000404001A04040016040500110404000D56
:101B2000040400090405000404040000040400FC8B
:101B3000030400F8030400F4030400F0030400ECC1
:101B4000030400E8030400E4030400E0030400DCF1
:101B5000030400D8030400D4030400D0030400CC21
:101B6000030400C8030300C503030024F404D920C0
:101B70001BC40C5C0E9804C4095F0265077101F474
:101B800005F900FB04B30048048700C1036900584D
:101B900003550003034500BE023A0084023100539E
:101BA000022A002902250004022000E4011C00C8CA
:101BB000011900AF0117009801140084011300718E
:101BC0000110006101100051010E0043010D0036AB
:101BD000010B002B010B0020010B00150109000C6B
:101BE00001090003010800FB000800F3000800EBF6
:101BF000000700E4000600DE000600D8000600D260
:101C0000000600CC000500C7000500C2000500BDAD
:101C1000000400B9000400B5000400B1000400ADE8
:101C2000000400A9000400A5000300A20003009F17
:101C30000004009B0003009800030095000200933D
:101C4000000300900003008D0002008B0003008859
:101C50000002008600020084000300810002007F71
:101C60000002007D0002007B000200790002007784
:101C70000001007600020074000200720001007191
:101C80000002006F0002006D0001006C0002006A9B
:101C900000010069000200670001006600010065A4
:101CA00000010064000200620001006100010060A8
:101CB0000001005F0002005D0001005C0001005BAC
:101CC0000001005A000100590001005800010057AE
:101CD00000010056000100550001005400010053AE
:101CE00000000053000100520001005100010050AB
:101CF0000001004F0001004E0000004E0001004DA9
:101D00000001004C0001004B0000004B0001004AA4
:101D100000010049000100480000004800010047A0
:101D2000000100460000004600010045000000459B
:101D30000001004400010043000000430001004294
:101D4000000000420001004100000041000100408D
:101D50000001003F0000003F0001003E0000003E87
:101D60000001003D0000003D0001003C0000003C7F
:101D70000000003C0001003B0000003B0001003A75
:101D80000000003A0001003900000039000100386D
:101D90000000003800000038000100370000003764
:101DA000000100360000003600000036000100355A
:101DB0000000003500000035000100340000003450
:101DC0000000003400010033000000330000003345
:101DD000000100320000003200000032000100313A
:101DE0000000003100000031000100300000003030
:101DF000000000300001002F0000002F0000002F25
:101E00000000002F0001002E0000002E0000002E18
:101E10000001002D0000002D0000002D0000002D0D
:101E20000001002C0000002C0000002C0000002C01
:101E30000001002B0000002B0000002B0000002BF5
:101E40000001002A0000002A0000002A0000002AE9
:101E500000010029000000290000002900000029DD
:101E600000000029000100280000002800000028D0
:101E700000000028000000280001002700000027C3
:101E800000000027000000270000002700010026B6
:101E900000000026000000260000002600000026AA
:101EA000000100250000002500000025000000259D
:101EB000000000250000002500010024000000248F
:101EC0000000002400000024000000240001002382
:101ED0000000002300000023000000230000002376
:101EE0000000002300000023000100220000002267
:101EF000000000220000002200000022000000225A
:101F0000000100210000002100000021000000214C
:101F1000000000210000002100000021000100203D
:101F20000000002000000020000000200000002031
:101F30000000002000000020000000200001001F21
:101F40000000001F0000001F0000001F0000001F15
:101F50000000001F0000001F0001001E0000001E06
:101F60000000001E0000001E000000232C0000B82E
:101F7000220000561800003A0F0000B8080000B117
:101F8000040000710200003E0100002E2E2E2800E9
:101F9000203A2073796E635F706C616E5F706F734F
:101FA0006974696F6E0A00203A2070726570617200
:101FB000655F666173745F6D6F76655F746F5F6494
:101FC000657374696E6174696F6E0A0020206465C0
:101FD0007374696E6174696F6E3D00203A207A20D7
:101FE0006C6F776572206D6F76650A00203A2078F5
:101FF00079206D6F76650A00203A207A2072616937
:102000007365206D6F76650A00203A207A6F6E65E1
:1020100020626F72646572206D6F76650A00203AE7
:102020002064616E676572207A6F6E65206D6F76D1
:10203000650A00203A2064657374696E6174696F83
:102040006E203D2063757272656E745F706F736988
:1020500074696F6E0A00646F5F626C6F636B696EA8
:10206000675F6D6F76655F746F00206D61783A0011
:10207000206D696E3A004178697320005761726E75
:10208000696E673A20486F6D696E672042756D70A2
:102090002044697669736F72203C20310A005D002C
:1020A0002C2000646F5F686F6D696E675F6D6F767F
:1020B00065003C3C3C20686F6D6561786973280061
:1020C00061646A44697374616E63653A00486F6D58
:1020D00065203220536C6F773A0A004D6F76652089
:1020E000417761793A0A00486F6D65203120466179
:1020F00073743A0A003E3E3E20686F6D65617869F0
:102100007328000000B4420000B44214EE3F4300C4
:1021100000B4C20000B4C2000000000A0A0A0000B5
:10212000704200007042000070420000A0400000B9
:10213000A0400000A040000034430000344314EEEF
:102140003F43010101000000010000000100008088
:1021500000555555000000400033333300AAAA2A29
:10216000004992240000002000C7711C00999919B1
:1021700000D1451700555515003BB11300244912F5
:102180000011111100000010000F0F0F00E3380EB6
:102190000043790D00CCCC0C00C3300C00E8A20B3E
:1021A0000064210B00AAAA0A00703D0A009DD8090C
:1021B00000427B090092240900DCD30800888808CB
:1021C000001042080000000800F0C10700878707E0
:1021D0000075500700711C07003EEB0600A1BC060D
:1021E000006990060066660600703E0600611806EB
:1021F0000017F4050074D105005BB00500B290052E
:1022000000627205005555050078390500B81E05B5
:1022100000050505004EEC040087D40400A1BD04B0
:102220000090A7040049920400C17D0400EE6904F7
:1022300000C7560400444404005C32040008210432
:102240000041100400000004003FF00300F8E00328
:102250000026D20300C3C30300CCB503003AA80391
:10226000000A9B0300388E0300C08103009F7503A2
:1022700000D0690300505E03001D5303003448037F
:1022800000913D03003333030016290300381F0378
:102290000097150300300C0300030303000BFA0240
:1022A0000049F10200BAE802005CE002002DD80209
:1022B000002DD0020059C80200B0C0020031B9029E
:1022C00000DAB10200AAAA0200A0A30200BC9C028C
:1022D00000FA9502005C8F0200DF88020082820211
:1022E00000457C02002776020027700200436A0244
:1022F000007C640200D05E02003F590200C8530215
:102300000020746F6F206C6F6E6720657874727533
:1023100073696F6E2070726576656E7465640A000D
:1023200020636F6C6420657874727573696F6E20BA
:1023300070726576656E7465640A00FFFDFCFAF8DC
:10234000F6F4F2F0EEECEAE9E7E5E3E1E0DEDCDA10
:10235000D9D7D5D4D2D0CFCDCBCAC8C7C5C3C2C0B8
:10236000BFBDBCBAB9B7B6B4B3B2B0AFADACAAA931
:10237000A8A6A5A4A2A1A09E9D9C9A999897959481
:102380009392908F8E8D8B8A8988878684838281B1
:10239000807F7E7D7B7A79787776757473727170C1
:1023A0006F6E6D6C6B6A69686766656463626160B5
:1023B0005F5E5D5C5B5A595858575655545352519D
:1023C00050504F4E4D4C4B4A4A494847464645446B
:1023D00043424241403F3E3E3D3C3B3B3A39383828
:1023E00037363535343332323130302F2E2E2D2CD6
:1023F0002B2B2A2929282727262525242323222178
:102400002120201F1E1E1D1C1C1B1B1A1919181809
:10241000171616151514131312121111100F0F0E93
:102420000E0D0D0C0C0B0A0A090908080707060611
:10243000050504040303020201000050726F626587
:10244000204F6666736574205800446966663A20BA
:1024500020200046726F6D5374703A00537465709B
:102460007065723A0044656C74614B3A2000556E99
:102470004C6576656C3A004C6576656C65643A002F
:102480005261773A20202020000A4C6F676963610F
:102490006C3A00436F756E7420453A004361703AA0
:1024A000003F5A206F7574206F662072616E6765F9
:1024B0002028003F59206F7574206F662072616E6E
:1024C000676520282D003F58206F7574206F6620A7
:1024D00072616E676520282D00656E717565756582
:1024E000696E672022006F6B00526573656E643AF7
:1024F000200023646566696E652044454641554C5D
:10250000545F004B6420004B6920004B702000504A
:102510004944204175746F74756E652066696E69F3
:1025200073686564212050757420746865206C613F
:102530007374204B702C204B6920616E64204B64B7
:1025400020636F6E7374616E74732066726F6D209A
:1025500062656C6F7720696E746F20436F6E666979
:102560006775726174696F6E2E680A005049442065
:102570004175746F74756E65206661696C65642160
:102580002074696D656F75740A000A20436C61736D
:1025900073696320504944200A00204B643A2000AC
:1025A000204B693A2000204B703A20000A204E6FE1
:1025B000206F76657273686F6F740A002054753AE5
:1025C0002000204B753A2000206D61783A200020D1
:1025D0006D696E3A200020643A20002062696173C0
:1025E0003A2000504944204175746F74756E65201F
:1025F00073746172740A00504944204175746F7499
:10260000756E65206661696C6564212054656D7026
:102610006572617475726520746F6F206869676890
:102620000A00504944204175746F74756E650050FE
:102630004944204175746F74756E65206661696CDC
:1026400065642120426164206578747275646572E6
:10265000206E756D6265720A00A10000006900A21B
:102660000000006300B00000000900C1000000414C
:1026700000C20000004100C30000004100C400008F
:10268000004100C50000004100C60000004145C7F0
:102690000000004300C80000004500C900000045DC
:1026A00000CD0000004900D10000004E00D5000020
:1026B000004F00D60000004F00D70000007800DC7B
:1026C0000000005500DD0000005900E0000000613E
:1026D00000E10000006100E20000006100E3000092
:1026E000006100E40000006100E50000006100E618
:1026F0000000006165E70000006300E8000000657D
:1027000000E90000006500EA0000006500EB000041
:10271000006500EC0000006900ED0000006900EEBB
:102720000000006900EF0000006900F10000006E89
:1027300000F20000006F00F30000006F00F40000E2
:10274000006F00F50000006F00F60000006F00F859
:102750000000006F00F90000007500FA000000752D
:1027600000FB0000007500FC0000007500FD00008B
:10277000007900FF0000007900040100004100051D
:102780000100006100060100004300070100006332
:10279000000C01000043000D01000063000E010069
:1027A0000044000F010000640011010000640019E2
:1027B00001000065001A01000045001B01000065D2
:1027C000001F0100006700300100004900310100D6
:1027D000006900410100004C00420100006C004310
:1027E0000100004E00440100006E00480100006E30
:1027F000005801000052005901000072005A010007
:102800000053005B01000073005F01000073006073
:1028100001000053006101000073006501000074B5
:10282000006F01000075007C0100007A007D01004E
:10283000005A007E0100007A00920100006600E369
:102840000200007800222000002E001E210000500F
:102850007822210000544D902100003C2D9221004F
:10286000002D3EB02100000300BB21000004003C0D
:102870002200007E00482200007E3D6022000021F0
:102880003D612200003D00642200003C3D652200C5
:10289000003E3DF12300000700A03000003D002174
:1028A000F301000200C2F401000500A2000000ECE8
:1028B00000B0000000DF00E4000000E100F60000CE
:1028C00000EF00F7000000FD00FC000000F500E351
:1028D000020000EB0087030000A5008F030000F456
:1028E0000098030000F2009E030000E300A3030031
:1028F00000F600A9030000F400AC030000E000AD06
:10290000030000E300B1030000E000B2030000E2B6
:1029100000B5030000E300B8030000F200BC0300B0
:1029200000E400BE030000E300C0030000F700C1A4
:10293000030000E600C3030000E500902100007FD3
:1029400000922100007E001A220000E8001E2200F2
:1029500000F30088250000FF0002300000A1000CF9
:10296000300000A2000D300000A3009B300000DE0C
:10297000009C300000DF00A03000003D00A13000CE
:1029800000A700A2300000B100A3300000A800A4FE
:10299000300000B200A5300000A900A6300000B34E
:1029A00000A7300000AA00A8300000B400A9300041
:1029B00000AB00AA300000B500AB300000B600ACA0
:1029C000300000B6DEAD300000B700AE300000B71A
:1029D000DEAF300000B800B0300000B8DEB130002B
:1029E00000B900B2300000B9DEB3300000BA00B464
:1029F000300000BADEB5300000BB00B6300000BBCE
:102A0000DEB7300000BC00B8300000BCDEB93000DA
:102A100000BD00BA300000BDDEBB300000BE00BC0F
:102A2000300000BEDEBD300000BF00BE300000BF81
:102A3000DEBF300000C000C0300000C0DEC130008A
:102A400000C100C2300000C1DEC3300000AF00C4CE
:102A5000300000C200C5300000C2DEC6300000C336
:102A600000C7300000C3DEC8300000C400C9300019
:102A700000C4DECA300000C500CB300000C600CC68
:102A8000300000C700CD300000C800CE300000C9C3
:102A900000CF300000CA00D0300000CADED13000C4
:102AA00000CADFD2300000CB00D3300000CBDED430
:102AB000300000CBDFD5300000CC00D6300000CC99
:102AC000DED7300000CCDFD8300000CD00D9300098
:102AD00000CDDEDA300000CDDFDB300000CE00DCE0
:102AE000300000CEDEDD300000CEDFDE300000CF73
:102AF00000DF300000D000E0300000D100E1300005
:102B000000D200E2300000D300E3300000AC00E46B
:102B1000300000D400E5300000AD00E6300000D504
:102B200000E7300000AE00E8300000D600E93000D9
:102B300000D700EA300000D800EB300000D900ECEC
:102B4000300000DA00ED300000DB00EF300000DC88
:102B500000F2300000A600F3300000DD00F4300089
:102B600000B3DEF7300000DCDEFA300000A6DEFB4A
:102B7000300000A500FC300000B000FD300000A4D3
:102B800000074E0000FB0086510000FC004353008C
:102B900000FA0064FF0000A40065FF0000A50066C5
:102BA000FF0000A60067FF0000A70068FF0000A864
:102BB0000069FF0000A9006AFF0000AA006BFF0087
:102BC00000AB006CFF0000AC006DFF0000AD006EBC
:102BD000FF0000AE006FFF0000AF0070FF0000B00C
:102BE0000071FF0000B10072FF0000B20073FF002F
:102BF00000B30074FF0000B40075FF0000B500765C
:102C0000FF0000B60077FF0000B70078FF0000B8B3
:102C10000079FF0000B9007AFF0000BA007BFF00D6
:102C200000BB007CFF0000BC007DFF0000BD007EFB
:102C3000FF0000BE007FFF0000BF0080FF0000C05B
:102C40000081FF0000C10082FF0000C20083FF007E
:102C500000C30084FF0000C40085FF0000C500869B
:102C6000FF0000C60087FF0000C70088FF0000C803
:102C70000089FF0000C9008AFF0000CA008BFF0026
:102C800000CB008CFF0000CC008DFF0000CD008E3B
:102C9000FF0000CE008FFF0000CF0090FF0000D0AB
:102CA0000091FF0000D10092FF0000D20093FF00CE
:102CB00000D30094FF0000D40095FF0000D50096DB
:102CC000FF0000D60097FF0000D70098FF0000D853
:102CD0000099FF0000D9009AFF0000DA009BFF0076
:102CE00000DB009CFF0000DC009DFF0000DD009E7B
:102CF000FF0000DE009FFF0000DF00E5FF00005C3A
:102D000000001010101010100000141414141414EB
:102D1000000015151515151500001C1F11111F00B9
:102D2000000006191803130C00040E1F041C0000F9
:102D300000000E1315110E00001C101817050605D3
:102D400000040A0A0A0A11110E0C12120C000000EB
:102D500000001F1511151F000000000000010204F3
:102D6000040000001C1C0C0404040201000000000C
:102D70000004081000000000003E3E3E00202052EB
:102D800061646975733A002E4865696768743A0032
:102D90007879007A7800797A00207A00207900200A
:102DA00078002E2020202000456E64204452592DAA
:102DB00052554E004E6F20636F6E76657267656E7A
:102DC000636500497465726174696F6E203A2025ED
:102DD00030326900536176652077697468204D351B
:102DE000303020616E642F6F7220636F70792074B1
:102DF0006F20436F6E66696775726174696F6E2EBE
:102E0000680A00253033692E7800302E253033696A
:102E10000043616C6962726174696F6E2073643A19
:102E200000737464206465763A00726F6C6C696E2E
:102E300067206261636B2E0043616C69627261742A
:102E4000696F6E204F4B00436F727265637420642C
:102E5000656C74612073657474696E67732077693B
:102E60007468204D36363520616E64204D36363616
:102E70000A0020284452592D52554E2900436865B6
:102E8000636B696E672E2E2E204143003F426564BE
:102E90002063616C6962726174696F6E2072616433
:102EA00069757320696D706C61757369626C652EEC
:102EB0000A00473333204175746F2043616C6962A7
:102EC000726174650A003F2856296572626F7365E6
:102ED000206C6576656C20696D706C6175736962D4
:102EE0006C652028302D33292E0A003F2846296F93
:102EF00072636520697465726174696F6E20696DB3
:102F0000706C61757369626C652028302D333029CF
:102F10002E0A003F284329616C6962726174696FEF
:102F20006E20707265636973696F6E20696D706C75
:102F300061757369626C6520283E3D30292E0A0058
:102F40003F2850296F696E747320696D706C6175CC
:102F50007369626C652028302D3130292E0A0050AB
:102F6000726F6265205A204F666673657400416413
:102F700076616E6365642053657474696E6773006F
:102F8000547A00547900547800457A004579004518
:102F90007800526573746F72652044656661756C64
:102FA0007473004C6F61642053657474696E677349
:102FB0000053746F72652053657474696E67730093
:102FC00050726568656174202420436F6E660054FA
:102FD0006F6F6C204368616E676500546F6F6C2083
:102FE0004F6666736574730044656C746120436159
:102FF0006C6962726174696F6E0044696167205226
:103000006F64005261646975730043616C69627238
:10301000617465205A0043616C6962726174652055
:10302000590043616C69627261746520580044659F
:103030006C74612053657474696E67730043616CCE
:103040006962726174652043656E746572004175D2
:10305000746F2043616C6962726174696F6E0047BE
:10306000333300556E6C6F61642046696C616D6529
:103070006E74202A004C6F61642046696C616D6536
:103080006E74202A00554E4C4F41442046494C4115
:103090004D454E540046494C414D454E5420434801
:1030A000414E4745004D37303220542564004D369F
:1030B000303020423020542564004D373032203BE0
:1030C0002564004D3730312054256400556E6C6FF7
:1030D00061642046696C616D656E74004C6F61645B
:1030E0002046696C616D656E74005072656865613B
:1030F0007420437573746F6D004D3630302042304C
:1031000020542569004D37303120542569004D3752
:10311000303220542569004D37303200556E6C6FC7
:10312000616420416C6C004368616E67652046698C
:103130006C616D656E74202A005075726765206D34
:103140006F726500524553554D45204F5054494FBD
:103150004E533A005052494E542050415553454425
:103160000020204E6F7A7A6C653A200031353000AD
:103170004245443A204550434F53203130304B00B4
:1031800052756E617761792057617463683A204F98
:103190004E0045323A204550434F53203130304B9A
:1031A000004D61782054656D7000323735004D69EF
:1031B0006E2054656D700045313A204550434F53A1
:1031C000203130304B0050535500506F77657220DE
:1031D000537570706C790050726F746F636F6C0010
:1031E000312E3000426175640032353030303000AD
:1031F000475432353630205265762E412B004578C3
:10320000747275646572730044656C7461205072E9
:10321000696E74657200323032302D31302D3135A7
:1032200000546865726D6973746F727300426F61E8
:10323000726420496E666F005072696E7465722008
:10324000496E666F005061726B696E672E2E2E009C
:1032500000005761697420666F720066696C616D69
:10326000656E74206368616E676500746F207374A7
:10327000617274005761697420666F720066696CD0
:10328000616D656E7420756E6C6F616400004E6FC9
:103290007A7A6C652068656174696E6700506C6548
:1032A00061736520776169742E2E2E00005072655F
:1032B000737320627574746F6E00746F206865613B
:1032C00074206E6F7A7A6C650000496E7365727453
:1032D0002066696C616D656E7400616E6420707249
:1032E00065737320627574746F6E00746F20636F02
:1032F0006E74696E7565005761697420666F72003F
:1033000066696C616D656E74206C6F61640000505D
:103310007265737320427574746F6E00746F2072DF
:103320006573756D65207072696E74000057616910
:103330007420666F72207072696E7400746F2072F0
:103340006573756D652E2E2E0000576169742066B9
:103350006F720066696C616D656E7420707572675E
:1033600065000041425300504C4100496E666F2099
:1033700053637265656E005A2056616C756500472F
:1033800032380A4D313930205325690A4D313039F0
:10339000205325690A4732392050310042656420A4
:1033A00054656D7000486F74656E642054656D706F
:1033B000004732392050362043202D004865696788
:1033C000687420416D6F756E740041646A75737422
:1033D000204D657368204865696768740046696EAA
:1033E000652054756E6520436C6F73657374004778
:1033F00032392050342054004732380A47323620C0
:1034000043205020482569204225690056616C6997
:103410006461746520437573746F6D204D657368C6
:10342000004732380A4732362043205020493100C5
:1034300056616C6964617465204D65736820282449
:1034400029004732380A473236204320502049307D
:1034500000473239204A2569004C6576656C204D5D
:10346000657368005369646520506F696E747300FA
:1034700047726964204D657368204C6576656C6998
:103480006E6700332D506F696E74204C6576656CE5
:10349000696E6700473239204A3000473239205080
:1034A00033205220432E2569004D616E75616C20DA
:1034B00046696C6C2D696E0046696C6C2D696E20D6
:1034C000416D6F756E74004D65736820696E76612D
:1034D0006C6964617465642E0A00496E76616C697A
:1034E0006461746520436C6F73657374004732398F
:1034F000204900496E76616C696461746520416C95
:103500006C00436F6E74696E756520426564204D72
:103510006573680047323920503120430046696C9A
:103520006C2D696E204D657368004275696C64206E
:10353000437573746F6D204D657368004732380AA8
:103540004D3139302049310A4D3130392049310A65
:103550004732392050310A4D3130342053300A4D32
:10356000313430205330004275696C64204D6573EE
:103570006820282429004732380A4D313930204943
:10358000300A4D3130392049300A47323920503124
:103590000A4D3130342053300A4D3134302053300D
:1035A0000047323920256325690A4D313137200023
:1035B0006733633350726F62652059204F666673BC
:1035C00065740050726F62652058204F666673659F
:1035D00074002A2053746570732F6D6D004320535F
:1035E000746570732F6D6D00422053746570732F76
:1035F0006D6D00412053746570732F6D6D00496EC1
:10360000697400496E697469616C697A6520454521
:1036100050524F4D0050726F6265204F6666736561
:10362000747300416363656C65726174696F6E00E9
:1036300056656C6F63697479004E4F0059455300AD
:1036400043616E63656C204F626A656374203D0060
:103650005A20526169736500326E64204E6F7A7A27
:103660006C65205A00326E64204E6F7A7A6C652049
:103670005900326E64204E6F7A7A6C652058004D86
:103680006F74696F6E004F75747075742055424C7D
:1036900020496E666F0047323920570055424C2052
:1036A000546F6F6C73004F7574707574204D657333
:1036B00068204D6170004D6573682053746F7261AE
:1036C0006765004D657368204564697400537465CF
:1036D000702D42792D537465702055424C00416322
:1036E0007469766174652055424C00473239204137
:1036F00000446561637469766174652055424C00CD
:103700004732392044002020202020202000204360
:103710003A0020423A0020436F756E7420413A000F
:10372000453200453100626564002C207379737462
:10373000656D2073746F70706564212048656174D5
:1037400065725F49443A200048656174696E67207C
:103750004661696C65640048656174696E672066DE
:1037600061696C6564004D31313220536875746451
:103770006F776E00544845524D414C2052554E4192
:1037800057415900546865726D616C2052756E61C5
:10379000776179004572723A204D415854454D5039
:1037A000004D415854454D502074726967676572E9
:1037B0006564004572723A204D494E54454D5000A3
:1037C0004D494E54454D5020747269676765726566
:1037D0006400202F002040002042403A0020403A60
:1037E000003F454550524F4D2073746F72616765BD
:1037F000206E6F7420617661696C61626C652E0A5F
:10380000004732362048656174696E67204E6F7AD2
:103810007A6C65004732362048656174696E6720AE
:103820004265640057616974696E6720666F722033
:103830006865617475702E0A004669786564204C6D
:10384000656E677468205072696D6500446F6E65BF
:10385000205072696D696E67004D616E75616C20F4
:103860007072696D696E672E2E2E004732362043C6
:10387000616E63656C6564004C656176696E672096
:10388000473236003F537065636966696564205846
:103890002C5920636F6F7264696E617465206F7557
:1038A00074206F6620626F756E64732E0A003F2865
:1038B000522965706561742076616C7565206E6F44
:1038C0007420706C61757369626C653B206D7573F3
:1038D00074206265206174206C6561737420312EE0
:1038E0000A003F537065636966696564206E6F7A8C
:1038F0007A6C652074656D7065726174757265208F
:103900006E6F7420706C61757369626C652E0A004D
:103910003F5370656369666965642066696C616DB3
:10392000656E742073697A65206E6F7420706C61A7
:10393000757369626C652E0A003F53706563696632
:10394000696564207072696D65206C656E67746866
:10395000206E6F7420706C61757369626C652E0ADD
:10396000003F537065636966696564206E6F7A7A9B
:103970006C652073697A65206E6F7420706C617558
:103980007369626C652E0A003F52657472616374DC
:10399000696F6E204D756C7469706C696572206D0D
:1039A0007573742062652073706563696669656408
:1039B0002E0A003F5370656369666965642052652D
:1039C0007472616374696F6E204D756C7469706C8C
:1039D000696572206E6F7420706C61757369626CBA
:1039E000652E0A003F537065636966696564206CE3
:1039F0006179657220686569676874206E6F7420EC
:103A0000706C61757369626C652E0A0043292E0A19
:103A1000003F537065636966696564206265642070
:103A200074656D7065726174757265206E6F742057
:103A3000706C61757369626C65202834302D0047A5
:103A40003236207374617274696E672E2E2E0A00EE
:103A5000426564204C6576656C696E67200046613E
:103A6000696C656420746F20656E61626C652042CC
:103A70006564204C6576656C696E670A00496E76F0
:103A8000616C6964206D6573682E0A0076616C69EB
:103A9000640A53746F7261676520736C6F743A20A7
:103AA000004D65736820697320003F496E76616C34
:103AB00069642073746F7261676520736C6F742E14
:103AC0000A00202063757272656E745F706F73698F
:103AD00074696F6E3D0050726F62653A3A646F5F51
:103AE0007A5F726169736528006465706C6F793AFA
:103AF0002000203A2050726F62653A3A7365745F15
:103B00006465706C6F7965640A0050726F62653A23
:103B10003A70726F62655F646F776E5F746F5F7A21
:103B20000053657474696E67732053746F726564B3
:103B3000002062797465733B2063726320005365D3
:103B40007474696E67732053746F72656420280003
:103B50004E6F20454550524F4D2E0A00454550525C
:103B60004F4D206461746173697A65206572726F6C
:103B7000722E0A003F4D65736820746F6F20626972
:103B80006720666F7220454550524F4D2E0A0055F2
:103B9000424C2072657365740A00206C6F61646525
:103BA000642066726F6D2073746F726167652E0A90
:103BB000004D65736820003F43616E277420656E79
:103BC00061626C65200020696E697469616C697A54
:103BD00065642E0A0A002073746F72656420736531
:103BE0007474696E67732072657472696576656452
:103BF000202800202863616C63756C6174656429FA
:103C0000210A0020213D2000454550524F4D2043C0
:103C10005243206D69736D61746368202D20287391
:103C2000746F726564292000496E6465783A2000DB
:103C300044494749504F5453204C6F616465640AAE
:103C40000044494749504F5453204C6F6164696E9A
:103C5000670A00204D61726C696E3D563832290A40
:103C600000454550524F4D2076657273696F6E2046
:103C70006D69736D617463682028454550524F4DDE
:103C80003D00496E76616C69642065787472756474
:103C900065720A0020573A004163746976652045D1
:103CA000787472756465723A20007C3C3E5E2B3DF0
:103CB0003F2F5B5D3B2C2A225C0070012C019001A0
:103CC0002701B0012201C0011D01F00118011002FD
:103CD000130130020E016002090190020401C002CA
:103CE000FF000003FA004003F5008003F000D0035A
:103CF000EB002004E6007004E100E004DC00400575
:103D0000D700C005D2004006CD00D006C80080070D
:103D1000C3003008BE00F008B900C009B400B00A02
:103D2000AF00B00BAA00D00CA500000EA000500FF1
:103D30009B00C01096005012910000148C00C0151A
:103D40008700B0178200B0197D00D01B7800001EDC
:103D5000730040206E0090226900F0246400402728
:103D60005F0090295A00E02B5500102E50002030A3
:103D70004B0010324600E033410090353C001037D4
:103D8000370070383200A0392D00B03A2800A03B2F
:103D90002300603C1E00103D1900903D1400103EB1
:103DA0000F00703E0A00C03E0500003F0000403F8B
:103DB000FBFF803FF6FFC03FF1FF20583A006874D8
:103DC0007470733A2F2F6D61726C696E66772E6F07
:103DD00072670020322E302E372E32002020506C99
:103DE000616E6E657242756666657242797465735E
:103DF0003A20002046726565204D656D6F72793AF4
:103E00002000436F6D70696C65643A2046656220DE
:103E1000323320323032310A00204C617374205525
:103E20007064617465643A20323032302D31302D47
:103E30003135207C20417574686F723A20284564C2
:103E40006963736F6E2C20476565657465636820D0
:103E500044656C74612047325350726F290A0032F6
:103E60002E302E372E320A004D61726C696E0020A2
:103E7000536F6674776172652052657365740A00CA
:103E8000205761746368646F672052657365740AB4
:103E9000002042726F776E206F75742052657365D3
:103EA000740A002045787465726E616C20526573E7
:103EB00065740A00506F77657255700A00617574F9
:103EC0006F25632E6700473237004D3130303100A7
:103ED0006572726F722077726974696E6720746F91
:103EE0002066696C650A00446F6E652073617669AF
:103EF0006E672066696C652E0A004D3239002553C5
:103F000020256320256320256320256300656E64DA
:103F100073746F7073206869743A200002205369CB
:103F20007A653A200043616E6E6F74206F70656E23
:103F3000207375626469722000534420496E69746D
:103F4000204661696C0053442063617264206F6B8A
:103F50000A006F70656E526F6F74206661696C65E0
:103F6000640A00766F6C756D652E696E69742066E3
:103F700061696C65640A004E6F205344206361726E
:103F8000640A004D3233202573006F70656E206621
:103F900061696C65642C2046696C653A200046694D
:103FA0006C652073656C65637465640A0046696CB2
:103FB00065206F70656E65643A2000454E4420535D
:103FC0005542524F5554494E450A002220706F7396
:103FD000002220706172656E743A2200535542527D
:103FE0004F5554494E452043414C4C2074617267F3
:103FF00065743A220053756263616C6C204F76657C
:1040000072666C6F77004578636565646564206DE2
:10401000617820535542524F5554494E45206465AE
:104020007074683A310A0057726974696E67207457
:104030006F2066696C653A20005344207072696E87
:1040400074696E67206279746520004E6F74205326
:1040500044207072696E74696E670A0066726573D7
:104060006800646F696E67004E6F772000473239D1
:1040700020503420523939392054004732380A4709
:104080003239205031004D657368202569204C6F0E
:1040900061646564004D657368202569205361760D
:1040A0006564004C6F616420426564204D657368EF
:1040B000004D656D6F727920536C6F74004E6F20E8
:1040C00053746F726167650047323920503420584D
:1040D0002573205925732052256900202D2D2D2D63
:1040E0002D00486F6D696E672058595A0047323865
:1040F000004F6666205072696E746572204261637B
:104100006B75700047323920532D31004F75747034
:10411000757420666F72204353560047323920541D
:1041200031004F757470757420666F7220486F731C
:1041300074004732392054300045646974204D655D
:104140007368004D616E75616C6C79204275696CA5
:1041500064204D6573680047323920493939390A7E
:10416000473239205032204220543000372E20531D
:1041700061766520426564204D65736800362E20A7
:1041800046696E652054756E6520416C6C00352E55
:104190002056616C6964617465204D6573680034F4
:1041A0002E2046696E652054756E6520416C6C004A
:1041B000332E2056616C6964617465204D657368A7
:1041C00000322E20536D6172742046696C6C2D692B
:1041D0006E0047323920503320543000312E2042B7
:1041E00075696C6420436F6C64204D65736800646E
:1041F0006F6E650A00496E73756666696369656E00
:104200007420646174610A004578747261706F6C27
:104210006174696E67206D6573682E2E2E00507272
:10422000696E74696E67204F626A65637400255316
:10423000202569002F2F616374696F6E3A006265F3
:1042400067696E00627574746F6E00656E640070ED
:10425000726F6D70745F0073686F7700507572676E
:10426000654D6F726500486F74656E6420746F6F82
:1042700020636F6C640A0053656E64204D313038E2
:1042800020746F20726573756D650A0052656865EC
:10429000617420446F6E6500526568656174696E73
:1042A000672E2E2E00526568656174004865617442
:1042B00065722054696D656F75740053656E642076
:1042C0004D31303820746F2068656174206E6F7ACC
:1042D0007A6C650A004E6F7A7A6C65205061726B59
:1042E00065640070617573656400726573756D65F2
:1042F0006400526573756D696E670000005CC27280
:104300001C2BC2C771F4C1AAAA92C1388EC3C0388F
:104310008EC340ACAA9241C871F441721C2B42007A
:10432000005C425374616E64617264204465766916
:104330006174696F6E3A20004D65616E204D657342
:1043400068204865696768743A200023206F6620FA
:1043500073616D706C65733A20000A4D6573682057
:104360006F6E6C79207061727469616C6C79207009
:104370006F70756C617465642E0A0A0050726F620A
:10438000696E6720506F696E74000A50726F6269BF
:104390006E67206D65736820706F696E74200020F1
:1043A000616E642074616B652061206D6561737559
:1043B00072656D656E742E0A006D6D207468696398
:1043C0006B2E0A00427573696E65737320436172C8
:1043D00064206973200052656D6F76652026204D3C
:1043E000656173757265204265640052656D6F7614
:1043F00065207368696D00506C616365207368693E
:104400006D20756E646572206E6F7A7A6C65004DF2
:1044100065736820506F696E74204D6561737572A5
:1044200065642061743A20000A4D657368206F6EE0
:104430006C79207061727469616C6C7920706F7036
:10444000756C617465642E0A00506C61636520535D
:1044500068696D2026204D656173757265004D6F2A
:1044600076696E6720746F206E657874004D657391
:10447000682045646974696E672053746F70706555
:104480006400446F6E652045646974696E67204DF1
:104490006573680A00446F6E652045646974696ECF
:1044A00067204D6573680046696E652054756E69B6
:1044B0006E67204D6573680028582C5929206F7548
:1044C0007473696465207072696E7461626C6520D2
:1044D0007261646975732E0A004F66667365742095
:1044E0006F7574206F6620626F756E64732E20285E
:1044F0003020746F2031306D6D290A0A00496E76C4
:10450000616C6964206D617020747970652E0A0A8F
:10451000003F43616E27742061637469766174653E
:1045200020616E64206465616374697661746520DE
:104530006174207468652073616D652074696D65B0
:104540002E0A0A00426F7468205820262059206CD9
:104550006F636174696F6E73206D7573742062652B
:10456000207370656369666965642E0A0A003F49B5
:104570006E76616C696420677269642073697A651C
:1045800020284A292073706563696669656420285C
:10459000322D39292E0A0A003F2850296861736597
:1045A0002076616C756520696E76616C696420287F
:1045B000302D36292E0A0A003F2856296572626F6F
:1045C0007365206C6576656C20696D706C617573C0
:1045D00069626C652028302D34292E0A0A003F2894
:1045E0005229657065746974696F6E20636F756EAA
:1045F0007420696E76616C69642028312B292E0A3B
:104600000A00446F696E6720473239000900000ACA
:10461000010008000A01000A090000000A00080061
:104620001B46164611460C4625532025692F256941
:10463000002020443D002020423D004C53462052A3
:104640006573756C747320413D00726F7461746999
:104650006F6E206D61747269783A0A0061667465E4
:104660007220726F746174696F6E203D205B005D13
:104670002020202D2D2D3E20006265666F72652062
:10468000726F746174696F6E203D205B005D0A007B
:1046900062656420706C616E65206E6F726D616C16
:1046A000203D205B00436F756C64206E6F74206347
:1046B0006F6D706C657465204C534621002020207E
:1046C00066696E616C203E3E3E2D2D2D3E20002001
:1046D0002020636F7272656374696F6E3A200029DF
:1046E0002020206D656173757265643A2000292071
:1046F00020206C6F676963616C3A20280054696CF4
:1047000074696E67206D65736820706F696E7420C0
:10471000003F4572726F722070726F62696E67201F
:10472000706F696E742E2041626F7274696E6720BB
:104730006F7065726174696F6E2E0A0025532033A5
:104740002F330054696C74696E67206D657368203F
:1047500028332F33290A00255320322F3300546980
:104760006C74696E67206D6573682028322F332959
:104770000A00436F727265637465645F5A3D00544A
:10478000696C74696E6720506F696E7400255320E0
:10479000312F330054696C74696E67206D657368DE
:1047A0002028312F33290A0020633A0020643A0080
:1047B00020693A0020703A00204D39322054002000
:1047C0004D3932205800285300416476616E63658C
:1047D0002054002028302D313029002076616C755E
:1047E00065206F7574206F662072616E67650020AA
:1047F000496E76616C69642065787472756465725F
:104800002000205A3A0020593A00000022002500DA
:1048100028002B002E0031003400020100000501A9
:1048200008010B0100002100240027002A002D00B0
:104830003000330001010000040107010A010505F1
:104840000505070508080808020202020A0A080806
:104850000404040401010101010101010303030334
:1048600003030303040707070C0C0C0C0C0C0C0CC3
:104870000202020206060606060606060B0B0B0BD4
:104880000B0B0B0B010210202008081020401020F9
:104890004080020102010804020101020408102004
:1048A0004080804020100804020180040201804002
:1048B000201008040201080402010102040810206B
:1048C00040800102040810204080204B00486F7493
:1048D000656E64206F6666736574733A00205200DB
:1048E000454550524F4D20496E697469616C697A33
:1048F00065640A004D65736820736176656420699C
:104900006E20736C6F7420003F556E61626C652081
:10491000746F2073617665206D65736820646174BF
:10492000612E0A0020736C6F743D00206D65736802
:1049300065735F656E643D004532454E443D002021
:104940006D65736820736C6F747320617661696C38
:1049500061626C652E0A003F496E76616C69642065
:10496000736C6F742E0A004D657368206C6F616400
:1049700065642066726F6D20736C6F7420003F5504
:104980006E61626C6520746F206C6F6164206D6570
:10499000736820646174612E0A0048617264636FF9
:1049A0006465642044656661756C74205365747435
:1049B000696E6773204C6F616465640A00556E69A7
:1049C0006669656420426564204C6576656C696E35
:1049D00067003B200020204D3630332000546F6F9D
:1049E0006C2D6368616E67696E673A005431204CC4
:1049F000002055005430204C0046696C616D656E96
:104A000074206C6F61642F756E6C6F6164206C65CF
:104A10006E677468733A0020204D3930302054009E
:104A20004C696E65617220416476616E63653A001F
:104A300020204D3835312058005A2D50726F626554
:104A4000204F66667365740020204D33303120504E
:104A5000005049442073657474696E67733A00208E
:104A6000460020204D3134352053004D617465726D
:104A700069616C2068656174757020706172616D28
:104A800065746572733A0020480020204D36363533
:104A9000204C0044656C74612073657474696E67A2
:104AA000733A204C3C646961676F6E616C20726F71
:104AB000643E20523C7261646975733E20483C68D4
:104AC00065696768743E20533C7365676D656E74F5
:104AD0007320706572207365633E2058595A3C7488
:104AE0006F77657220616E676C65207472696D3EC8
:104AF000204142433C726F64207472696D3E002015
:104B0000204D363636205800456E6473746F702021
:104B100061646A7573746D656E743A00206D6573B7
:104B20006865732E0A0A00454550524F4D20636157
:104B30006E20686F6C642000416374697665204D57
:104B400065736820536C6F743A200020204D343216
:104B50003020530020204D32313820540020204D89
:104B6000323035204200416476616E6365643A20DC
:104B7000423C6D696E5F7365676D656E745F7469E5
:104B80006D655F75733E20533C6D696E5F6665654C
:104B900064726174653E20543C6D696E5F7472612D
:104BA00076656C5F66656564726174653E20583C2D
:104BB0006D61785F785F6A65726B3E20593C6D610C
:104BC000785F795F6A65726B3E205A3C6D61785FF1
:104BD0007A5F6A65726B3E20453C6D61785F655F08
:104BE0006A65726B3E0020204D3230342050004107
:104BF0006363656C65726174696F6E2028756E6998
:104C000074732F7332293A20503C7072696E745F4E
:104C1000616363656C3E20523C72657472616374BB
:104C20005F616363656C3E20543C74726176656CB1
:104C30005F616363656C3E0020204D32303120544B
:104C40000020204D3230312058004D6178696D755B
:104C50006D20416363656C65726174696F6E2028B5
:104C6000756E6974732F7332293A0020204D3230EB
:104C70003320540020204D3230332058004D6178CD
:104C8000696D756D20666565647261746573202851
:104C9000756E6974732F73293A00537465707320AD
:104CA00070657220756E69743A0020204D31343978
:104CB0002043203B20556E69747320696E20436544
:104CC0006C736975730A0020286D6D2900202047D8
:104CD0003231202020203B20556E69747320696E8C
:104CE000206D6D0000004843000048430000484329
:104CF0000000C8410000A0420000A0420000A04205
:104D00000000C842B80B0000B80B0000B80B000050
:104D1000102700005072696E742066726F6D204D0E
:104D200065646961002568753A253032687500252B
:104D3000303268753A253032687500486F6D6520ED
:104D400025732573257320466972737400436F6E53
:104D500074696E7565004C6F61642046696C616DA5
:104D6000656E74205400496E736572742066696CB8
:104D7000616D656E7420616E642073656E64204D94
:104D80003130380A003C3C3C00220A00556E6B6E04
:104D90006F776E20636F6D6D616E643A2022000044
:104DA000000A0B02090C0D0E0807030401000000A5
:104DB00000000000000000000000000000000000F3
:104DC00000000000000000000000001211100000B0
:104DD00000000000000000000000000000000000D3
:104DE000000000000000B802B60111241FBECFEF82
:104DF000D1E2DEBFCDBF00E00CBF13E0A0E0B2E027
:104E0000E4E4F3EA03E00BBF02C007900D92AC3874
:104E1000B107D9F72AE1ACE8B3E001C01D92A6368C
:104E2000B207E1F716E2C4EFD6E200E006C0219730
:104E30000109802FFE010F94C9CCC33FD10780E048
:104E40000807A9F70F94BCB40D9490D10C940000FE
:104E50002F923F924F925F926F927F928F929F928A
:104E6000AF92BF92CF92DF92EF92FF920F931F9378
:104E7000CF93DF93CDB7DEB7E0970FB6F894DEBFE0
:104E80000FBECDBF88AB2091521A2DA781E0809331
:104E9000521A8091C70D8D3409F4E4C3843511F49E
:104EA0000C94E238873411F00C941F398091C50DB1
:104EB0009091C60D8C31910509F436C19CF4843073
:104EC000910509F4CDC01CF4029770F1C7C38A3173
:104ED000910509F404C10CF006C1459711F40C9436
:104EE0002139BCC38A32910509F406C36CF48E31B2
:104EF000910509F42CC20CF426C2819709F0AEC3C7
:104F00000E94A6DB0C9421398B35910509F49EC2D1
:104F10008C35910509F49FC28A35910509F09EC32D
:104F200010929A030C94213980911A12813011F059
:104F30000C9421391EE6C12E12E0D12E0EECE02E8B
:104F400002E1F02E10E088E5810F0E94BE4A88231E
:104F5000F1F00E94374A4B015C0180919D0D811157
:104F600016C0812F0F94FA97882359F0F6012081FB
:104F7000318142815381C501B4010F94D2CC4B01E0
:104F80005C01F70180829182A282B3820AC0F6019D
:104F900080819181A281B381F70180839183A28373
:104FA000B3831F5FF4E0CF0ED11C24E0E20EF11CAE
:104FB000133049F685E40E94BE4A882301F10E941D
:104FC000374A6B017C0183E00F94FA97882371F0D4
:104FD00020917A0230917B0240917C0250917D02B7
:104FE000C701B6010F94D2CC6B017C01C092DA12DA
:104FF000D092DB12E092DC12F092DD1210C08091B0
:105000007A0290917B02A0917C02B0917D02809304
:10501000DA129093DB12A093DC12B093DD1240E021
:1050200050E0BA0186E40E94FBCA20E030E0A9010A
:105030000F94EDCE181684F40E94374A20E030E039
:1050400040E752E40F945ACD609355027093560294
:1050500080935702909358020E94A2A90C94213980
:1050600080E50E94BE4A882329F00F94D0986B01F6
:105070007C0103C0C12CD12C760183E50E94BE4A7D
:10508000882361F00E94374A20E030E04AE754E488
:105090000F9434C60F94D3CD6B017C010E9493A56D
:1050A0008091EB05811105C060E083E397E00E94E9
:1050B0000D810F9406B4C60ED71EE81EF91E0F947C
:1050C00006B4DC01CB018C199D09AE09BF09B7FDFF
:1050D00002C00C94213980E00E94673FF0CF0F940A
:1050E00060350C9421390F94F0AF81110C94213963
:1050F00019821A821B821C821D821E821F821886C0
:1051000080E090E0A0EAB1E489879A87AB87BC870A
:1051100060E070E080E50F941398BE016F5F7F4FF1
:105120000E943B7A0C9421394091DE0F45FB4427C5
:1051300040F96DEE70E4CE014C960E9468F38091C8
:10514000DE0F85FFF0C087EF97E00E94C33C8DED36
:1051500097E00E94C33C40912B1950912C1960910B
:105160002D1970912E198BE394E20E94E73E409135
:105170002F195091301960913119709132198FE6C1
:1051800096E30E94E73E40913319509134196091A3
:1051900035197091361982E696E30E94E73EC09079
:1051A0002B19D0902C19E0902D19F0902E1920E099
:1051B00030E0A901C701B6010F94EDCE18161CF41A
:1051C00085ED97E020C020E030E0A901C701B601DD
:1051D0000F94CEC587FF03C08EEC97E014C020E08B
:1051E00030E0A90160912F19709130198091311927
:1051F000909132190F94CEC5882319F085EC97E071
:1052000002C086EB97E00E94C33CC0902F19D0905B
:105210003019E0903119F090321920E030E0A90106
:10522000C701B6010F94EDCE18161CF480EB97E081
:105230001DC020E030E0A901C701B6010F94CEC522
:1052400087FF03C089EA97E011C020E030E0A901A0
:1052500060912B1970912C1980912D1990912E1914
:105260000F94CEC5882321F081EA97E00E94C33CC9
:105270008DE997E00E94C33CC0903319D090341957
:10528000E0903519F090361920E030E0A901C7010F
:10529000B6010F94CEC587FD0CC020E030E0A90117
:1052A000C701B6010F94EDCE181634F486E697E0E8
:1052B00005C086E797E002C08CE697E00E94C33CF9
:1052C00083E997E00E94C33C8CE797E00E94C33CCF
:1052D00080913310882301F18AE597E00E94C33C56
:1052E00089E497E00E94C33C62E772E08EE692E0B8
:1052F0000E94F24569837A838B839C836BE2CE01A3
:1053000001960E949B778C01F80181918F0188237F
:1053100039F00E94B13CF8CF8CE397E00E94C33C87
:105320008AE00E94B13C8091FE128770873011F0B4
:105330000C94373960E08FE40F94E03381110C94C2
:105340002A390C9437390E94B64F0C942139209198
:105350002B1930912C1940912D1950912E196091D3
:105360006E0270916F0280917002909171020F94A1
:10537000D2CCAB01BC0188E50E94FBCA69837A8369
:105380008B839C8320912F193091301940913119D2
:10539000509132196091720270917302809174027F
:1053A000909175020F94D2CCAB01BC0189E50E94AB
:1053B000FBCA6D837E838F839887BE016B5F7F4FAF
:1053C000CE0101960E942E4B882311F40C942139B2
:1053D00080E00E94C24E0E94E7AB84E690E090938A
:1053E0001E0280931D0261E085E40F94E03301E02A
:1053F00021E041E0682FCE0101960E94EE566B013C
:105400007C019B01AC010F94CECF811119C0498161
:105410005A816B817C8181E398E00E94E73E4D8157
:105420005E816F8178858CE298E00E94E73EB7014B
:10543000A60187E298E00E94E73E8AE00E94B13C24
:105440000E94CEAB0E94ADB00C9421398FE08093C6
:105450009A030C942139A9E3CA2EA3E0DA2EBEE602
:10546000EB2EB2E0FB2E00E0312C10E0F601819132
:105470006F010E94BE4A882351F10E94374A4B01B6
:105480005C01F70120813181428153810F94D1CC9D
:105490002B013C012DEB37E346E855EB0F94EDCEA5
:1054A00087FD0AC02DEB37E346E855E3C301B2019F
:1054B0000F94CEC518165CF4133011F401E002C04D
:1054C00033243394F70180829182A282B3821F5FDA
:1054D000F4E0EF0EF11C143049F6332019F00E946D
:1054E0009FB006C0002321F08AE792E00E9496C791
:1054F0000E94ADB00C94213980911A12813011F0C4
:105500000C94213989E40E94BE4A082F882321F097
:105510000E94334AE82E01C0E12C8AE40E94BE4A70
:10552000182F882321F00E94334AF82E01C0F12C55
:10553000002319F029E02E1528F0112349F039E055
:105540003F1530F489E398E00E94C33C0C94213964
:1055500080E1EEE6F2E0AEECB2E101900D928A95C8
:10556000E1F7002359F08E2D0E94544F6093CE1224
:105570007093CF128093D0129093D112112359F0CF
:105580008F2D0E94544F6093D2127093D312809348
:10559000D4129093D51260E080E50F94E033882315
:1055A000C1F10023D1F020912B1930912C19409199
:1055B0002D1950912E196091CE127091CF128091B9
:1055C000D0129091D1120F94D1CC6093CE127093DF
:1055D000CF128093D0129093D1121123D1F0209149
:1055E0002F19309130194091311950913219609131
:1055F000D2127091D3128091D4129091D5120F943F
:10560000D1CC6093D2127093D3128093D412909322
:10561000D51240E050E0BA0186E40E94FBCA6B015B
:105620007C0120E030E0A9010F94EDCE18164CF477
:1056300020E030E040E752E4C701B6010F945ACDB4
:1056400003C060E070E0CB0169837A838B839C8325
:10565000CE0101960F9421310C9421390F945EAE46
:105660000C9421398091C50D9091C60D8D3791050F
:1056700009F49AC60CF0FEC08135910509F4B9C64B
:105680000CF07BC08A31910509F409C3BCF5843163
:10569000910509F47AC27CF48131910509F461C263
:1056A0002CF4029708F40FC20C94DF38429709F4E7
:1056B000C4C60C94DF388731910509F49BC294F479
:1056C0008531910509F492C2469711F00C94DF38A8
:1056D0000F94CB5B80913117877F80628093311765
:1056E0000C9421398831910509F49DC2499711F034
:1056F0000C94DF380F94CC9F0C94213980329105A3
:1057000009F495C3F4F48D31910509F428C384F4A8
:105710008B31910509F4D1C24C9711F00C94DF380C
:105720008091C30D9091C40D0F9461610C94213947
:105730008E31910509F41AC34F9709F4BBC30C9439
:10574000DF388C34910509F495C46CF489349105E3
:1057500009F45EC48B34910511F00C94DF380E947B
:105760004B3C0C9421398D34910509F487C4803564
:10577000910509F41CC60C94DF388D36910509F4A7
:10578000A9C47CF58C35910509F4B0C684F4833541
:10579000910509F44BC60CF442C68435910509F411
:1057A0004CC68535910509F47EC60C94DF388A36DF
:1057B000910509F4CDC454F48836910509F462C406
:1057C0008936910509F4B0C40C94DF388B36910505
:1057D00009F400C58C36910511F40C9421390C9410
:1057E000DF388337910509F42BC7ECF48037910536
:1057F00011F40C94213954F48E36910509F4F5C452
:105800008F36910509F404C50C94DF388137910572
:1058100009F443C58237910511F00C94DF380E94DA
:10582000A5D30C9421398737910509F4D0C78CF49E
:105830008537910509F486C78637910511F00C94D8
:10584000DF380091C30D1091C40D94E0F12C40E0BD
:10585000A2C78837910509F4BDC78937910511F0B2
:105860000C94DF381092501010924F100E94CF729B
:105870000C942139843AE1E09E0711F40C947C36B3
:105880000CF08BC08A3D910511F40C945D35CCF57C
:10589000893C910511F40C946634ACF4813991057E
:1058A00009F4A0C734F48C38910509F418C50C9498
:1058B000DF388B39910509F451C58E3B910509F408
:1058C0002DC50C94DF388D3C910511F40C94C73430
:1058D00064F48B3C910511F40C9495348C3C910547
:1058E00011F40C94BD340C94DF38833D910511F410
:1058F0000C94D734893D910511F40C944A350C94DD
:10590000DF388E3221E0920711F40C942B3614F517
:105910008232E1E09E0711F40C94D13564F48C3DA1
:10592000910511F40C9460358D3D910511F40C94A2
:1059300087350C94DF388C3221E0920711F40C94F7
:1059400016368D32914011F00C94DF380F943D9B48
:105950000C9421398139E1E09E0711F40C947236E0
:105960007CF48F3221E0920711F40C946F36803969
:10597000914011F00C94DF380E9493A50C942139CA
:105980008239E1E09E0711F40C9477368A39914010
:1059900011F40C9421390C94DF38893922E09207F4
:1059A00011F40C9429380CF045C0863FE1E09E07C5
:1059B00011F40C948437ECF4863E21E0920711F444
:1059C0000C9415373CF4853A914011F40C947F36D1
:1059D0000C94DF38843FF1E09F0711F40C94813779
:1059E000853F914011F00C94DF380F941DAA0C9460
:1059F00021398C3032E0930711F40C94A1376CF408
:105A0000873FF1E09F0711F40C948737883F91405E
:105A100011F40C9490370C94DF38883532E09307FA
:105A200011F40C94AE378B35924011F40C94B137CD
:105A30000C94DF388335F3E09F0711F40C94AE38F3
:105A400004F58E3B32E0930711F40C9473387CF428
:105A50008A39F2E09F0711F40C942C388D3B924068
:105A600011F00C94DF380F94469D0C9421399C0161
:105A70002A5233402A30310510F40C9476380C94B5
:105A8000DF38803A33E0930709F406C27CF48C36A1
:105A9000F3E09F0711F40C9421398438934011F0FE
:105AA0000C94DF380F9478990C942139873E33E0B9
:105AB000930711F40C94B138893E934011F40C947F
:105AC000BF380C94DF3880E50E94BE4A882329F055
:105AD0000F94D0986B017C0103C0C12CD12C7601AE
