:100000000C9437230C9468230C9468230C94682375
:100010000C9468230C9468230C9468230C94682334
:100020000C9468230C9468230C9468230C94682324
:100030000C9468230D940A300C9468230C94682364
:100040000C9468230D944A6C0C9468230C946823D8
:100050000C9468230C9468230D9430420D941299EB
:100060000C9468230C9421530C9417530C9468231C
:100070000C9468230C9468230C9468230C946823D4
:100080000C9468230C9468230C9468230C946823C4
:100090000C9468230C9468230C9468230C946823B4
:1000A0000C9468230C9468230C9468230C946823A4
:1000B0000C9468230C9468230C9468230C94682394
:1000C0000C9468230C9468230C9468230C94682384
:1000D0000C9468230C9468230C9468230C94682374
:1000E0000C946823C946D0468347404896499F49A7
:1000F000AF49575369537B538C539453C753985309
:10010000C7539C53A053C753A453A853AC53B553E0
:10011000C753C0536A674D6750676D67536756672B
:10012000596765675C6778675F676267E401280203
:100130003A02CA011A02D2029202C202500212020A
:100140006602B802BA0248021E0162023601EC01E0
:10015000D4021601D801CC02480244028C02580194
:1001600005A84CCDB2D44EB93836A9020C50B9917D
:100170008688083CA6AAAA2ABE000000803F076322
:100180004236B79BD8A71A39685618AEBAAB558C09
:100190001D3CB7CC5763BD6DEDFD753EF617723152
:1001A000BF000000803F08000000BE922449123EBC
:1001B000ABAAAA2ABECDCCCC4C3E00000080BEAB80
:1001C000AAAAAA3E00000000BF000000803F000075
:1001D000000000084178D3BB4387D1133D190E3C82
:1001E000C3BD4282AD2B3E68EC8276BED98FE1A9B9
:1001F0003E4C80EFFFBE01C4FF7F3F0000000000C7
:100200000D949F650C9469530C94AF490C94F3675B
:100210000C9447620C94CEB70C9453670C94A7F6D9
:100220000C943F620C94A6560D9496610D946198BF
:100230000D9494670C9459670C94FFB70D944998EA
:100240000C945F620D94583C0C9483470D947E3E51
:100250000C945B620D948A670D9497670C94C0644C
:100260000C94647A0C9450670D941C5F0D94539811
:100270000D94CF5D0D94B4300C9407550D94752FEB
:100280000C9453620C94DEBC0C94BD7A0D94756989
:100290000C9487550D94A8650D94AD5E0C94925AFC
:1002A0000D94CF390C94D9540C94F2B50C94E256B9
:1002B0000D9477980C946F560C946D670C9498532A
:1002C0000C945A7A0D94AE650C944D670C94795E3B
:1002D0000D947E670D94DEA00C9418B60C945753C1
:1002E0000C94769A0D94C65E0D94A2610D94F35D04
:1002F0000C94A8530C9488560D94C4670C94E8563B
:100300000C94DC560C94B5530C94C0540C94B1620C
:100310000C9414B90C94A4F20C9478670C941EB746
:100320000D94193B0C947B530C94E2F20C949B5764
:100330000C94DA670C9456670C9446550C9416820C
:100340000C9435F20C94A0530C94525A0C94DB5D2F
:100350000C947F5A0C94D6670C94F4540C945878EF
:100360000C943B620C94C9460C940C570C94679700
:100370000D94CD390D9408660C94D9EF0C945F7AE6
:100380000C945C670C94C0530C94DCB80C94D7BAF2
:100390000C94CCB50D949C450D94E3670D94716756
:1003A0000D94AC2F0C949F490D94B5610C94FA6395
:1003B0000D9465980C944C780C94D0460C94086479
:1003C0000C94C1560C940C560D9499440D9490675E
:1003D0000C94BC5D0C94A45D0D9457980C9453BA86
:1003E0000C94F4560C9478550D949F670C94569683
:1003F0000D94D55D0C9496490C94FF630C94087F82
:100400000C9465670C94A4530C948E540C9404F1D2
:100410000C94EC770C941C820D94945E0D94354CE6
:100420000C9406570D9445980C9400570C94B256B2
:100430000D947A3E0D94A1450D94A35D0D948467AF
:100440000C94EE560C944B620C947C540C94F7B9BB
:100450000D9484450C945D5C0C9418BC0C94637DE5
:100460000C94A7540C940D640D949F2F0C94196454
:100470000C944F620D9489450C9427590D945D6A34
:100480000C9490550C9437900D946F980C942E60AA
:100490000D947C980C9457620C94FA560D948F63CB
:1004A0000D9442980C94CFBD0C9492F00C945EB4D1
:1004B0000D948A5D0C94EF670C9479560D94E15D70
:1004C0000C94FFF00D944D980C94C7530D943498F0
:1004D0000C9443BA0C9446780D94F8410D94DB5D6E
:1004E0000D94713E0D9426310C9419820C946A6718
:1004F0000D94C4A00C9403640D94B3300D94DB2FC1
:100500000C947BF70C944E960D946F3E0C94D6563B
:100510000C9433550D94B65D0D9473980C948C53D4
:100520000C946E540D94C0450D94803E0C94CF777E
:100530000C94697A0C94D3BA0C94B35D0C9498AE75
:100540000D947B5E0C94D0560C9443620D947C3ECB
:100550000C941A550D94D1390C949C530C945F55FE
:100560000C94066E0C94F98F0C9418900C94AC5368
:100570000D9438980D943C980C9452780C94115F1B
:100580000C9462670D9489440C94DE670C945F6749
:100590000C9409F10D940D5F0D9469980D94C6307B
:1005A0000D94C02F0D94B4450D945B980D9478670D
:1005B0000C9497560D94EF5D0C9494530C945056F4
:1005C0000C9440780C9440484E414E494E49545941
:1005D000494E46CDCCCC3D0AD7233C17B7D138770E
:1005E000CC2B329595E6241FB14F0A000020410024
:1005F00000C84200401C4620BCBE4CCA1B0E5AAE6E
:10060000C59D7400407A10F35A00A0724E1809007C
:1006100010A5D4E80000E87648170000E40B540267
:100620000000CA9A3B000000E1F5050000809698A2
:1006300000000040420F000000A0860100000010F2
:100640002700000000E80300000000640000000034
:10065000000A00000000000100000000002C76D815
:1006600088DC674F0823DFC1DFAE59E1B1B796E5FB
:10067000E3E453C63AE651997696E8E6C28426EB5F
:10068000898C9B62ED407C6FFCEFBC9C9F40F2BA72
:10069000A56FA5F490055A2AF75C936B6CF9676D0A
:1006A000C11BFCE0E40D47FEF520E6B500D0ED905F
:1006B0002E0300943577050080841E080000204E2C
:1006C0000A000000C80C333333330F986E128311C5
:1006D00041EF8D2114893BE65516CFFEE6DB18D19C
:1006E000844B381BF77C1D901DA4BBE4242032846E
:1006F000725E228100C9F124ECA1E53D27434F4DF4
:100700004D554E49434154494F4E0044525952555C
:100710004E004552524F5253004543484F00536CD0
:100720006565702E2E2E00205A3A200020593A205E
:100730000042656420583A20004D65736820706F50
:10074000696E74206F7574206F662072616E6765C4
:100750000A004D302053746F70004D312053746F78
:100760007000436C69636B20746F20526573756D04
:10077000652E2E2E004E6F204D6F76652E00456E35
:10078000642066696C65206C6973740A0042656751
:10079000696E2066696C65206C6973740A004E6F1F
:1007A000206D656469610A00526573756D696E67D5
:1007B00020534400286E6F2066696C6529004375DC
:1007C0007272656E742066696C653A200044656CCF
:1007D0006574696F6E206661696C65642C2046697A
:1007E0006C653A200046696C652064656C657465CB
:1007F000643A0025697920256964202569682025E7
:10080000696D20256973005072696E742074696D7A
:10081000653A20004525632025530044454255474D
:100820003A004D31313320530050533A300A0050D2
:10083000533A310A0044656C7461205072696E74D9
:100840006572204F46462E004348414D4245525F57
:1008500054454D504552415455524500424142592C
:100860005354455050494E470041524353004D4F59
:1008700054494F4E5F4D4F44455300544845524DE7
:10088000414C5F50524F54454354494F4E004C4FDA
:100890004E475F46494C454E414D45004155544FEA
:1008A0005245504F52545F53445F53544154555333
:1008B000005344434152440050524F4D50545F53F3
:1008C0005550504F525400454D455247454E43599F
:1008D0005F50415253455200434153455F4C494795
:1008E00048545F4252494748544E45535300544F71
:1008F00047474C455F4C494748545300534F465473
:10090000574152455F504F574552004255494C445C
:100910005F50455243454E54004C4556454C494E58
:10092000475F44415441005A5F50524F4245004195
:1009300055544F4C4556454C005052494E545F4A11
:100940004F420050524F4752455353004155544F68
:100950005245504F52545F54454D5000564F4C55E0
:100960004D45545249430042494E4152595F464910
:100970004C455F5452414E534645520053455249EF
:10098000414C5F584F4E5F584F4646004649524DC6
:10099000574152455F4E414D453A4D61726C696E0B
:1009A00020322E302E372E322028466562203232F9
:1009B00020323032312031323A33323A3435292044
:1009C000534F555243455F434F44455F55524C3A50
:1009D00068747470733A2F2F6769746875622E6338
:1009E0006F6D2F4D61726C696E4669726D776172C1
:1009F000652F4D61726C696E2050524F544F434FBA
:100A00004C5F56455253494F4E3A312E30204D419E
:100A10004348494E455F545950453A44656C7461AA
:100A2000205072696E746572204558545255444581
:100A3000525F434F554E543A3220555549443A631C
:100A4000656465326132662D343161322D3437345C
:100A5000382D396231322D6335356336326633369F
:100A60003766660A002F2F20004D31343520533C65
:100A7000696E6465783E206F7574206F66207261C0
:100A80006E67652028302D31290A00416363656C4B
:100A900065726174696F6E3A2050005741524E4939
:100AA0004E4721204C6F77205A204A65726B206D8B
:100AB0006179206C65616420746F20756E77616E5A
:100AC000746564207061757365732E0A0020204D73
:100AD00061783A200020204D696E3A2000536F66FD
:100AE0007420656E6473746F70733A200046523AD6
:100AF0000020466C6F773A200020633A0020643A69
:100B00000020693A0020703A006469730043290AA2
:100B10000061626C656420286D696E2074656D707B
:100B20002000436F6C64206578747275646573206F
:100B300061726520004D34323120696E636F7272CC
:100B400065637420706172616D6574657220757380
:100B50006167650A00454550524F4D204F4B0A00D2
:100B60004D6163726F20746F6F206C6F6E672E0A19
:100B7000004D3834204500446F6E65207072696EF8
:100B800074696E672066696C650A004D3737004DE1
:100B900033310019073C0E12070B07FD06204A00EF
:100BA00020204D343231204900202047323920495D
:100BB0003939390A006163746976650A002053790E
:100BC0007374656D2076312E303120002020207C1A
:100BD0000A004E414E0020202E20202000207C00C4
:100BE0004C43443A0A004353563A0A0020666F7257
:100BF00020003A0A0A000A42656420546F706F6749
:100C00007261706879205265706F72740050726FF3
:100C100062696E67204661696C65640A0050726F94
:100C200062696E67204661696C656400446F6E6539
:100C30002E0A003F496E76616C69642073746F728E
:100C400061676520736C6F742E0A3F5573652030A1
:100C500020746F20004732392050322066696E6957
:100C6000736865642E0A005859206F75747369643F
:100C700065207072696E7461626C6520726164696E
:100C800075732E0A003F4572726F7220696E2042A2
:100C90007573696E6573732043617264206D65615D
:100CA000737572656D656E742E0A004D616E7561A7
:100CB0006C6C792070726F62696E6720756E7265F8
:100CC00061636861626C6520706F696E74732E0A6F
:100CD0000050726F62696E672061726F756E64207A
:100CE00028004D65736820696E76616C6964617473
:100CF00065642E2050726F62696E67206D6573683F
:100D00002E0A004D657368207A65726F65642E0A3D
:100D10000044656661756C742073746F72616765F9
:100D200020736C6F7420302073656C656374656428
:100D30002E0A004C6F6164696E6720746573745F7E
:100D40007061747465726E2076616C7565732E0ABD
:100D50000A00496E76616C696420746573745F7013
:100D600061747465726E2076616C75652E20282D15
:100D70003120746F2032290A0A004C6F6361746954
:100D80006F6E7320696E76616C6964617465642E40
:100D90000A0A00456E74697265204D6573682069A2
:100DA0006E76616C6964617465642E0A0A00507223
:100DB0006F7465637465642050696E0A00726F74A5
:100DC0006174696F6E206D61747269783A0A005AB5
:100DD0005F6D6F76655F636F6D700A0044656C745C
:100DE000612043616C6962726174696F6E20696E23
:100DF0002070726F677265737300206D61783A00BE
:100E0000206D696E3A004178697320004163636523
:100E10006C65726174696F6E206C696D697465646C
:100E20002E0A00534C4F5700554E4B4E4F574E20F5
:100E300053544154450047434F44455F494E464F44
:100E4000004C43445F50415553455F524553554D07
:100E5000450046494C414D454E545F52554E4F5505
:100E6000545F434F4E54494E55450046494C414D01
:100E7000454E545F52554E4F5554004D383736202D
:100E8000526573706F6E64696E672050524F4D509B
:100E9000545F004572726F722077726974696E6771
:100EA00020746F20454550524F4D210A004E6F204F
:100EB000436865636B73756D2077697468206C692E
:100EC0006E65206E756D6265722C204C61737420A6
:100ED0004C696E653A2000636865636B73756D20BD
:100EE0006D69736D617463682C204C617374204C60
:100EF000696E653A20004C696E65204E756D6265BD
:100F000072206973206E6F74204C617374204C6979
:100F10006E65204E756D6265722B312C204C6173AD
:100F200074204C696E653A20004D313130005344D5
:100F30002072656164206572726F720A002121203F
:100F40004B494C4C20636175736564206279207451
:100F50006F6F206D75636820696E61637469766573
:100F60002074696D65202D2063757272656E742022
:100F7000636F6D6D616E643A2000627573793A201B
:100F800070617573656420666F7220696E70757428
:100F90000A00627573793A20706175736564206622
:100FA0006F7220757365720A00627573793A2070EA
:100FB000726F63657373696E670A004D656469617A
:100FC0002052656D6F766564004D656469612049E6
:100FD0006E73657274656400506C65617365205250
:100FE00065736574005052494E5445522048414C37
:100FF0005445440025533A20255300706F7765729D
:101000006F6666004B494C4C45442E200050726977
:101010006E7465722068616C7465642E206B696CF7
:101020006C28292063616C6C6564210A0053544F5D
:10103000505045442E20005072696E7465722073C2
:10104000746F707065642064756520746F206572BC
:10105000726F72732E2046697820746865206572FD
:10106000726F7220616E6420757365204D39393955
:1010700020746F20726573746172742E2028546519
:101080006D70657261747572652069732072657325
:1010900065742E20536574206974206166746572CE
:1010A0002072657374617274696E67290A006563E2
:1010B000686F3A004572726F723A002A2053746565
:1010C00070732F6D6D00432053746570732F6D6DB9
:1010D00000422053746570732F6D6D00412053746E
:1010E0006570732F6D6D00496E697400496E697487
:1010F00069616C697A6520454550524F4D005072C8
:101100006F6265204F666673657473004163636543
:101110006C65726174696F6E0056656C6F6369749B
:1011200079004E4F005945530043616E63656C2052
:101130004F626A656374203D005A2052616973658D
:1011400000326E64204E6F7A7A6C65205A00326EDF
:1011500064204E6F7A7A6C65205900326E64204E9E
:101160006F7A7A6C652058004E6F7A7A6C650055FC
:101170006E6C6F61642046696C616D656E74202AC7
:10118000004C6F61642046696C616D656E74202A45
:1011900000554E4C4F41442046494C414D454E541C
:1011A0000046494C414D454E54204348414E474529
:1011B000004D37303220542564004D363030204207
:1011C0003020542564004D373032203B2564004DDB
:1011D0003730312054256400556E6C6F61642046B1
:1011E000696C616D656E74004C6F61642046696C5A
:1011F000616D656E74005072656865617420437539
:1012000073746F6D004D36303020423020542569A4
:10121000004D37303120542569004D37303220548D
:101220002569004D37303200556E6C6F6164204186
:101230006C6C004368616E67652046696C616D6522
:101240006E74202A005075726765206D6F7265009C
:10125000524553554D45204F5054494F4E533A0037
:101260005052494E54205041555345440020204E81
:101270006F7A7A6C653A2000313530004245443A45
:10128000204550434F53203130304B0052756E6132
:101290007761792057617463683A204F4E00453278
:1012A0003A204550434F53203130304B004D617848
:1012B0002054656D7000323735004D696E205465DD
:1012C0006D700045313A204550434F532031303046
:1012D0004B0050535500506F7765722053757070F6
:1012E0006C790050726F746F636F6C00312E300038
:1012F0004261756400323530303030004754323549
:101300003630205265762E412B0045787472756414
:101310006572730044656C7461205072696E746507
:101320007200323032302D31302D31350054686545
:10133000726D6973746F727300426F6172642049D9
:101340006E666F005072696E74657220496E666FCA
:10135000005061726B696E672E2E2E00000057617F
:10136000697420666F720066696C616D656E7420C9
:101370006368616E676500746F20737461727400D6
:101380005761697420666F720066696C616D656E85
:101390007420756E6C6F616400004E6F7A7A6C65B4
:1013A0002068656174696E6700506C6561736520C3
:1013B000776169742E2E2E0000507265737320625F
:1013C0007574746F6E00746F2068656174206E6F41
:1013D0007A7A6C650000496E736572742066696C78
:1013E000616D656E7400616E642070726573732048
:1013F000627574746F6E00746F20636F6E74696EC3
:101400007565005761697420666F720066696C616A
:101410006D656E74206C6F6164000050726573734B
:1014200020427574746F6E00746F20726573756DF1
:1014300065207072696E7400005761697420666F70
:1014400072207072696E7400746F20726573756DAE
:10145000652E2E2E00005761697420666F7200663B
:10146000696C616D656E74207075726765000050FF
:1014700072696E74205061757365640044656C74A4
:1014800061205072696E7465722052656164792EB4
:10149000005072696E74696E672E2E2E0063616E45
:1014A00063656C005072696E742041626F7274657E
:1014B00064004469736D6973730055492041626F1C
:1014C00072746564004D323520500A4D323400523A
:1014D0006573756D650055492050617573650050E1
:1014E000617573696E672E2E2E00726573756D655A
:1014F00000486F6D696E67204661696C6564006FB6
:1015000070656E00545249474745524544007A5F22
:101510006D6178007A5F6D696E00795F6D6178004A
:10152000785F6D6178005265706F7274696E6720C4
:10153000656E6473746F70207374617475730A00E0
:10154000000000000000000000803F434368616E1F
:1015500067652046696C616D656E7400436F6E66E9
:10156000696775726174696F6E0043616E63656C63
:10157000204F626A656374003F0043616E63656C6F
:10158000004368616E6765204D65646961004D3296
:1015900031004175746F73746172740053776974AC
:1015A000636820506F776572204F6E004D383000B1
:1015B00053776974636820506F776572204F666651
:1015C000004D38310041626F7574205072696E743D
:1015D000657200526573756D65205072696E740096
:1015E0004E6F204D656469610054756E65005374DB
:1015F0006F70205072696E74005061757365205071
:1016000072696E74005374617274205072696E74E2
:101610000043616E6E6F7420656E74657220737521
:10162000626469723A2000052E2E004D6F766520A7
:1016300025736D6D004D6F766520302E316D6D0018
:101640004D6F766520316D6D004D6F7665203130C0
:101650006D6D0042656420436F6F6C696E672E2E5E
:101660002E004265642048656174696E672E2E2ED7
:101670000023646566696E652044454641554C54B7
:101680005F004B6420004B6920004B7020005049E4
:1016900044204175746F74756E652066696E697358
:1016A000686564212050757420746865206C6173CE
:1016B00074204B702C204B6920616E64204B642099
:1016C000636F6E7374616E74732066726F6D2062E7
:1016D000656C6F7720696E746F20436F6E66696703
:1016E00075726174696F6E2E680A0050494420411A
:1016F00075746F74756E65206661696C6564212010
:1017000074696D656F75740A000A20436C617373A8
:10171000696320504944200A00204B643A2000208D
:101720004B693A2000204B703A20000A204E6F206F
:101730006F76657273686F6F740A002054753A2073
:1017400000204B753A2000206D61783A2000206D12
:10175000696E3A200020643A200020626961733A81
:101760002000504944204175746F74756E65207374
:10177000746172740A00504944204175746F747525
:101780006E65206661696C6564212054656D7065C5
:1017900072617475726520746F6F20686967680A7A
:1017A00000504944204175746F74756E650050494E
:1017B00044204175746F74756E65206661696C654F
:1017C00064212042616420657874727564657220BA
:1017D0006E756D6265720A007C4D61726C696E7C1B
:1017E000002D2D2D2D2D2D00456E636C6F737572A0
:1017F0006500A10000006900A20000006300B000C5
:1018000000000900C10000004100C20000004100CA
:10181000C30000004100C40000004100C5000000FA
:101820004100C60000004145C70000004300C80059
:1018300000004500C90000004500CD00000049003F
:10184000D10000004E00D50000004F00D60000007F
:101850004F00D70000007800DC0000005500DD00DC
:1018600000005900E00000006100E100000061009C
:10187000E20000006100E30000006100E4000000FD
:101880006100E50000006100E60000006165E7001E
:1018900000006300E80000006500E900000065004A
:1018A000EA0000006500EB0000006500EC000000AD
:1018B0006900ED0000006900EE0000006900EF0023
:1018C00000006900F10000006E00F20000006F00EF
:1018D000F30000006F00F40000006F00F50000004E
:1018E0006F00F60000006F00F80000006F00F900C4
:1018F00000007500FA0000007500FB000000750094
:10190000FC0000007500FD0000007900FF000000F1
:10191000790004010000410005010000610006019A
:10192000000043000701000063000C0100004300B9
:101930000D01000063000E01000044000F010000D3
:1019400064001101000064001901000065001A0123
:10195000000045001B01000065001F01000067003A
:101960003001000049003101000069004101000020
:101970004C00420100006C00430100004E00440195
:1019800000006E00480100006E0058010000520087
:101990005901000072005A01000053005B01000071
:1019A00073005F01000073006001000053006101DB
:1019B000000073006501000074006F0100007500F5
:1019C0007C0100007A007D0100005A007E010000C9
:1019D0007A00920100006600E302000078002220F5
:1019E00000002E001E210000507822210000544DDE
:1019F000902100003C2D922100002D3EB0210000DE
:101A00000300BB21000004003C2200007E004822AD
:101A100000007E3D60220000213D612200003D006B
:101A2000642200003C3D652200003E3DF1230000A1
:101A30000700A03000003D0021F301000200C2F4C5
:101A400001000500A2000000EC00B0000000DF0073
:101A5000E4000000E100F6000000EF00F7000000E5
:101A6000FD00FC000000F500E3020000EB0087032E
:101A70000000A5008F030000F40098030000F200AE
:101A80009E030000E300A3030000F600A90300008A
:101A9000F400AC030000E000AD030000E300B1037C
:101AA0000000E000B2030000E200B5030000E30024
:101AB000B8030000F200BC030000E400BE03000015
:101AC000E300C0030000F700C1030000E600C30309
:101AD0000000E500902100007F00922100007E00C0
:101AE0001A220000E8001E220000F30088250000F2
:101AF000FF0002300000A1000C300000A2000D30F9
:101B00000000A3009B300000DE009C300000DF00DE
:101B1000A03000003D00A1300000A700A23000006E
:101B2000B100A3300000A800A4300000B200A5302E
:101B30000000A900A6300000B300A7300000AA00F2
:101B4000A8300000B400A9300000AB00AA300000AB
:101B5000B500AB300000B600AC300000B6DEAD30F2
:101B60000000B700AE300000B7DEAF300000B800B4
:101B7000B0300000B8DEB1300000B900B230000073
:101B8000B9DEB3300000BA00B4300000BADEB530C0
:101B90000000BB00B6300000BBDEB7300000BC0068
:101BA000B8300000BCDEB9300000BD00BA30000023
:101BB000BDDEBB300000BE00BC300000BEDEBD306C
:101BC0000000BF00BE300000BFDEBF300000C0001C
:101BD000C0300000C0DEC1300000C100C2300000D3
:101BE000C1DEC3300000AF00C4300000C200C53009
:101BF0000000C2DEC6300000C300C7300000C3DEF4
:101C0000C8300000C400C9300000C4DECA30000083
:101C1000C500CB300000C600CC300000C700CD307E
:101C20000000C800CE300000C900CF300000CA005C
:101C3000D0300000CADED1300000CADFD230000050
:101C4000CB00D3300000CBDED4300000CBDFD5306A
:101C50000000CC00D6300000CCDED7300000CCDF56
:101C6000D8300000CD00D9300000CDDEDA300000E1
:101C7000CDDFDB300000CE00DC300000CEDEDD301A
:101C80000000CEDFDE300000CF00DF300000D000EB
:101C9000E0300000D100E1300000D200E23000006E
:101CA000D300E3300000AC00E4300000D400E530A5
:101CB0000000AD00E6300000D500E7300000AE00C7
:101CC000E8300000D600E9300000D700EA3000001C
:101CD000D800EB300000D900EC300000DA00ED3025
:101CE0000000DB00EF300000DC00F2300000A60056
:101CF000F3300000DD00F4300000B3DEF730000008
:101D0000DCDEFA300000A6DEFB300000A500FC306F
:101D10000000B000FD300000A400074E0000FB00F2
:101D200086510000FC0043530000FA0064FF0000ED
:101D3000A40065FF0000A50066FF0000A60067FF85
:101D40000000A70068FF0000A80069FF0000A900CC
:101D50006AFF0000AA006BFF0000AB006CFF0000F0
:101D6000AC006DFF0000AD006EFF0000AE006FFF25
:101D70000000AF0070FF0000B00071FF0000B10074
:101D800072FF0000B20073FF0000B30074FF000098
:101D9000B40075FF0000B50076FF0000B60077FFC5
:101DA0000000B70078FF0000B80079FF0000B9001C
:101DB0007AFF0000BA007BFF0000BB007CFF000040
:101DC000BC007DFF0000BD007EFF0000BE007FFF65
:101DD0000000BF0080FF0000C00081FF0000C100C4
:101DE00082FF0000C20083FF0000C30084FF0000E8
:101DF000C40085FF0000C50086FF0000C60087FF05
:101E00000000C70088FF0000C80089FF0000C9006B
:101E10008AFF0000CA008BFF0000CB008CFF00008F
:101E2000CC008DFF0000CD008EFF0000CE008FFFA4
:101E30000000CF0090FF0000D00091FF0000D10013
:101E400092FF0000D20093FF0000D30094FF000037
:101E5000D40095FF0000D50096FF0000D60097FF44
:101E60000000D70098FF0000D80099FF0000D900BB
:101E70009AFF0000DA009BFF0000DB009CFF0000DF
:101E8000DC009DFF0000DD009EFF0000DE009FFFE4
:101E90000000DF00E5FF00005C00001010101010D3
:101EA0001000001414141414140000151515151541
:101EB0001500001C1F11111F000000061918031344
:101EC0000C00040E1F041C000000000E1315110E60
:101ED00000001C10181705060500040A0A0A0A115A
:101EE000110E0C12120C00000000001F1511151F1E
:101EF000000000000000010204040000001C1C0C93
:101F000004040402010000000000040810000000A6
:101F100000004D6F76696E672E2E2E004C6F616447
:101F2000206D6D00556E6C6F6164206D6D004D33DA
:101F3000303320553120452569205325690050490B
:101F400044204175746F74756E65202A00504944B1
:101F50002D43202A005049442D44202A0050494452
:101F60002D49202A005049442D50202A00200220CB
:101F700046616374002002204D6178002002204DEC
:101F8000696E004175746F74656D70004572723AC8
:101F9000205A50524F4245005A2D50726F626520B0
:101FA0006661696C65640A0021212053544F5020FA
:101FB00063616C6C65642062656361757365206F35
:101FC0006620756E686F6D6564206572726F722031
:101FD0002D20726573746172742077697468204D66
:101FE0003939390A0053657474696E677320537404
:101FF0006F726564002062797465733B206372635D
:10200000200053657474696E67732053746F726532
:10201000642028004E6F20454550524F4D2E0A0037
:10202000454550524F4D206461746173697A652053
:102030006572726F722E0A003F4D65736820746F6F
:102040006F2062696720666F7220454550524F4D80
:102050002E0A0055424C2072657365740A00206C8C
:102060006F616465642066726F6D2073746F726156
:1020700067652E0A004D65736820003F43616E2737
:102080007420656E61626C65200020696E697469F8
:10209000616C697A65642E0A0A002073746F726538
:1020A000642073657474696E6773207265747269F5
:1020B00065766564202800202863616C63756C6117
:1020C00074656429210A0020213D200045455052B5
:1020D0004F4D20435243206D69736D6174636820D6
:1020E0002D202873746F726564292000496E646521
:1020F000783A200044494749504F5453204C6F616F
:102100006465640A0044494749504F5453204C6F5A
:102110006164696E670A00204D61726C696E3D569C
:102120003832290A00454550524F4D20766572736A
:10213000696F6E206D69736D617463682028454511
:1021400050524F4D3D004D6F74696F6E004F757466
:102150007075742055424C20496E666F00473239C5
:1021600020570055424C20546F6F6C73004F7574AC
:10217000707574204D657368204D6170004D6573F6
:10218000682053746F72616765004D657368204500
:102190006469740041637469766174652055424CCA
:1021A0000047323920410044656163746976617487
:1021B000652055424C004732392044002020202021
:1021C000202020006E6F74696669636174696F6EA8
:1021D0002000416476616E6365204B202A004661D1
:1021E0006E205370656564004E6F7A7A6C65207E50
:1021F000004D61696E004261627973746570205AA6
:1022000000466C6F77207E00466C6F77005A205630
:10221000616C7565004732380A4D313930205325DD
:10222000690A4D313039205325690A473239205027
:1022300031004265642054656D7000486F74656EAE
:10224000642054656D700047323920503620432099
:102250002D0048656967687420416D6F756E740064
:1022600041646A757374204D6573682048656967B9
:1022700068740046696E652054756E6520436C6F06
:102280007365737400473239205034205400466916
:102290006E652054756E6520416C6C0047323920A4
:1022A00050342052393939205400473239204A25D8
:1022B00069004C6576656C204D65736800536964F0
:1022C0006520506F696E74730047726964204D65B4
:1022D0007368204C6576656C696E6700332D506FAE
:1022E000696E74204C6576656C696E67004732399B
:1022F000204A3000473239205033205220432E25C7
:1023000069004D616E75616C2046696C6C2D696E5B
:1023100000536D6172742046696C6C2D696E0047C4
:1023200032392050332054300046696C6C2D696E70
:1023300020416D6F756E74000000B4420000B4421D
:1023400000803F430000B4C20000B4C2000000009F
:102350000A0A0A0000704200007042000070420049
:1023600000A0400000A0400000A040000034430056
:1023700000344300803F43010101000000010000E0
:102380000001000080005555550000004000333327
:102390003300AAAA2A004992240000002000C77135
:1023A0001C0099991900D1451700555515003BB1EE
:1023B00013002449120011111100000010000F0F2A
:1023C0000F00E3380E0043790D00CCCC0C00C33075
:1023D0000C00E8A20B0064210B00AAAA0A00703DC1
:1023E0000A009DD80900427B090092240900DCD331
:1023F0000800888808001042080000000800F0C1AA
:1024000007008787070075500700711C07003EEB27
:102410000600A1BC06006990060066660600703ED4
:1024200006006118060017F4050074D105005BB0C2
:102430000500B29005006272050055550500783917
:102440000500B81E0500050505004EEC040087D404
:102450000400A1BD040090A7040049920400C17DBE
:102460000400EE690400C7560400444404005C32D2
:1024700004000821040041100400000004003FF0A3
:102480000300F8E0030026D20300C3C30300CCB569
:1024900003003AA803000A9B0300388E0300C081A2
:1024A00003009F750300D0690300505E03001D53B5
:1024B000030034480300913D030033330300162921
:1024C0000300381F030097150300300C03000303BB
:1024D00003000BFA020049F10200BAE802005CE0D6
:1024E00002002DD802002DD0020059C80200B0C051
:1024F000020031B90200DAB10200AAAA0200A0A3C8
:102500000200BC9C0200FA9502005C8F0200DF888A
:10251000020082820200457C0200277602002770BA
:102520000200436A02007C640200D05E02003F5950
:102530000200C85302005761726E696E673A204804
:102540006F6D696E672042756D702044697669739E
:102550006F72203C20310A0020746F6F206C6F6E08
:102560006720657874727573696F6E207072657616
:10257000656E7465640A0020636F6C64206578740E
:10258000727573696F6E2070726576656E746564BE
:102590000A00FFFDFCFAF8F6F4F2F0EEECEAE9E7E7
:1025A000E5E3E1E0DEDCDAD9D7D5D4D2D0CFCDCBAC
:1025B000CAC8C7C5C3C2C0BFBDBCBAB9B7B6B4B339
:1025C000B2B0AFADACAAA9A8A6A5A4A2A1A09E9D99
:1025D0009C9A99989795949392908F8E8D8B8A89D7
:1025E00088878684838281807F7E7D7B7A797877F5
:1025F000767574737271706F6E6D6C6B6A696867F3
:10260000666564636261605F5E5D5C5B5A595858E1
:102610005756555453525150504F4E4D4C4B4A4AB9
:102620004948474646454443424241403F3E3E3D7D
:102630003C3B3B3A39383837363535343332323132
:1026400030302F2E2E2D2C2B2B2A292928272726D8
:10265000252524232322212120201F1E1E1D1C1C72
:102660001B1B1A19191818171616151514131312FF
:10267000121111100F0F0E0E0D0D0C0C0B0A0A0982
:1026800009080807070606050504040303020201FA
:102690000000496E76616C696420657874727564B7
:1026A00065720A00202F002040002042403A00209E
:1026B000403A0020573A00416374697665204578B6
:1026C0007472756465723A20007C3C3E5E2B3D3F1F
:1026D0002F5B5D3B2C2A225C0041425300504C4151
:1026E00000496E666F2053637265656E004D6573B9
:1026F0006820696E76616C6964617465642E0A0095
:10270000496E76616C696461746520436C6F7365B2
:10271000737400473239204900496E76616C6964F0
:1027200061746520416C6C00436F6E74696E7565F1
:1027300020426564204D657368004732392050316E
:1027400020430046696C6C2D696E204D65736800EE
:102750004275696C6420436F6C64204D657368003A
:102760004732380A473239205031004275696C646B
:1027700020437573746F6D204D6573680047323860
:102780000A4D3139302049310A4D31303920493133
:102790000A4732392050310A4D3130342053300A43
:1027A0004D313430205330004275696C64204D65E2
:1027B000736820282429004732380A4D31393020E7
:1027C00049300A4D3130392049300A4732392050DA
:1027D000310A4D3130342053300A4D3134302053DA
:1027E000300047323920256325690A4D31313720C1
:1027F000004D657368202569204C6F616465640035
:102800004D657368202569205361766564005361C6
:10281000766520426564204D657368004C6F616485
:1028200020426564204D657368004D656D6F727957
:1028300020536C6F74004E6F2053746F7261676524
:1028400000473239205034205825732059257320F1
:1028500052256900202D2D2D2D2D00486F6D696E9C
:10286000672058595A00473238004F666620507228
:10287000696E746572204261636B7570004732390E
:1028800020532D31004F757470757420666F72205F
:1028900043535600473239205431004F75747075D8
:1028A0007420666F7220486F737400473239205469
:1028B000300045646974204D657368004D616E7524
:1028C000616C6C79204275696C64204D6573680099
:1028D00047323920493939390A47323920503220B4
:1028E0004220543000DD26D9267879007A780079A4
:1028F0007A00207A002079002078002E20202020E5
:1029000000456E64204452592D52554E004E6F20A2
:10291000636F6E76657267656E6365004974657294
:102920006174696F6E203A202530326900536176F8
:10293000652077697468204D35303020616E642FD2
:102940006F7220636F707920746F20436F6E6669B9
:102950006775726174696F6E2E680A00253033697D
:102960002E7800302E253033690043616C69627225
:102970006174696F6E2073643A00737464206465D7
:10298000763A00726F6C6C696E67206261636B2EC1
:102990000043616C6962726174696F6E204F4B0015
:1029A000436F72726563742064656C746120736533
:1029B0007474696E67732077697468204D36363594
:1029C00020616E64204D3636360A00202844525964
:1029D0002D52554E2900436865636B696E672E2E34
:1029E0002E204143003F4265642063616C6962723E
:1029F0006174696F6E2072616469757320696D70AE
:102A00006C61757369626C652E0A0047333320412F
:102A100075746F2043616C6962726174650A003F6E
:102A20002856296572626F7365206C6576656C2027
:102A3000696D706C61757369626C652028302D3327
:102A4000292E0A003F2846296F7263652069746544
:102A5000726174696F6E20696D706C617573696203
:102A60006C652028302D3330292E0A003F28432959
:102A7000616C6962726174696F6E207072656369FE
:102A800073696F6E20696D706C61757369626C65D6
:102A900020283E3D30292E0A003F2850296F696EBC
:102AA000747320696D706C61757369626C65202840
:102AB000302D3130292E0A003F454550524F4D20D0
:102AC00073746F72616765206E6F742061766169DF
:102AD0006C61626C652E0A005072696E74696E6773
:102AE000204F626A656374002553202569002F2FEB
:102AF000616374696F6E3A00626567696E00627542
:102B000074746F6E00656E640070726F6D70745FC8
:102B10000073686F770050757267654D6F7265005E
:102B2000486F74656E6420746F6F20636F6C640A05
:102B30000053656E64204D31303820746F2072650B
:102B400073756D650A0052656865617420446F6E27
:102B50006500526568656174696E672E2E2E00529D
:102B60006568656174004865617465722054696DBB
:102B7000656F75740053656E64204D313038207474
:102B80006F2068656174206E6F7A7A6C650A004EFA
:102B90006F7A7A6C65205061726B65640070617544
:102BA00073656400726573756D6564005265737555
:102BB0006D696E6700426564204C6576656C696E70
:102BC0006720004661696C656420746F20656E61E2
:102BD000626C6520426564204C6576656C696E6741
:102BE0000A00496E76616C6964206D6573682E0A0F
:102BF0000076616C69640A53746F72616765207353
:102C00006C6F743A20004D65736820697320003F33
:102C1000496E76616C69642073746F7261676520B8
:102C2000736C6F742E0A0020205261646975733AC8
:102C3000002E4865696768743A000000B2C200005F
:102C400032C200000000000032420000B24224F410
:102C5000D43050C38E20C2A24017828B7011127ADA
:102C6000910D816CD90AA861E108C75866076151C6
:102C700043061E4B5D05C145A7041A411104093DD9
:102C80009803713931034036DB0265339102D43049
:102C90005402802E1D02632CEE01752AC501B02856
:102CA000A001102781018F2564012B244B01E02214
:102CB0003401AC211F018D200D01801FFC00841EFA
:102CC000ED00971DDF00B81CD200E61BC600201BDC
:102CD000BC00641AB200B219A8000A19A0006A1850
:102CE0009900D117910040178B00B516840031165A
:102CF0007E00B31579003A157300C7146F0058149D
:102D00006A00EE1366008813630025135E00C71285
:102D10005B006C12570015125400C1115100701164
:102D20004F0021114B00D61049008D10470046106E
:102D3000440002104200C00F4000800F3E00420FCE
:102D40003C00060F3B00CB0E3800930E37005C0EA4
:102D50003500270E3400F30D3200C10D3100900D07
:102D60003000600D2E00320D2D00050D2C00D90C09
:102D70002B00AE0C2900850C29005C0C2700350CBB
:102D800027000E0C2600E80B2400C40B2400A00B27
:102D900023007D0B23005A0B2100390B2100180B57
:102DA0002000F80A1F00D90A1E00BB0A1E009D0A57
:102DB0001D00800A1D00630A1C00470A1B002C0A24
:102DC0001B00110A1A00F7091A00DD091900C409CD
:102DD0001900AB091900920917007B091800630953
:102DE00017004C09160036091600200916000A09BA
:102DF0001500F5081500E0081400CC081400B80808
:102E00001400A4081400900813007D0812006B0839
:102E10001300580812004608120034081100230855
:102E200011001208110001081100F0071000E0075E
:102E30001000D0071000C0071000B0070F00A10756
:102E4000100091070E0083070F0074070F0065073D
:102E50000E0057070E0049070E003B070D002E0716
:102E60000E0020070D0013070D0006070D00F906E0
:102E70000C00ED060D00E0060C00D4060C00C806A0
:102E80000C00BC060C00B0060C00A4060B00990652
:102E90000C008D060B0082060B0077060B006C06FB
:102EA0000B0061060A0057060B004C060A0042069A
:102EB0000A0038060A002E060A0024060A001A062E
:102EC0000A001006090007060A00FD050900F405BE
:102ED0000900EB050900E2050900D9050900D00544
:102EE0000900C7050900BE050900B5050800AD05C4
:102EF0000800A50509009C050800940508008C053C
:102F00000800840508007C050800740508006C05AD
:102F10000700650508005D050700560508004E0519
:102F20000700470507004005080038050700310580
:102F300007002A050700230507001C0506001605E3
:102F400007000F0507000805060002050700FB043F
:102F50000600F5040700EE040600E8040600E2049B
:102F60000700DB040600D5040600CF040600C904F0
:102F70000600C3040600BD040600B7040600B10441
:102F80000500AC040600A6040600A00405009B048E
:102F9000060095040500900406008A0405008504D7
:102FA0000500800406007A0405007504050070041D
:102FB00005006B04050066040500610405005C045F
:102FC000050057040500520405004D04050048049F
:102FD0000500430405003E0404003A0405003504DE
:102FE0000500300404002C04050027040400230419
:102FF00005001E0404001A04040016040500110450
:1030000004000D0404000904050004040400000485
:103010000400FC030400F8030400F4030400F003BC
:103020000400EC030400E8030400E4030400E003EC
:103030000400DC030400D8030400D4030400D0031C
:103040000400CC030400C8030300C503030024F4F8
:1030500004D9201BC40C5C0E9804C4095F026507E8
:103060007101F405F900FB04B30048048700C103B3
:1030700069005803550003034500BE023A0084026C
:10308000310053022A002902250004022000E40135
:103090001C00C8011900AF01170098011400840139
:1030A0001300710110006101100051010E00430175
:1030B0000D0036010B002B010B0020010B00150148
:1030C00009000C01090003010800FB000800F300DF
:1030D0000800EB000700E4000600DE000600D80050
:1030E0000600D2000600CC000500C7000500C200A3
:1030F0000500BD000400B9000400B5000400B100E3
:103100000400AD000400A9000400A5000300A20013
:1031100003009F0004009B0003009800030095003B
:10312000020093000300900003008D0002008B005A
:103130000300880002008600020084000300810072
:1031400002007F0002007D0002007B000200790087
:103150000200770001007600020074000200720095
:103160000100710002006F0002006D0001006C00A0
:1031700002006A00010069000200670001006600A9
:1031800001006500010064000200620001006100AE
:103190000100600001005F0002005D0001005C00B2
:1031A00001005B0001005A000100590001005800B5
:1031B00001005700010056000100550001005400B5
:1031C00001005300000053000100520001005100B3
:1031D0000100500001004F0001004E0000004E00B1
:1031E00001004D0001004C0001004B0000004B00AD
:1031F00001004A00010049000100480000004800A9
:1032000001004700010046000000460001004500A3
:10321000000045000100440001004300000043009D
:103220000100420000004200010041000000410096
:103230000100400001003F0000003F0001003E008F
:1032400000003E0001003D0000003D0001003C0088
:1032500000003C0000003C0001003B0000003B007F
:1032600001003A0000003A00010039000000390076
:10327000010038000000380000003800010037006D
:103280000000370001003600000036000000360064
:103290000100350000003500000035000100340059
:1032A000000034000000340001003300000033004F
:1032B0000000330001003200000032000000320044
:1032C0000100310000003100000031000100300039
:1032D000000030000000300001002F0000002F002F
:1032E00000002F0000002F0001002E0000002E0023
:1032F00000002E0001002D0000002D0000002D0018
:1033000000002D0001002C0000002C0000002C000B
:1033100000002C0001002B0000002B0000002B00FF
:1033200000002B0001002A0000002A0000002A00F3
:1033300000002A00010029000000290000002900E7
:1033400000002900000029000100280000002800DA
:1033500000002800000028000000280001002700CD
:1033600000002700000027000000270000002700C1
:1033700001002600000026000000260000002600B4
:1033800000002600010025000000250000002500A7
:103390000000250000002500000025000100240099
:1033A000000024000000240000002400000024008D
:1033B0000100230000002300000023000000230080
:1033C0000000230000002300000023000100220071
:1033D0000000220000002200000022000000220065
:1033E0000000220001002100000021000000210057
:1033F0000000210000002100000021000000210049
:10340000010020000000200000002000000020003B
:10341000000020000000200000002000000020002C
:1034200001001F0000001F0000001F0000001F001F
:1034300000001F0000001F0000001F0001001E0010
:1034400000001E0000001E0000001E000000232CD3
:103450000000B8220000561800003A0F0000B8081B
:103460000000B1040000710200003E01000020587D
:103470003A0068747470733A2F2F6D61726C696EC4
:1034800066772E6F72670020322E302E372E320074
:103490002020506C616E6E65724275666665724280
:1034A000797465733A20002046726565204D656D1C
:1034B0006F72793A2000436F6D70696C65643A20D1
:1034C00046656220323220323032310A00204C61AF
:1034D000737420557064617465643A203230323000
:1034E0002D31302D3135207C20417574686F723A52
:1034F000202845646963736F6E2C20476565657489
:103500006563682044656C74612047325350726F64
:10351000290A00322E302E372E320A004D61726C8D
:10352000696E0020536F667477617265205265730F
:1035300065740A00205761746368646F6720526580
:103540007365740A002042726F776E206F75742065
:1035500052657365740A002045787465726E616CFB
:103560002052657365740A00506F77657255700A52
:10357000006175746F25632E6700473237004D3147
:10358000303031006572726F722077726974696EC3
:103590006720746F2066696C650A00446F6E652051
:1035A000736176696E672066696C652E0A004D321C
:1035B00039002553202563202563202563202563BA
:1035C00000656E6473746F7073206869743A2000CC
:1035D0000270012C0190012701B0012201C0011DE0
:1035E00001F00118011002130130020E01600209FE
:1035F0000190020401C002FF000003FA004003F53D
:10360000008003F000D003EB002004E6007004E12A
:1036100000E004DC004005D700C005D2004006CD24
:1036200000D006C8008007C3003008BE00F008B90B
:1036300000C009B400B00AAF00B00BAA00D00CA5BE
:1036400000000EA000500F9B00C010960050129179
:103650000000148C00C0158700B0178200B0197DDF
:1036600000D01B7800001E730040206E009022697D
:1036700000F024640040275F0090295A00E02B5599
:1036800000102E500020304B0010324600E0334135
:103690000090353C001037370070383200A0392DCB
:1036A00000B03A2800A03B2300603C1E00103D19EA
:1036B00000903D1400103E0F00703E0A00C03E0511
:1036C00000003F0000403FFBFF803FF6FFC03FF19E
:1036D000FF2053697A653A200043616E6E6F742053
:1036E0006F70656E207375626469722000534420A8
:1036F000496E6974204661696C00534420636172AD
:1037000064206F6B0A006F70656E526F6F74206675
:1037100061696C65640A00766F6C756D652E696E03
:103720006974206661696C65640A004E6F205344B9
:1037300020636172640A004D3233202573006F707C
:10374000656E206661696C65642C2046696C653A1B
:10375000200046696C652073656C65637465640A56
:103760000046696C65206F70656E65643A2000459F
:103770004E4420535542524F5554494E450A00225B
:1037800020706F73002220706172656E743A22009F
:10379000535542524F5554494E452043414C4C20BD
:1037A0007461726765743A220053756263616C6C70
:1037B000204F766572666C6F770045786365656447
:1037C0006564206D617820535542524F5554494EDF
:1037D000452064657074683A310A005772697469EB
:1037E0006E6720746F2066696C653A200053442030
:1037F0007072696E74696E67206279746520004E1C
:103800006F74205344207072696E74696E670A0089
:10381000667265736800646F696E67004E6F77202B
:10382000005654726176204D696E00566D696E00C7
:10383000566D6178202A00566D6178204500566DDE
:103840006178204300566D6178204200566D6178A2
:10385000204100416D6178202A00416D617820454A
:1038600000416D6178204300416D61782042004144
:103870006D6178204100412D54726176656C004184
:103880002D5265747261637400416363656C005608
:10389000652D4A65726B0056432D4A65726B005662
:1038A000422D4A65726B0056412D4A65726B00507D
:1038B000726F62652059204F66667365740050729E
:1038C0006F62652058204F66667365740020433A26
:1038D0000020423A0020436F756E7420413A004543
:1038E0003200453100626564002C20737973746581
:1038F0006D2073746F707065642120486561746514
:10390000725F49443A200048656174696E672046D9
:1039100061696C65640048656174696E6720666101
:10392000696C6564004D3131322053687574646F81
:10393000776E00544845524D414C2052554E4157E8
:10394000415900546865726D616C2052756E6177E3
:103950006179004572723A204D415854454D5000EE
:103960004D415854454D50207472696767657265C2
:1039700064004572723A204D494E54454D50004DF9
:10398000494E54454D50207472696767657265648D
:10399000005374616E646172642044657669617479
:1039A000696F6E3A20004D65616E204D6573682029
:1039B0004865696768743A200023206F6620736148
:1039C0006D706C65733A20000A4D657368206F6EE8
:1039D0006C79207061727469616C6C7920706F70A1
:1039E000756C617465642E0A0A0050726F62696EAC
:1039F0006720506F696E74000A50726F62696E675B
:103A0000206D65736820706F696E74200020616E90
:103A1000642074616B652061206D656173757265EA
:103A20006D656E742E0A006D6D20746869636B2E6F
:103A30000A00427573696E65737320436172642076
:103A40006973200052656D6F76652026204D656193
:103A500073757265204265640052656D6F766520EE
:103A60007368696D00506C616365207368696D20CF
:103A7000756E646572206E6F7A7A6C65004D657341
:103A80006820506F696E74204D656173757265644E
:103A90002061743A20000A4D657368206F6E6C795E
:103AA000207061727469616C6C7920706F70756CD4
:103AB000617465642E0A00506C6163652053686907
:103AC0006D2026204D656173757265004D6F7669B6
:103AD0006E6720746F206E657874004D6573682082
:103AE00045646974696E672053746F707065640013
:103AF000446F6E652045646974696E67204D657317
:103B0000680A00446F6E652045646974696E6720B9
:103B10004D6573680046696E652054756E696E6701
:103B2000204D6573680028582C5929206F757473CF
:103B3000696465207072696E7461626C652072617F
:103B4000646975732E0A004F6666736574206F751D
:103B500074206F6620626F756E64732E202830208B
:103B6000746F2031306D6D290A0A00496E76616CE0
:103B70006964206D617020747970652E0A0A003FB7
:103B800043616E2774206163746976617465206196
:103B90006E64206465616374697661746520617424
:103BA000207468652073616D652074696D652E0AE7
:103BB0000A00426F7468205820262059206C6F63D9
:103BC0006174696F6E73206D757374206265207304
:103BD00070656369666965642E0A0A003F496E76FE
:103BE000616C696420677269642073697A65202852
:103BF0004A29207370656369666965642028322DDF
:103C000039292E0A0A003F285029686173652076F9
:103C1000616C756520696E76616C69642028302D51
:103C200036292E0A0A003F2856296572626F73658D
:103C3000206C6576656C20696D706C617573696266
:103C40006C652028302D34292E0A0A003F2852297D
:103C5000657065746974696F6E20636F756E74202A
:103C6000696E76616C69642028312B292E0A0A005E
:103C7000446F696E67204732390050726F62652069
:103C80005A204F666673657400416476616E6365A1
:103C9000642053657474696E677300547A005479B4
:103CA00000547800457A004579004578004C6F61F2
:103CB000642053657474696E677300526573746F22
:103CC00072652044656661756C74730053746F721D
:103CD000652053657474696E67730050726568651A
:103CE0006174202420436F6E6600546F6F6C204314
:103CF00068616E676500546F6F6C204F6666736510
:103D000074730044656C74612043616C6962726114
:103D100074696F6E004469616720526F640052617C
:103D2000646975730043616C696272617465205ADD
:103D30000043616C69627261746520590043616C73
:103D400069627261746520580044656C7461205327
:103D5000657474696E67730043616C696272617443
:103D6000652043656E746572004175746F20436110
:103D70006C6962726174696F6E004733330042612F
:103D8000636B004175746F20486F6D650054656DFD
:103D900070657261747572650050726568656174F2
:103DA000202400486F74656E6420746F6F20636F09
:103DB0006C640050726F6365656400457874727559
:103DC000646572202A004578747275646572004DCE
:103DD0006F7665205A0046726565205859004D6F10
:103DE00076652059004D6F7665205800536F6674D4
:103DF00020456E6473746F70730044697361626C04
:103E000065205374657070657273004D3834004DD1
:103E10006F766520417869730050726568656174DA
:103E2000202420416C6C0050726568656174202408
:103E300020456E64207E00507265686561742024A0
:103E40002042656400507265686561742024207E9C
:103E500000436F6F6C646F776E00204B00486F7487
:103E6000656E64206F6666736574733A0020520055
:103E7000454550524F4D20496E697469616C697AAD
:103E800065640A004D657368207361766564206916
:103E90006E20736C6F7420003F556E61626C6520FC
:103EA000746F2073617665206D657368206461743A
:103EB000612E0A0020736C6F743D00206D6573687D
:103EC00065735F656E643D004532454E443D00209C
:103ED0006D65736820736C6F747320617661696CB3
:103EE00061626C652E0A003F496E76616C696420E0
:103EF000736C6F742E0A004D657368206C6F61647B
:103F000065642066726F6D20736C6F7420003F557E
:103F10006E61626C6520746F206C6F6164206D65EA
:103F2000736820646174612E0A0048617264636F73
:103F30006465642044656661756C742053657474AF
:103F4000696E6773204C6F616465640A00556E6921
:103F50006669656420426564204C6576656C696EAF
:103F600067003B200020204D3630332000546F6F17
:103F70006C2D6368616E67696E673A005431204C3E
:103F8000002055005430204C0046696C616D656E10
:103F900074206C6F61642F756E6C6F6164206C654A
:103FA0006E677468733A0020204D39303020540019
:103FB0004C696E65617220416476616E63653A009A
:103FC00020204D3835312058005A2D50726F6265CF
:103FD000204F66667365740020204D3330312050C9
:103FE000005049442073657474696E67733A002009
:103FF000460020204D3134352053004D61746572E8
:1040000069616C2068656174757020706172616DA2
:1040100065746572733A0020480020204D363635AD
:10402000204C0044656C74612073657474696E671C
:10403000733A204C3C646961676F6E616C20726FEB
:10404000643E20523C7261646975733E20483C684E
:1040500065696768743E20533C7365676D656E746F
:104060007320706572207365633E2058595A3C7402
:104070006F77657220616E676C65207472696D3E42
:10408000204142433C726F64207472696D3E00208F
:10409000204D363636205800456E6473746F70209C
:1040A00061646A7573746D656E743A00206D657332
:1040B0006865732E0A0A00454550524F4D206361D2
:1040C0006E20686F6C642000416374697665204DD2
:1040D00065736820536C6F743A200020204D343291
:1040E0003020530020204D32313820540020204D04
:1040F000323035204200416476616E6365643A2057
:10410000423C6D696E5F7365676D656E745F74695F
:104110006D655F75733E20533C6D696E5F666565C6
:1041200064726174653E20543C6D696E5F747261A7
:1041300076656C5F66656564726174653E20583CA7
:104140006D61785F785F6A65726B3E20593C6D6186
:10415000785F795F6A65726B3E205A3C6D61785F6B
:104160007A5F6A65726B3E20453C6D61785F655F82
:104170006A65726B3E0020204D3230342050004181
:104180006363656C65726174696F6E2028756E6912
:1041900074732F7332293A20503C7072696E745FC9
:1041A000616363656C3E20523C7265747261637436
:1041B0005F616363656C3E20543C74726176656C2C
:1041C0005F616363656C3E0020204D3230312054C6
:1041D0000020204D3230312058004D6178696D75D6
:1041E0006D20416363656C65726174696F6E202830
:1041F000756E6974732F7332293A0020204D323066
:104200003320540020204D3230332058004D617847
:10421000696D756D206665656472617465732028CB
:10422000756E6974732F73293A0053746570732027
:1042300070657220756E69743A0020204D313439F2
:104240002043203B20556E69747320696E204365BE
:104250006C736975730A0020286D6D290020204752
:104260003231202020203B20556E69747320696E06
:10427000206D6D00000048430000484300004843A3
:104280000000C8410000A0420000A0420000A0427F
:104290000000C842B80B0000B80B0000B80B0000CB
:1042A00010270000040000050100030005010005BF
:1042B0000400000005000300B342AE42A942A4423C
:1042C00025532025692F2569005D0A006265642059
:1042D000706C616E65206E6F726D616C203D205B4D
:1042E00000436F756C64206E6F7420636F6D706C2B
:1042F000657465204C5346210054696C74696E677F
:10430000206D65736820706F696E7420003F457280
:10431000726F722070726F62696E6720706F696E63
:10432000742E2041626F7274696E67206F706572BF
:104330006174696F6E2E0A00255320332F330054A9
:10434000696C74696E67206D6573682028332F333C
:10435000290A00255320322F330054696C74696E8A
:1043600067206D6573682028322F33290A00436F58
:10437000727265637465645F5A3D0054696C746958
:104380006E6720506F696E7400255320312F330003
:1043900054696C74696E67206D6573682028312FCD
:1043A00033290A00646F6E650A00496E737566668C
:1043B000696369656E7420646174610A004578748C
:1043C0007261706F6C6174696E67206D6573682EC1
:1043D0002E2E00205A3A0020593A000000220025D3
:1043E0000028002B002E00310034000201000005DF
:1043F0000108010B0100002100240027002A002DE4
:10440000003000330001010000040107010A01052A
:10441000050505070508080808020202020A0A083D
:104420000804040404010101010101010103030363
:104430000303030303040707070C0C0C0C0C0C0C00
:104440000C0202020206060606060606060B0B0B07
:104450000B0B0B0B0B010210202008081020401042
:104460002040800201020108040201010204081038
:104470002040808040201008040201800402018056
:10448000402010080402010804020101020408107F
:104490002040800102040810204080446966663A8A
:1044A0002020200046726F6D5374703A005374657B
:1044B000707065723A0044656C74614B3A20005527
:1044C0006E4C6576656C3A004C6576656C65643A51
:1044D000005261773A20202020000A4C6F67696300
:1044E000616C3A00436F756E7420453A0043617009
:1044F0003A003F5A206F7574206F662072616E67B4
:10450000652028003F59206F7574206F6620726106
:104510006E676520282D003F58206F7574206F66E8
:104520002072616E676520282D0050726F626520D1
:104530004F6666736574205800656E7175657565A4
:10454000696E672022006F6B00526573656E643A76
:104550002000204D3932205400204D39322058009F
:10456000285300416476616E636520540020283032
:104570002D313029002076616C7565206F757420AF
:104580006F662072616E67650020496E76616C69A6
:104590006420657874727564657220005072696E6B
:1045A000742066726F6D204D6564696100256875C1
:1045B0003A25303268750025303268753A25303238
:1045C000687500486F6D6520257325732573204637
:1045D0006972737400436F6E74696E7565004C6F19
:1045E00061642046696C616D656E74205400496E8B
:1045F000736572742066696C616D656E7420616E9E
:10460000642073656E64204D3130380A00220A0040
:10461000556E6B6E6F776E20636F6D6D616E643A71
:1046200020220000000A0B02090C0D0E08070304EB
:104630000100000000000000000000000000000079
:104640000000000000000000000000000000001258
:104650001110000000000000000000000000000039
:10466000000000000000000000006A017802112430
:104670001FBECFEFD1E2DEBFCDBF00E00CBF13E025
:10468000A0E0B2E0EEEBFBE603E00BBF02C0079058
:104690000D92AE3AB107D9F728E1AEEAB3E001C016
:1046A0001D92AE3FB207E1F713E2C6E3D3E200E0AA
:1046B00006C021970109802FFE010F9406B1C53372
:1046C000D10780E00807A9F70F949B990D94CDB509
:1046D0000C9400002F923F924F925F926F927F92C4
:1046E0008F929F92AF92BF92CF92DF92EF92FF9202
:1046F0000F931F93CF93DF93CDB7DEB7E1970FB63C
:10470000F894DEBF0FBECDBF89AB2091EA182CA76D
:1047100081E08093EA18809115188D3409F4E1C284
:10472000843511F40C948F35873411F00C94B03526
:1047300080911318909114188D31910509F440C19E
:104740009CF48430910509F4CBC01CF4029760F10D
:10475000C4C28B31910509F402C10CF021C1459707
:1047600011F40C94B235B9C28A32910509F402C22F
:104770005CF48E31910509F427C1819709F0ADC22F
:104780000E9450FE0C94B2358B35910509F49BC103
:104790008C35910509F49CC18A35910509F09DC2BB
:1047A0001092BC030C94B23580916110813011F0ED
:1047B0000C94B2351AE6C12E12E0D12E0BE4E02E95
:1047C00003E1F02E10E088E5810F0E942B3A882348
:1047D000F1F00E94A4394B015C018091B60D81116A
:1047E00016C0812F0F94D08B882359F0D6012D91BC
:1047F0003D914D915C91C501B4010F940FB14B01F6
:104800005C01F70180829182A282B3820AC0F60124
:1048100080819181A281B381F70180839183A283FA
:10482000B3831F5FF4E0CF0ED11C24E0E20EF11C35
:10483000133049F685E40E942B3A882301F10E9447
:10484000A4396B017C0183E00F94D08B882371F035
:10485000209176023091770240917802509179024E
:10486000C701B6010F940FB16B017C01C0925713C1
:10487000D0925813E0925913F0925A1310C08091BD
:10488000760290917702A0917802B091790280939C
:10489000571390935813A0935913B0935A1340E0B1
:1048A00050E0BA0186E40E94E38820E030E0A901EC
:1048B0000F942AB3181684F40E94A43920E030E043
:1048C00040E752E40F9497B1609341027093420223
:1048D00080934302909344020E9410C80C94B23516
:1048E00080E50E942B3A882329F00F94D08D6B012C
:1048F0007C0103C0C12CD12C760183E50E942B3AA8
:10490000882361F00E94A43920E030E04AE754E4B3
:104910000F9471AA0F9410B26B017C010E947BC1AD
:1049200080917706811105C060E08EE197E00E94DA
:104930003DAA0F940699C60ED71EE81EF91E0F94C5
:104940000699DC01CB018C199D09AE09BF09B7FDA1
:1049500002C00C94B23580E00E94E34DF0CF0F947A
:10496000479481110C94B23519821A821B821C82E1
:104970001D821E821F82188680E090E0A0EAB1E4CA
:1049800089879A87AB87BC8760E070E080E50F94E9
:10499000E98BBE016F5F7F4F0E94D2700C94B235DD
:1049A00080917B138770873011F00C94BB3560E0E9
:1049B0008FE40F94FE1681110C94B2350C94BB3524
:1049C0000E948C430C94B2352091DA123091DB12A4
:1049D0004091DC125091DD1260916A0270916B027D
:1049E00080916C0290916D020F940FB1AB01BC01EC
:1049F00088E50E94E38869837A838B839C83209176
:104A0000DE123091DF124091E0125091E11260917C
:104A10006E0270916F0280917002909171020F94FA
:104A20000FB1AB01BC0189E50E94E3886D837E83F1
:104A30008F839887BE016B5F7F4FCE0101960E94E6
:104A40009B3A882311F40C94B23580E00E94084010
:104A50000E9428CA84E690E090932E0280932D0253
:104A600061E085E40F94FE1601E021E041E0682F4B
:104A7000CE0101960E94C03D6B017C019B01AC01FF
:104A80000F940BB4811119C049815A816B817C81CB
:104A900081E397E00E94A64D4D815E816F8178850C
:104AA0008CE297E00E94A64DB701A60187E297E04D
:104AB0000E94A64D8AE00E945E4B0E940FCA0E948F
:104AC00037D10C94B2358FE08093BC030C94B2358F
:104AD000A9E7CA2EA3E0DA2EBAE6EB2EB2E0FB2E4F
:104AE00000E0312C10E0D6018D916D010E942B3A2F
:104AF000882359F10E94A4394B015C01F701208100
:104B00003181428153810F940EB12B013C012DEB79
:104B100037E346E855EB0F942AB387FD0AC02DEB27
:104B200037E346E855E3C301B2010F940BAA181608
:104B300064F4133011F401E002C033243394D7013C
:104B40008D929D92AD92BC9213971F5FB4E0EB0ED5
:104B5000F11C143041F6332019F00E9435D106C003
:104B6000002321F086E792E00E9446E30E9437D1BD
:104B70000C94B23580916110813011F00C94B235F3
:104B800089E40E942B3A082F882321F00E94A03943
:104B9000E82E01C0E12C8AE40E942B3A182F8823CA
:104BA00021F00E94A039F82E01C0F12C002319F049
:104BB000E4E0EE1528F0112349F0F4E0FF1530F49D
:104BC00089E397E00E94654B0C94B23580E1EAE6F8
:104BD000F2E0ABE4B3E101900D928A95E1F7002396
:104BE00059F08E2D0E943C3B60934B1370934C13F5
:104BF00080934D1390934E13112359F08F2D0E94E3
:104C00003C3B60934F1370935013809351139093D8
:104C1000521360E080E50F94FE168823C1F1002353
:104C2000D1F02091DA123091DB124091DC125091D8
:104C3000DD1260914B1370914C1380914D13909144
:104C40004E130F940EB160934B1370934C138093DB
:104C50004D1390934E131123D1F02091DE12309119
:104C6000DF124091E0125091E11260914F13709168
:104C7000501380915113909152130F940EB1609381
:104C80004F1370935013809351139093521340E03D
:104C900050E0BA0186E40E94E3886B017C0120E0C9
:104CA00030E0A9010F942AB318164CF420E030E04C
:104CB00040E752E4C701B6010F9497B103C060E02A
:104CC00070E0CB0169837A838B839C8360E0CE01A3
:104CD00001960E9441CA0C94B2350F9424930C940F
:104CE000B23500911318109114180D37110509F4FD
:104CF00084C60CF004C10135110509F4A6C60CF0F8
:104D000081C00A31110509F40FC3DCF50431110526
:104D100009F480C28CF40131110509F467C234F43E
:104D20000230110508F414C20C948C3502311105BF
:104D300009F4B2C60C948C350731110509F49FC2F1
:104D40009CF40531110509F496C20631110511F0E4
:104D50000C948C350F94E1318091AE17877F80627F
:104D60008093AE170C94B2350831110509F4A0C236
:104D70000931110511F00C948C350F9433920C9479
:104D8000B2350032110509F497C304F50D31110550
:104D900009F42AC38CF40B31110509F4D3C20C3188
:104DA000110511F00C948C35809111189091121806
:104DB0000F9477370C94B2350E31110509F41BC3EB
:104DC0000F31110509F4BBC30C948C350C3411055B
:104DD00009F492C46CF40934110509F45BC40B3472
:104DE000110511F00C948C350E94F84A0C94B235E0
:104DF0000D34110509F484C40035110509F401C608
:104E00000C948C350D36110509F4A6C47CF50C35CF
:104E1000110509F49DC684F40335110509F434C65F
:104E20000CF42AC60435110509F436C605351105FA
:104E300009F469C60C948C350A36110509F4CAC404
:104E400054F40836110509F45FC40936110509F454
:104E5000ADC40C948C350B36110509F4FDC40C3629
:104E6000110511F40C94B2350C948C3503371105EF
:104E700009F41BC7ECF40037110511F40C94B2359A
:104E800054F40E36110509F4F2C40F36110509F475
:104E900001C50C948C350137110509F440C5023762
:104EA000110511F00C948C350F9445890C94B23592
:104EB0000737110509F4BFC78CF40537110509F44C
:104EC00076C70637110511F00C948C350091111836
:104ED0001091121894E0F12C40E091C708371105A9
:104EE00009F4ACC70937110511F00C948C351092F8
:104EF000970E1092960E0E94F1680C94B235043A07
:104F000021E0120711F40C944D330CF08CC00A3DD3
:104F1000110511F40C94D630E4F5093C110511F497
:104F20000C949A2FC4F40139110509F48FC734F495
:104F30000C38110509F418C50C948C350B39110582
:104F400009F433C50E3B110511F00C948C350E9409
:104F5000958D0C94B2350D3C110511F40C94233051
:104F600064F40B3C110511F40C94CA2F0C3C110590
:104F700011F40C94F22F0C948C35033D110511F4AF
:104F80000C943330093D110511F40C94C3300C948A
:104F90008C350E3281E0180711F40C94FC3204F5C4
:104FA0000232A1E01A0711F40C94DD3164F40C3DD7
:104FB000110511F40C946B310D3D110511F40C9495
:104FC00092310C948C350C32E1E01E0711F40C94F4
:104FD00022320D32114011F40C9437320C948C357E
:104FE000013921E0120711F40C9443337CF40F32A1
:104FF00081E0180711F40C9440330039114011F08E
:105000000C948C350E947BC10C94B2350239A1E01E
:105010001A0711F40C9448330A39114011F40C9416
:10502000B2350C948C350939E2E01E0711F40C946A
:10503000FB340CF045C0063F21E0120711F40C943C
:105040005534ECF4063E81E0180711F40C94E63375
:105050003CF4053A114011F40C9450330C948C3507
:10506000043FB1E01B0711F40C945234053F11408A
:1050700011F00C948C350F940A700C94B2350C30EE
:10508000F2E01F0711F40C9472346CF4073F31E026
:10509000130711F40C945834083F114011F40C9488
:1050A00061340C948C35083592E0190711F40C9496
:1050B0007F340B35124011F40C9482340C948C35EF
:1050C0000335B3E01B0711F40C945B35FCF40E3B85
:1050D000F2E01F0711F40C9420357CF40A3932E019
:1050E000130711F40C94FE340D3B124011F00C9494
:1050F0008C350F94AE8F0C94B235C8018A52934010
:105100000A9710F40C9423350C948C35003A93E0F4
:10511000190709F406C27CF40C36B3E01B0711F43E
:105120000C94B2350438134011F00C948C350F9464
:10513000FC8B0C94B235073EF3E01F0711F40C947E
:105140005E35093E134011F40C946C350C948C358B
:1051500080E50E942B3A882329F00F94D08D6B01B3
:105160007C0103C0C12CD12C760183E50E942B3A2F
:10517000882361F00E94A43920E030E04AE754E43B
:105180000F9471AA0F9410B26B017C010E947BC135
:105190008091111890911218009721F061E00E94FF
:1051A000AEAA05C060E082E697E00E943DAA809129
:1051B000131890911418892B19F06AE577E002C052
:1051C00062E577E040E082E00F94451B85ED95E4D1
:1051D0000F94751B0F942D1B40E0C701B6010E9470
:1051E000D95280E00E94A2770C94B23580911618B3
:1051F00084FF02C00C9401368091181887FF02C00A
:105200000C94013680911918837011F00C940136BA
:105210000C9419368091AE1783FF25C08DE897E076
:105220000E94654B8091AE1783FF17C080EE95E119
:105230000E94BAE58BE1E0EEF5E1DE011196019006
:105240000D928A95E1F760E070E0CE0101960F942F
:10525000D938CE0101960E94BFE58EE797E00E9403
:10526000654B0C94B2350E948B4B8EE997E00E94FF
:10527000654B0C94B2350F94A0320C94B235E0918A
:105280001118F09112188081882329F0803209F4D6
:1052900010823196F8CF60E0809111189091121829
:1052A0000F94C1371092D6051092D5050C94B235E3
:1052B000809164108823F9F080E090E0A8E4B2E4E3
:1052C00088A399A3AAA3BBA31C8E1D8E1E8E1F8E1E
:1052D00019821A821B821C8200E010E020E0AE01DD
:1052E000405E5F4FBE01645E7F4FCE0101960F941A
:1052F00059190C94B2350E94D44A882321F00F9496
:10530000F2310E94F84A61E08AEE94E10F9441196B
:1053100042EB54E168EA77E085E00F94319480E055
:105320000E94A2770C94B2358091AE1783FD02C023
:105330000C94B23583E50E942B3A81110C942436EB
:105340000C94B23583E40E94DD39882319F18EEB89
:1053500097E00E94654B80918A15882391F0BE01E9
:105360006F5F7F4F87E895E10E9481E48E010F5FB8
:105370001F4FD8018D918D01882339F00E945E4B1B
:10538000F8CF84EB97E00E94654B8AE00E945E4B69
:105390000C94B23583E50E942B3A882309F10F94CF
:1053A000CE16182F90E0CD970CF01CE31093B203AB
:1053B0000F9406996B017C01212F30E0A8EEB3E039
:1053C0000F94B5B0C60ED71EE81EF91EC092AE03EC
:1053D000D092AF03E092B003F092B1030C94B235D7
:1053E0000F94B1310C94B2358091AE178E7F8093BB
:1053F000AE170C94B2358091AE1783FD02C00C94A9
:10540000B2350F949A858091AE1783FD02C00C943B
:10541000B2354091111850911218BE01645E7F4F51
:1054200080E00F942E838C01009711F40C94B23518
:105430006C8D7D8D19821C8222E0AC01CE0101961B
:105440000E94EFE9811102C0F12C14C0CE01019637
:105450000F949C828823C1F361E0CE0101960E94E3
:1054600065E4009789F325EEFC0120831C820F94EC
:10547000F333F82ECE0101960E94BFE5B801FF205C
:1054800089F085EE97E00E94744B8AE00E945E4BA3
:105490001092AA171092AB171092AC171092AD177A
:1054A0000C94B2358DEC97E00E94744B85EB9AE238
:1054B0000E94654B0C94B2358091AE1782FD0E941C
:1054C0007BC18091AE1783FD02C00C94B23560E0C1
:1054D00080E50F94FE16182F682F80911118909177
:1054E00012180F94C13783E50E942B3A882381F06C
:1054F0000E949039AB01BC014093AA175093AB179F
:105500006093AC177093AD1787E895E10F94193647
:105510000F94F23111110C94B2350E94F84A0C9498
:10552000B23520911118309112189091AE179260F7
:105530009093AE17C9010F9477370C94B2350E943F
:10554000696D7B018C0120E831E541E050E00F946A
:1055500061B0C9016DE671E00F94DEB04B015C01F2
:10556000C801B70120E13EE040E050E00F9461B097
:10557000CA01B90128E130E040E050E00F9461B089
:10558000762E672EC62ED72EFCE32F2E312C412CE3
:10559000512CC801B701A20191010F9461B0F62E00
:1055A000E72ECA01B901A20191010F9461B0CB01AC
:1055B0008E010F5F1F4F8114910499F0EF92FF92BB
:1055C0007F936F936F927F92BF92AF929F928F92D1
:1055D00083EF97E09F938F931F930F930F94A3A94B
:1055E00013C0A114B104B1F0EF92FF927F936F93B7
:1055F0006F927F92BF92AF9287EF97E09F938F93C6
:105600001F930F930F94A3A90FB6F894DEBF0FBE9C
:10561000CDBF30C0CD2879F0EF92FF927F936F938A
:105620006F927F928BEF97E09F938F931F930F93CF
:105630000F94A3A9E9CF892B69F0EF92FF927F9392
:105640006F938FEF97E09F938F931F930F930F9418
:10565000A3A9DACFEF92FF9283E098E09F938F9314
:105660001F930F930F94A3A90F900F900F900F907B
:105670000F900F9060E0C8010E94AEAA0E948B4B71
:10568000B80187E098E00E94744B8AE00E945E4B6C
:105690000C94B23580E50E94DD398823A1F00E9488
:1056A000A43920E030E048EC52E40F9471AA0F9442
:1056B00010B26031F7E27F0710F060E177E270939B
:1056C000D6056093D50582E50E94DD39882311F463
:1056D0000C94B2350F94D08D9B01AC01ACE3B0E0DB
:1056E0000F94A2B060936506709366068093670678
:1056F000909368060C94B2350E94DC6D0C94B23520
:105700000E94F16D0C94B2358091B70D83FF02C0F9
:105710000C94B2350F94A68B182F87FF02C00C94FF
:10572000B23589E40E942B3A882311F40C94353663
:105730000F94CE1690E01816190614F481E090E04C
:1057400026E0289FF001299FF00D1124EA51FD4E1B
:10575000808191810C943F368091B70D83FF02C008
:105760000C94B2350F94A68B082F87FF02C00C94BF
:10577000B23589E40E942B3A182F882311F40C9437
:1057800049360F94CE1690E01816190614F481E0ED
:1057900090E026E0289FF001299FF00D1124EA51A6
:1057A000FD4E80819181F12C0C9459360F94A68B7B
:1057B000182F87FD0AC086E495E40E94654B812F6F
:1057C0000E943CED8AE00E945E4B9CA59093EA18F3
:1057D0000C94D03760E080E50F94E21681110C94B0
:1057E000B23581E40E94DD39882349F0E0919316B7
:1057F000F0E0E05CF84F6081062F10E002C00FEF90
:1058000010E089E40E942B3A882399F00F94CE1679
:1058100090E01816190614F481E090E026E0289F25
:10582000F001299FF00D1124EA51FD4E04811581EC
:1058300008C083E50E942B3A882319F00E94903912
:105840008B01B8010F3F110519F010F06FEF70E0F8
:10585000609340070C94B23560E080E50F94E21647
:1058600081110C94B235109240070C94B2358EE43D
:105870000E942B3A882311F40C94B2350E9490397F
:105880006093090670930A0680930B0690930C06AA
:105890000C94B23583E50E94DD39882331F060E055
:1058A00083E50F94E2168093B70D0E948B4B8BE13A
:1058B00098E00E94654B8091B70D882369F1E3E978
:1058C000EE2EEBE0FE2E00E010E020E08091B70D20
:1058D00090E0A0E0B0E0002E04C0B695A7959795A3
:1058E00087950A94D2F780FF0EC0DD24D394D20EA0
:1058F000222319F08CE20E945E4BF701859194916E
:105900000E94654B2D2D0F5F1F4FA2E0EA0EF11C88
:1059100005301105D9F639CD80E090E134CD83E52D
:105920000E942B3A882381F00F94CE16282F30E066
:105930002D33310524F4809300020C94B2358CE3AE
:10594000809300020C94B2350E948B4B4091000270
:1059500050E060E070E082E298E00E94D84C8AE07B
:105960000E945E4B0C94B2358091B70D83FF02C04C
:105970000C94B23589E40E942B3A882311F40C94DC
:10598000B2360F94CE1690E01816190614F481E082
:1059900090E026E0289FF001299FF00D1124EA51A4
:1059A000FD4E628173810C94BC3683E50E942B3AD4
:1059B000882311F40C94B2350F94CE16182F90E072
:1059C000CD970CF01CE31093B7030F9406996B016D
:1059D0007C01212F30E0A8EEB3E00F94B5B0C60EE5
:1059E000D71EE81EF91EC092B303D092B403E09212
:1059F000B503F092B6030C94B2350F9433920C9425
:105A0000B23583E50E94DD39882369F08091870EE5
:105A1000882319F08FE298E002C089E298E00E94A2
:105A2000654B0C94B235269A2E9881E08093870EB0
:105A3000809A889A6AEF70E080E090E00E948E4041
:105A400080E00E94A2770C94B2350F9489420E94A4
:105A5000F16D0E94A2C10E941B4B68EE73E080E0D2
:105A600090E00E948E400E941E4B60E085E398E02B
:105A70000E943DAA0C94B2358091BC038F7D806159
:105A80008093BC030C94B2358091BC038F7E8062FE
:105A90008093BC030C94B23583E50E942B3A882393
:105AA000F1F00F9406996093CE0D7093CF0D809313
:105AB000D00D9093D10D0E94A43920E030E04AE748
:105AC00054E40F9471AA0F9410B260930102709382
:105AD000020280930302909304020C94B2358091E9
